:020000040000FA
:1000000058770020750500007D050000E103000021
:100010008105000083050000850500000000000048
:10002000000000000000000000000000DD040000EF
:100030008905000000000000190500008D05000082
:10004000CD1200008F050000811500009D130000F7
:100050008F0500008F0500002D1000008F050000A7
:100060008F0500008F0500008F0500008F05000040
:100070008F0500008F0500008F0500008F05000030
:100080008F050000DD1200008F0500008F050000C5
:100090008F0500008F0500008F0500008F05000010
:1000A0008F0500008F0500008F0500008F05000000
:1000B0008F0500008F050000000000000000000018
:1000C0008F0500008F0500008F0500008F050000E0
:1000D0008F0500008F0500008F0500008D150000C2
:1000E0008F0500008F0500008F0500000000000054
:1000F000000000008F050000000000008F050000D8
:1001000000000000000000000000000000000000EF
:1001100000000000000000000000000000000000DF
:1001200000000000000000000000000000000000CF
:1001300000000000000000000000000000000000BF
:1001400000000000000000000000000000000000AF
:10015000000000000000000000000000000000009F
:10016000000000000000000000000000000000008F
:10017000000000000000000000000000000000007F
:10018000000000000000000000000000000000006F
:10019000000000000000000000000000000000005F
:1001A000000000000000000000000000000000004F
:1001B000000000000000000000000000000000003F
:1001C000000000000000000000000000000000002F
:1001D000000000000000000000000000000000001F
:1001E000000000000000000000000000000000000F
:1001F00000000000000000000000000000000000FF
:10020000DFF810D000F092FC00480047E1590000F0
:10021000AFF300805877002030B4044654E8000F54
:100220000D4644E80053002BF8D1156030BC7047F0
:1002300030B4044654E8000F40EA010544E8005396
:10024000002BF7D1156030BC704730B4044654E839
:10025000000F00EA010544E80053002BF7D11560B8
:1002600030BC704730B4044654E8000F80EA010502
:1002700044E80053002BF7D1156030BC704730B410
:10028000044654E8000F00EB010544E80053002B3E
:10029000F7D1156030BC704730B4044654E8000F05
:1002A000A0EB010544E80053002BF7D1156030BCEA
:1002B000704770B404464FF0000054E8006F0D68BA
:1002C000AE4207BF44E80023012044E800630E600B
:1002D000002B1CBF0020F0E770BC704730B4044610
:1002E00054E8000F88422CBF451A054644E80053E5
:1002F000002BF5D1156030BC7047000030B40446C7
:1003000054E8000F0D4644E80053002BF8D1156067
:1003100030BC704730B4044654E8000F40EA010591
:1003200044E80053002BF7D1156030BC704730B45F
:10033000044654E8000F00EA010544E80053002B8E
:10034000F7D1156030BC704730B4044654E8000F54
:1003500080EA010544E80053002BF7D1156030BC5A
:10036000704730B4044654E8000F00EB010544E840
:100370000053002BF7D1156030BC704730B40446F1
:1003800054E8000FA0EB010544E80053002BF7D11F
:10039000156030BC704770B404464FF0000054E85C
:1003A000006F0D68AE4207BF44E80023012044E817
:1003B00000630E60002B1CBF0020F0E770BC70478C
:1003C00030B4044654E8000F88422CBF451A054655
:1003D00044E80053002BF5D1156030BC7047000095
:1003E000094B1EF0040F1CBFEFF309801847EFF311
:1003F00008800649064A884201D8904202D88D46B4
:100400004FF0000018470000D1100000587700207E
:100410005857002030B450E8012F93B2C4892344C8
:100420008489A34228BF1B1B0489A34202BFBFF3D8
:100430002F8F002007E0C3EA020340E80134002CBC
:10044000E9D14FF001000A6030BC704750E8012F3D
:10045000C2EA024240E801210029F7D1704730B4D6
:1004600050E8022F1FFAA2F3C488A34202BFBFF3D1
:100470002F8F00200DE0C48923448489A34228BF24
:100480001B1BC2EA034340E80234002CE8D14FF0C2
:1004900001000A6030BC704750E8022FC2EA2242D5
:1004A00040E802210029F7D17047034653E8022FA4
:1004B000D988B2EB324F4FF0000017BF92B241EA39
:1004C000014142EA014104E05A68B2EB324F08BFF1
:1004D000012043E80212002AE8D17047244B196832
:1004E0000868B0E8F04F80F30988BFF36F8F4FF0D2
:1004F000000080F311887047000000000548006884
:1005000080F3088862B661B6BFF34F8FBFF36F8F79
:1005100000DF000000000000EFF30980BFF36F8FE1
:10052000134B1A681EF0100F08BF20ED108A20E947
:10053000F04F106008B44FF0400080F31188BFF313
:100540004F8FBFF36F8F0AF031FA4FF0000080F346
:10055000118808BC19680868B0E8F04F1EF0100F49
:1005600008BFB0EC108A80F30988BFF36F8F704723
:10057000180200200648804706480047FEE7FEE7CD
:10058000FEE7FEE7FEE7FEE7FEE7FEE7FEE7FEE743
:10059000AD13000001020000004870470CB90000D4
:1005A00040EA01039B0703D009E008C9121F08C0F5
:1005B000042AFAD203E011F8013B00F8013B521E75
:1005C000F9D27047D2B201E000F8012B491EFBD2EC
:1005D00070470022F6E710B513460A46044619464E
:1005E000FFF7F0FF204610BD421C10F8011B002948
:1005F000FBD1801A7047034611F8012B00F8012B3C
:10060000002AF9D1184670472DE9FE4F81EA03040C
:1006100004F0004421F0004100944FF0000B23F05F
:10062000004350EA01045ED052EA03045BD0C3F3F6
:100630000A54C1F30A552C44A4F2F3340194A0FBEC
:100640000254C1F3130141F48011C3F3130343F4C3
:10065000801301FB024400FB034E840A970A44EA1C
:10066000815447EA8357A4FB076802958D0A05FB6E
:1006700007854FEA932C04FB0C542705029D4FEA93
:10068000065847EA1637B5EB08056EEB070C870EE0
:10069000920E47EA811742EA8312A7FB0201B6EBEA
:1006A0000B0164EB00042B0D43EA0C335E1844EBA2
:1006B0001C50DA465146E7FB0201C5F313044FEA2A
:1006C0000B3343EA14534FEA0432019C43EA060316
:1006D000A4F10C040294009CCDE900B400F082F86F
:1006E00003B0BDE8F08F00200146F9E7C1F30A52DC
:1006F00010B5C1F3130140F2FF3341F480119A4267
:1007000001DA002010BD40F233439A42A2F2334294
:1007100003DC524200F047F810BD904010BD00F0DD
:10072000004230F000400AD0C10D01F56071C0F305
:10073000160042EA0151C2084007114370470020E9
:10074000014670472DE9F05F0546002092469B4622
:1007500088460646814640241BE0284641464746D7
:10076000224600F020F853465A46C01A914110D351
:1007700011461846224600F0EBF92D1A67EB0108E6
:100780004F4622460120002100F0E2F917EB000954
:100790004E41201EA4F10104DFDC484631462A46C2
:1007A0004346BDE8F09F202A04DB203A21FA02F0FC
:1007B0000021704721FA02F3D040C2F1200291409B
:1007C00008431946704710B5141E73F1000408DA87
:1007D000401C41F1000192185B411A4301D120F005
:1007E000010010BD2DE9F04D92469B4611B1B1FAC2
:1007F00081F202E0B0FA80F22032904600F0A8F9CF
:1008000004460F4640EA0A0041EA0B0153465A46A5
:10081000084313D0114653EA010019D0C8F1400231
:100820005046FFF7C0FF05460E4650465946424621
:1008300000F08EF9084305D0012004E02046394637
:10084000BDE8F08D0020054346EAE0762C433743AF
:100850000A986305E40AA0EB08000022FD0A44EAB6
:1008600047540A3002D500200146E9E70105101976
:100870006941DDE9084500196941BDE8F04DA2E78D
:100880002DE9FE4F804681EA0300C00F0C46009020
:1008900021F0004123F00045B8EB0200A94105D248
:1008A0004046214690461C460B46024623F0004037
:1008B000104347D0270DC7F30A00C3F30A51029033
:1008C000401A019040286BDAC3F3130040F4801BF8
:1008D0000098924620B10023D2EB030A63EB0B0B86
:1008E00001985946C0F14002504600F031F90646E1
:1008F0000D4650465946019A00F039F910EB0800B0
:100900006141002487EA115284EAE7731A4340D018
:10091000009A62B3019A012A4FEA075215DC001BC4
:1009200061EB02014FF0004202EA0752CDE90042BA
:10093000001C41F5801132462B46FFF753FF03B0F0
:10094000BDE8F08F40462146F9E7001B61EB02014C
:10095000001C41F5801300185B412018A2F5001718
:1009600047EB030140EAD570B6196D4111E06D08FF
:100970004FEA360645EAC0754FEA0752001B61EBA5
:100980000201001C41F5801149084FEA30000019AE
:10099000514132462B4603B0BDE8F04FFFF713BF7D
:1009A0000098012240000023D0EB020263EBE073C9
:1009B000009821464FEAE074B8EB000061EB0401B7
:1009C000E9E783F000435BE781F0004158E72DE958
:1009D000F04D81EA030404F0004B21F00045144679
:1009E0004FF0000A23F0004150EA050220D054EAFB
:1009F00001021DD0C5F30A570246C5F31303C1F324
:100A00001300C1F30A5640F4801543F48013A7EB9A
:100A10000608101BD64608F2FD3873EB050002D31A
:100A200008F1010801E092185B41B8F1000F03DA08
:100A300000200146BDE8F08D00204FF480110646ED
:100A400084460EE0171B73EB050705D3121B63EBFF
:100A5000050306434CEA010C49084FEA300092189E
:100A60005B4150EA0107EDD152EA030012D082EA5D
:100A7000040083EA0501084305D0101BAB4106D2F0
:100A80000122002306E000224FF0004302E06FF055
:100A9000010253101AEB06004CEB085110EB0A0050
:100AA00041EB0B01BDE8F04DFFF78DBE70B521F0B5
:100AB000004303430CD0C1F30A550024D5EB0405D1
:100AC00064EB0403D617AD1AB34102DB00200146E4
:100AD00070BD201841EB025170BD0EB5C10F80EA08
:100AE000E0700844CA07002140F233438DE80E004D
:100AF0000A460B46FFF776FE03B000BD30B5041E74
:100B000071F1000404DB4FF00044404264EB01014A
:100B1000141E73F1000405DB1C464FF000435242E3
:100B200063EB0403994208BF904230BD064C074D69
:100B300006E0E06840F0010394E8070098471034AD
:100B4000AC42F6D3FFF760FB94C10000B4C10000D3
:100B5000202A04DB203A00FA02F10020704791407D
:100B6000C2F1200320FA03F3194390407047202A72
:100B700006DBCB17203A41FA02F043EAE07306E0C5
:100B800041FA02F3D040C2F12002914008431946D5
:100B900070472DE9F04D00231A461B1A8A4103DBEA
:100BA00000200146BDE8F08DC1F30A52C1F31301E4
:100BB00041F480154FF0000BD10702D100186D41B0
:100BC000521E0027044640F2FF11384601EB620A2C
:100BD0003E468046024600204FF48011FFF7E3FDB9
:100BE000C2197141BB1846EB0100B4EB030C75EB65
:100BF000000C04D3E41A65EB000517460E462419D1
:100C000008F101006D4180463428E3DDF91946EB17
:100C10000600091BA84103D24FF0FF32134601E042
:100C2000002213461BEB070046EB0A51BDE8F04DCE
:100C3000FFF7C9BD30B58C1810F8012B12F00F0367
:100C400001D110F8013B120906D110F8012B03E085
:100C500010F8015B01F8015B5B1EF9D101E001F8BE
:100C6000013B521EFBD1A142E6D3002030BD000063
:100C700038B505460AA00C46006800908DF80110B2
:100C8000022269460D2008F031FE002807D02246D6
:100C900029460D2008F00CFE002800D0012038BDA8
:100CA000A100000030B589B01E2902D9002009B08A
:100CB00030BDA0228DF800208DF8011000226B4677
:100CC00003E0845C9D18521CAC708A42F9DB891CDD
:100CD000CAB219460D2008F009FEE8E770B50546CE
:100CE0000C46104600F096F8002806D0214628460B
:100CF000FFF7BEFF002800D0012070BD10B50446EC
:100D000094220221FFF7EAFF002807D09622022151
:100D1000A01CFFF7E3FF002800D0012010BD8F22A8
:100D20000121FFF7DBBF10B542EA810141EA001063
:100D3000029CC0B2210141EAC301CCB2802100F083
:100D400059F9002805D02046BDE81040812100F067
:100D500051B910BD08B5B0F5007F01D3002008BD22
:100D6000C0F300220A438DF800208DF801008A228A
:100D70000221684600F049F90028F0D0012008BDA2
:100D800030B504461E480D462DED028B81B08442DD
:100D900004D9002001B0BDEC028B30BD9FED191BC2
:100DA0009FED1A0B00F010FDB0EE408AA80800EE8F
:100DB000100AF0EE608AF8EE400A00EE104AB8EE33
:100DC000401A81EE200A10EE100AFFF7A8FC53EC3F
:100DD000182BFFF719FCFFF789FCC0F303418DF8CE
:100DE0000010010A8DF801108DF802008522032100
:100DF000684600F00AF90028CCD00120CAE70000BC
:100E0000A08601000000000000003B400000000040
:100E10000000004008B505A10222096800918DF884
:100E2000010069460D2008F061FD08BDB00000001A
:100E300030B50D4604461F49A0F57A702DED028BA2
:100E400081B0884204D3002001B0BDEC028B30BDDC
:100E50009FED191B9FED1A0B00F0B6FCB0EE408A17
:100E6000A80800EE100AF0EE608AF8EE400A00EEE4
:100E7000104AB8EE401A81EE200A10EE100AFFF771
:100E80004EFC53EC182BFFF7BFFBFFF72FFCC0F312
:100E900003418DF80010010A8DF801108DF8020051
:100EA00082220321684600F0B0F80028CCD001204F
:100EB000CAE70000B98201000000000000003B40CA
:100EC000000000000000004008B5B0F5007F01D32D
:100ED000002008BDC0F300218DF800108DF801003E
:100EE00088220221684600F090F80028F1D0012005
:100EF00008BD2DE9FE430446012000901E4617461A
:100F00008846A37B227D617B0B20FFF70CFF002826
:100F10006ED021692068FFF78BFF002868D0216917
:100F20006068FFF72DFF002862D02089FFF7CCFF13
:100F300000285DD0217B6089FFF70CFF002857D087
:100F400000250095A37B227D617B0120FFF7EBFE4E
:100F500000284DD0642004F0D5FE0095A37B227DAF
:100F6000617B0220FFF7DFFE002841D0E582206888
:100F700029E00A2004F0C6FE01A8FFF7D0FE9DF884
:100F80000410890701D40028F3D102A8FFF7B6FEA8
:100F9000E28AA16948F82210E18ABDF8080027F822
:100FA0001100E18ABDF80A0026F811000095A37B24
:100FB000227D617B0320FFF7B6FEE08A401CE082C1
:100FC0006168A0690844A06101A8FFF7A8FE9DF828
:100FD0000410490701D40028CBD10095A37B227DC2
:100FE000617B0A20FFF79FFEE5822068A061012057
:100FF000BDE8FE8308B502228DF800108DF80100CF
:1010000069460D2008F072FC08BD70B505460C4617
:101010001046FFF7FFFE002806D021462846FFF7BE
:1010200041FE002800D0012070BD00002DE9FC41E8
:101030000025DFF8948000954FF4807601242F4638
:101040000195304605F00AFB38B1D8F80403204278
:1010500003D0304605F0F8FA2543361D64007F1CA6
:10106000B6B2082FEDD34FF4BE74204605F0F6FA61
:1010700048B1204605F0E8FA45F000456A460221ED
:10108000002005F06FFA15F0FF0F16D0012600249E
:101090002E420ED008EB8401D1F81005D1F81015BE
:1010A000C0F30520094AC1F3014152F8242002B1DE
:1010B00090477600641C082CEAD3002D02DA6846BB
:1010C00006F09AFFBDE8FC810060004000030020AC
:1010D0002DE9FC47814605F051FD00BF05F08CFB72
:1010E0000028FBD12E485FEA090507682D482E49E4
:1010F0004FF00106A0EB01004FEAD00006EB0044E0
:1011000017D0204629A1AA6905F092FCD5E9020171
:10111000CDE90001D5E9002320462AA105F0A0FC75
:10112000E8690090D5E90423204634A105F08FFC3E
:1011300003E020463BA105F077FC1948001D00683C
:10114000800703D52046444905F06EFCDFF80C818A
:10115000002500BF06FA05F0384206D058F82520D1
:101160001AB120463EA105F063FC6D1C1A2DF1D387
:10117000380606D50A480C30026820463BA105F027
:1011800057FC380406D506481030026820463FA1B7
:1011900005F04EFC484600F087F8BDE8FC870000EB
:1011A00028ED00E00CC20000C4C1000048415244D8
:1011B000204641554C5420617420307825303858F1
:1011C00000000000202052303A20203078253038AE
:1011D00058202052313A20203078253038582020AD
:1011E00052323A2020307825303858202052333A75
:1011F000202030782530385800000000202052315F
:10120000323A2030782530385820204C523A20206D
:1012100030782530385820205053523A20307825E5
:1012200030385800537461636B2076696F6C617459
:10123000696F6E3A20737461636B20706F696E74AE
:101240006572206F75747369646520737461636B74
:1012500020617265612E0000F0B90000A800002036
:1012600043617573653A2025732E00004D656D4D01
:10127000616E616765204661756C742041646472BB
:101280006573733A203078253038580042757320E2
:101290004661756C7420416464726573733A2030E2
:1012A0007825303858000000BFF34F8F054801689B
:1012B000054A01F4E06111430160BFF34F8F00BFA5
:1012C000FDE700000CED00E00400FA0510B506F0A3
:1012D0003FF8BDE8104005F01BBF0000F8B5002541
:1012E000EFF31184402080F311881248D0F8046590
:1012F000C0F80051D0F80001009009F0F3FE301A58
:1013000020F07F46012E08D909F0DEFE022804D025
:101310005FF0000609F0ECFE0543761EFAD225B117
:1013200005494FF08050086040BFE0B280F311885B
:10133000F8BD00000010014004ED00E000F062B9CB
:1013400070B50E46144900EB400001EBC005144691
:10135000E86A183520B101280FD0022805D113E022
:10136000284600F083F9A04201D2002411E0224671
:101370003146284600F0D4F90BE0284600F076F913
:10138000A042F4D20446F2E73146284600F09BF929
:101390000446204670BD0000602C00200149024830
:1013A00008F034BBB80200200030004070B54FF0A8
:1013B00080520124D2E94C100023082906D1CD0621
:1013C000C5F80C31C5F810315E4D2B60082955D198
:1013D0005D4D2D685D4E35605B4D2D1D2D68361DB4
:1013E0003560594D08352D68361D3560564D0C3524
:1013F0002D68361D3560544D10352D68361D35600D
:10140000514D14352D68361D35604F4D18352D68FA
:101410004E4E203635604C4D1C352D68361D3560DE
:10142000494D20352D68361D3560474D24352D68D2
:10143000361D3560444D28352D68361D3560424DCA
:101440002C352D68361D35603F4D30352D683F4EAB
:10145000403635603C4D34352D68361D35603A4D8B
:1014600038352D68361D3560374D3C352D68361DB5
:101470003560354D40352D68361D3560082904D15D
:10148000050002D1334E324D3560082904D10500E4
:1014900002D1314EFB253560082908D1050006D15F
:1014A00092F858622D4A156866F3030515600829FD
:1014B00004D1020002D12A4D8A012A60082906D1EE
:1014C00028480168C90702D06FF001010160264871
:1014D000016841F470010160BFF34F8FBFF36F8F5C
:1014E0004FF01021D1F80002002803DBD1F80402EC
:1014F000002822DA1D4A14601D480468002CFCD024
:101500001224C1F800420568002DFCD0C1F8044245
:1015100001680029FCD0136001680029FCD0BFF3EA
:101520004F8F11487C380168124A01F4E061114381
:101530000160BFF34F8F00BFFDE710490E48086000
:1015400070BD0000380500400404001020C50040B4
:10155000488103008C56004018F50040E40E00401E
:10156000409602400004004088ED00E004E50140A0
:1015700000E401400400FA050090D003740200204A
:101580000148006800470000140000202DE9F041E8
:101590001A48D0F80453002601240FE095FAA5F06C
:1015A000B0FA80F7B80000F5807005F021FD10B1A9
:1015B00004FA07F0064304FA07F08543002DEDD145
:1015C000C6F3C05726F40005DFF834800AE000BFF8
:1015D00095FAA5F0B0FA80F658F82600804704FA8C
:1015E00006F08543002DF3D108F0C4FD002F03D091
:1015F000BDE8F04102F0E8BFBDE8F08100700240B4
:1016000050B4000010B5124C02202061606111A09E
:10161000A06104F17800E0614FF4007020620020C6
:10162000A06260620BA1A164E06204F51E71E16436
:101630001021A065C4E91410E06509A1E01DFEF7C2
:10164000DAFF08A12046FEF7D6FF2020A07110BDCA
:10165000602C00205465726D696E616C00000000A2
:101660005254540053454747455200000269C1682F
:101670008A4203D88068401A104400E0501A401E85
:1016800070470000C11700EBD161074B4A1153F8B6
:10169000222021F01F01411A01208840024201D07E
:1016A000012070470020704700E100E0002809DBBE
:1016B00000F01F02012191404009800000F1E0206C
:1016C000C0F8801270472DE9F047C4681746894674
:1016D00006464FF000083069A04201D9051B02E020
:1016E000B168201A0D1AB0686D1E001BA84200D800
:1016F0000546BD4200D33D4670682A46204449460F
:10170000FEF74EFFB0687F1B2C44A844A944A042BA
:1017100000D10024F460002FDDD14046BDE8F08701
:101720002DE9F04104468846D4E90207C51BE1686B
:10173000606816460844B54206D94146FEF730FFB8
:10174000B819E060BDE8F0812A464146FEF728FF5F
:10175000761B08EB050132466068FEF721FFE66064
:10176000F0E700000FB47CB50C0009AD01D0611E9C
:1017700000E00021CDE90001064B6A4629460898A1
:1017800000F030FF002C02D0009A002111707CBCC8
:101790005DF814FB3B2A000003B401984100009857
:1017A00050EAC12018BF04204A0D18BF40F00100C4
:1017B00040F2FF72B2EB515F08BF40F00200012817
:1017C00008BF052002B070472DE9F04D2DED040B48
:1017D0002DED0E8B96B0DDE92550279CDDF890A00D
:1017E00025F0004624F00048BAF1000F14BF012193
:1017F000002101EB4502FC4953184A1093422AD3B9
:10180000002814BF0123002303EB44030B44F749D2
:101810008B4220D358EA00019FEDF59B76D0DFF88C
:10182000D8B35D4503D1BAF1000F05D188E0BAF114
:10183000000F08BF002100D0012101EB450111F587
:10184000001F08D8002814BF0121002101EB44012A
:1018500011F5001F0BD99DED261B9DED240B16B035
:10186000BDEC0E8B04B0BDE8F04D00F069BE002762
:10187000002DBCBFE149884521DAE1498845A8BF70
:1018800002271CDAC3451ADCDE4901EB2851142972
:1018900008DDC1F1340220FA02F101FA02F28242BB
:1018A0000DD108E058B9C1F1140228FA02F101FA89
:1018B00002F2424503D101F00101C1F1020756EAEB
:1018C0000A0124D1002C22DA002D18BF022F01D0EA
:1018D000012F0AD0022000F07FFE16B0BDEC0E8B67
:1018E00004B0BDE8F04D00F013BE022000F074FE1D
:1018F00000F00EFE51EC100B81F0004141EC100B9A
:1019000016B0BDEC0E8B04B0BDE8F08D18E09FED75
:10191000BEAB9FEDBF8B002871D1B848804522D166
:1019200005F1804010F5801008BFBAF1000F07D014
:10193000B3450ADC002CA8BF9DED260BE0DA0DE0D4
:10194000B0EE490AF0EE690ADAE7002C06DA9DEDFE
:10195000260B51EC100B81F000416FE0AE4878444B
:1019600090ED000BCCE7D8454DD1002C48DA2EB1D4
:1019700086423AD1BAF1000F42D126E0BAF1000F07
:1019800013D0022000F028FE00F0F6FD8DED020BD2
:101990009DED240B8DED000B10EE900A039961F381
:1019A0001E0003909DED020BAAE78DED02AB9DEDAD
:1019B000240B1AEE901A10EE900A8DED000B61F3D5
:1019C0001E0003909DED020B9AE78DED028B9DEDBD
:1019D000240B18EE901A10EE900A8DED000B61F3B7
:1019E0001E0003909DED020B8AE709DA9DED240BA2
:1019F00051EC190B53EC102BFEF7E9FF1EE020E031
:101A00009DED240B7CE786421BDAB4F1804F0DD0AC
:101A1000A4F10050B0F1FF5013D1002D11DB9DED6A
:101A2000240B51EC100B07F06BFE07E09DED240B2F
:101A300053EC102B51EC100B00F0C2BC41EC100B1E
:101A40005EE79DED240B51EC100B02F0D0FEBAF1D5
:101A5000000FCDE90E0142D19FED710B46B3A6F107
:101A6000E040B0F17F600CD05E4538D1002D00DA47
:101A7000A7B3022F0CBF01204FF0FF30FFF72DF866
:101A8000DCE7002D01DD002C0DDA002D01DD002C3E
:101A90001FDB002D16DA002C14DB012F08BF9FED91
:101AA000620B3FF42DAFB0EE4A0AF0EE6A0A27E768
:101AB000022F18BF002D0CD0012F0AD1002DFFF6E8
:101AC0001FAF06E0002DB8BF002C08DA012F3FF44D
:101AD00017AFB0EE480AF0EE680A11E71BE00120EC
:101AE00000EBE57050EA070115D0791EB0EE498A87
:101AF000F0EE698A084308BF9FED4D8B4E480025E4
:101B0000804570DD4D494E48884514DDB0420DDBFF
:101B1000002C19DB2FE0012000F05EFD16B0BDECBB
:101B20000E8B04B0BDE8F04D00F016BDB34502DCED
:101B3000002C09DC1FE0864202DA002C1BDA03E0ED
:101B40005E452BDD002C16DD022000F045FD00F087
:101B500013FD8DED020B53EC1A2B51EC180BFEF715
:101B600053FDCDE900010399019861F31E00039034
:101B70009DED020BC4E6022000F02EFD00F00CFDEE
:101B800010EE901A18EE900A8DED020B8DED008B81
:101B900061F31E0003909DED020BB1E69DED0E0B6F
:101BA00053EC192B51EC100BFEF70BFF9FED260B9E
:101BB000CDE9080153EC102B9DED080B51EC100BF7
:101BC000FEF722FD9FED221B53EC112BFEF7FCFECE
:101BD0009DED081B53EC112BFEF716FD9FED1E1B10
:101BE00053EC112B3CE08CE0FFFF1F00FFFF0F00C8
:101BF000000000000000F03F0000F03F0000F07F18
:101C00000000404301FCFFFF000000000000F07FE7
:101C10000000000000000000AE9F00000000000077
:101C20000000000000000080000000000000F0FF45
:101C3000000000000000F0BF0000E0410000F043A1
:101C4000FFFFEF3F00000000000000000000D03F59
:101C5000555555555555D53F000000000000E03F53
:101C6000FEF7B2FE9DED080B41EC1A0B53EC102B66
:101C700051EC100BFEF7C8FC53EC1A2BFEF7C4FC1A
:101C800041EC1A0B9FEDFE0B53EC102B9DED080B56
:101C900051EC100BFEF7B8FC41EC1B0B9FEDFA0B5F
:101CA00051EC1A0B53EC102BFEF7AEFC41EC1A0B67
:101CB0009FEDF70B53EC102B9DED080B51EC100B27
:101CC000FEF7A2FC53EC1A2BFEF77BFE41EC1A0B3D
:101CD00051EC1B0B53EC1A2BFEF7D2FD0690CDE90D
:101CE00006519DED060B53EC1B2B51EC100BFEF730
:101CF00068FE53EC1A2BFEF767FE41EC100B00F068
:101D0000A1B90020B6F5801F0EDA9FEDE30B53EC6E
:101D1000102B9DED0E0B51EC100BFEF775FCCDE971
:101D20000E016FF034000E4600EB2650A0F2FF3794
:101D3000C6F31300DA4940F07F6646F04056884209
:101D4000D8BF002408DDD7498142C8BF012403DC85
:101D50000024A6F580167F1CD348784400EBC4000D
:101D60000F9690ED00CB9DED0E0B53EC1C2B51EC20
:101D7000100BFEF726FE9DED0E0B41EC1B0B53ECFA
:101D80001C2B51EC100BFEF77BFD41EC100B51ECC2
:101D9000190B53EC102BFEF71AFE41EC1D0B51EC06
:101DA0001B0B53EC1D2BFEF72FFC41EC1A0BBF480D
:101DB0008DED10AB7844109590ED000B4FF0005076
:101DC00040EA660000EB84408DED080B00F5002032
:101DD00009909DED080B53EC1C2B51EC100BFEF7FA
:101DE000F0FD9DED0E1B53EC112BFEF7EDFD41ECCC
:101DF000100B53EC102B9DED100B51EC100BFEF75C
:101E000003FC9DED080B41EC1C0B53EC102B9DEDDE
:101E1000100B51EC100BFEF7F7FB53EC1B2BFEF7EE
:101E2000D3FD53EC1C2BFEF7CCFD53EC1D2BFEF722
:101E3000EBFB41EC1C0B53EC1A2B51EC1A0BFEF78D
:101E4000E3FB41EC1B0B9A480621B0EE4B0AF0EE87
:101E50006B0A784400F0E0FAB0EE401AF0EE601A37
:101E6000B0EE41DAF0EE61DA53EC1B2B51EC1B0BB8
:101E7000FEF7CAFB53EC1D2BFEF7C6FB9DED100BC6
:101E800041EC1B0B53EC1A2B51EC100BFEF7F8FC3A
:101E900053EC1C2BFEF7B8FB53EC1B2BFEF7F0FCAE
:101EA0009DED100B41EC1B0B53EC102B51EC100B68
:101EB000FEF7AAFB41EC1D0B9FED7FEB53EC1E2BB5
:101EC000FEF7DEFC53EC1B2BFEF7DAFC0890CDE9A5
:101ED00008519DED080B53EC1E2B51EC100BFEF737
:101EE00070FD53EC1D2BFEF76CFD53EC1B2BFEF726
:101EF0006BFD9DED080B41EC1D0B53EC102B9DED84
:101F0000100B51EC100BFEF77FFB41EC1B0B53EC5D
:101F10001A2B51EC1D0BFEF777FB9DED080B41ECE6
:101F20001A0B53EC102B51EC1C0BFEF76DFB53EC12
:101F30001A2BFEF7A5FC41EC1A0B51EC1B0B53ECD2
:101F40001A2BFEF79DFC0C90CDE90C519DED0C0B6E
:101F500053EC1B2B51EC100BFEF733FD53EC1A2BFB
:101F6000FEF732FD41EC1B0B9FED550B53EC102B94
:101F70009DED0C0B51EC100BFEF746FB41EC1A0BE0
:101F80009FED510B51EC1B0B53EC102BFEF73CFB60
:101F900041EC1B0B9FED4E0B53EC102B9DED0C0BEE
:101FA00051EC100BFEF730FB53EC1B2BFEF768FCDB
:101FB00041EC100B4848784400EBC40090ED001B46
:101FC00051EC100B53EC112BFEF75AFC41EC1B0BA0
:101FD0003846FEF782FDCDE9080153EC1B2B51EC8E
:101FE0001A0BFEF74DFC41EC100B3C48784400EB1B
:101FF000C40090ED00CB51EC100B53EC1C2BFEF702
:102000003FFC9DED081B53EC112BFEF739FC0690AD
:10201000CDE906519DED080B53EC102B9DED060B01
:1020200051EC100BFEF7CDFC53EC1C2BFEF7C9FC5A
:1020300053EC1A2BFEF7C5FC53EC1B2BFEF7C4FC2C
:1020400041EC100B9DED261B53EC102B8DED001B6E
:1020500000959DED260B51EC100BFEF7D5FA9DED8A
:10206000000B41EC1A0B53EC102B9DED260B51ECA1
:10207000100BFEF7A6FC9DED061B53EC112B2FE079
:10208000000000604715F73FFE822B654715F73FBC
:1020900044DF5DF80BAE543E0000000000004043FA
:1020A0008E9803007AB60B00A29A0000589B00009D
:1020B000DA99000000000000000000000000084065
:1020C000000000E009C7EE3FFD033ADC09C7EE3F20
:1020D000F5015B14E02F3EBE6698000020980000DA
:1020E000FEF792FA53EC1A2BFEF7CAFB9DED060B96
:1020F00041EC1A0B53EC102B9DED000B51EC100B27
:10210000FEF782FACDE90C019DED0C0B51EC1A0B98
:1021100053EC102BFEF7B4FBCDE902010C46AA49A3
:102120008C422FDB611A084318D19DED0C0B53EC48
:10213000102B9DED020B51EC100BFEF742FC41EC15
:102140001B0B9FEDA30B51EC1A0B53EC102BFEF75E
:1021500097FB53EC1B2BFEF7D1FC2DD2022000F095
:102160003BFA00F009FA10EE901A18EE900A8DED85
:10217000020B8DED008B61F31E0003909DED020BB1
:10218000FFF7BEBB944A24F00041914214D3934917
:10219000214408437FF4EFAC9DED0C0B53EC102B66
:1021A0009DED020B51EC100BFEF70BFC53EC1A2BC0
:1021B000FEF7A4FC7FF6DFAC24F000408849894A92
:1021C000002601EB205182422BDA481C4FF480118B
:1021D00021FA00F02044844AC0F30A517A44A1F263
:1021E000FF3192ED000B814A8DED080BCA4020EAC9
:1021F0000202C0F3130040F48010C1F1140120FA70
:1022000001F60992002CB8BF76429DED080B53EC05
:10221000102B9DED0C0B51EC100BFEF7D2FBCDE912
:102220000C019DED0C0B51EC1A0B53EC102BFEF72F
:1022300027FB9FED6F0B0890CDE9085153EC102B55
:102240009DED080B51EC100BFEF7DEF941EC1B0B7A
:102250009FED690B53EC102B9DED080B51EC100B0F
:10226000FEF7D2F99DED0C0B41EC1C0B53EC102B3F
:102270009DED080B51EC100BFEF7A3FB53EC1A2B52
:10228000FEF7A2FB9FED5E1B53EC112BFEF7BCF992
:1022900053EC1C2BFEF7F4FA41EC1A0B51EC1B0B20
:1022A00053EC1A2BFEF7ECFACDE902019DED020B7F
:1022B00053EC1B2B51EC100BFEF783FB53EC1A2B4A
:1022C000FEF782FB9DED020B41EC1A0B53EC102B39
:1022D00051EC100BFEF798F9CDE908014A489DED45
:1022E000080B0521784400F097F89DED081B51EC90
:1022F000100B53EC112BFEF787F99DED021B53ECED
:10230000112BFEF761FBCDE906019DED020B53ECAD
:102310001A2B51EC100BFEF777F953EC1A2BFEF742
:10232000AFFA9FED3B0B41EC1A0B53EC102B9DEDDC
:10233000060B51EC100BFEF744FB9DED060B41EC38
:102340001B0B53EC102B9DED020B51EC100BFEF709
:102350005BF953EC1B2BFEF73AFB53EC1A2BFEF701
:1023600030FB9DED021B53EC112BFEF72AFB53ECC7
:10237000192BFEF729FBCDE9020101EB06500115EF
:102380000029C8BF039015DC9DED020B324651ECCD
:10239000100BFEF78BFBFFF7FFF9042808BF00F0D6
:1023A000FBF832469DED020B51EC100BFEF77EFB65
:1023B000CDE902019DED020B51EC180B53EC102BF3
:1023C000FEF722F9FFF73ABB000090400000000042
:1023D000FE822B654715973C00CC904000346F3F40
:1023E00001FCFFFF0000E03F30970000FFFF0F00FF
:1023F00000000000432EE63F396CA80C615C20BE53
:10240000EF39FAFE422EE63F78950000000000000A
:10241000000000000000004070B504462DED028B66
:102420004D1E00EBC500B0EE408AF0EE608A90EDE4
:10243000000B35F0060017D053EC182B51EC100BA5
:10244000FEF7E2F841EC100B6D1E04EBC50090EDB9
:10245000001B51EC100B53EC112BFEF711FA41EC61
:10246000100B35F00600E7D1022D36D0042D1CD01C
:10247000062D1CBFBDEC028B70BD53EC182B51EC2C
:10248000100BFEF7C1F894ED0A1B53EC112BFEF76D
:10249000F7F953EC182BFEF7B7F894ED081B53EC43
:1024A000112BFEF7EDF941EC100B53EC182B51EC0E
:1024B000100BFEF7A9F894ED061B53EC112BFEF759
:1024C000DFF953EC182BFEF79FF894ED040B53EC57
:1024D000102BFEF7D5F941EC100B53EC182B51ECF7
:1024E000100BFEF791F894ED021B53EC112BFEF745
:1024F000C7F953EC182BFEF787F894ED001B53EC4B
:10250000112BFEF7BDF9BDEC028B41EC100B70BD39
:102510009FED070B10B553EC102B9FED070B51EC03
:10252000100BFEF754FA41EC100B10BD0000000038
:102530000000000000000000000000000000F03F6C
:1025400010B553EC112B51EC100BFEF799F941EC3F
:10255000100B10BD000000009FED050B10B553ECF3
:10256000102B51EC100BFEF732FA41EC100B10BDA2
:1025700000000000000000009FED050B10B553ECBB
:10258000102B51EC100BFEF73FF841EC100B10BD77
:1025900000000000000000709FED050B10B553EC2B
:1025A000102B51EC100BFEF72FF841EC100B10BD67
:1025B000000000000000001002E008C8121F08C15F
:1025C000002AFAD170477047002001E001C1121FB4
:1025D000002AFBD1704700000149086070470000E5
:1025E000780200202DE9FF4F8DB00F4605460026EA
:1025F00006E025280BD0DDE90F1290476D1C761CF4
:1026000028780028F5D111B03046BDE8F08F0024BD
:10261000A246A1460122E94900E0044315F8013F22
:10262000203B02FA03F00842F7D128782A2810D07C
:102630006FF02F022878A0F13001092914D80AEB95
:102640008A0102EB410144F0020400EB010A6D1C17
:10265000F0E701CF5FEA000A03D544F40054CAF161
:10266000000A44F002046D1C28782E2817D115F8B2
:10267000010F44F004042A280ED06FF02F022878AE
:10268000A0F1300109290AD809EB890102EB4101C7
:1026900000EB01096D1CF2E757F8049B6D1C2878CC
:1026A0006C280FD006DC4C2817D068280DD06A287B
:1026B00014D104E0742810D07A280FD10DE044F42E
:1026C00000140AE044F4801401E044F440146978F2
:1026D000814202D104F580146D1C6D1C28786E288F
:1026E0001ED00CDC632830D004DC00288BD05828A6
:1026F00011D19FE0642867D069280CD164E0732869
:102700002DD004DC6F2872D0702804D194E0752895
:102710006ED078286DD0DDE90F129047761C4BE122
:10272000C4F30250022806D0032809D0042801CFA0
:1027300009D0066040E101CFF117C0E900613BE13B
:1027400001CF068038E1067036E117F8040B8DF8EA
:10275000000000208DF80100EB46012003E057F84F
:1027600004BB4FF0FF3061074FF0000102D40DE0D1
:1027700008F10101884649450FDA8045F8DB1BF86E
:1027800008100029F4D108E008F1010188468142CF
:10279000FADB1BF808100029F6D1DDE90F23AAEBBC
:1027A00008008146214600F031F9304400EB08066C
:1027B00004E0DDE90F121BF8010B9047B8F10108A6
:1027C000F7D221464846F2E00A21C4F302524FF004
:1027D000000B0891022A04D001CFC117032A09D0A7
:1027E0000AE0FF1D27F00707F7E8020108E02CE0E8
:1027F0001EE01FE000B2C117042A01D140B2C11788
:10280000021E71F1000206DA0023D0EB030063EB35
:1028100001012D2202E0220504D52B228DF824206F
:10282000012203E0E20701D02022F7E7904653E0BF
:102830000A210BE0102109E010214FF0000B44F0B9
:1028400004044FF00809089103E008214FF0000B41
:102850000891C4F30252022A04D001CF0021032AB6
:1028600006D006E0FF1D27F00707F7E8020103E0A6
:1028700080B2042A00D1C0B24FF0000822072BD545
:102880002A78702A07D0DDF820C08CF0100C5CEAA2
:102890000B0C05D00EE040228DF82420012208E028
:1028A00050EA010306D030238DF824308DF825201E
:1028B00002229046089B83F0080353EA0B030BD1D6
:1028C00050EA010201D1620706D530228DF824209A
:1028D0004FF00108A9F101092A78582A04D038A23A
:1028E0000B9208AA0A920BE03AA2F9E75B46089A13
:1028F000FDF728FF0B9B9B5C0A9A521E0A921370ED
:1029000050EA0102F2D10A98ADEB000000F1200B71
:10291000600702D524F4803401E04FF00109D94565
:1029200002DDA9EB0B0000E0002000EB0B014144AD
:102930000890AAEB010AE00306D4DDE90F23214643
:10294000504600F063F806444FF0000908E009A97A
:1029500011F80900DDE90F12904709F10109761C11
:10296000C145F4DBE0030CD5DDE90F2321465046D9
:1029700000F04CF8064404E0DDE90F1230209047E7
:10298000761C0899481E08900029F5DC08E00A9892
:102990000A990078491C0A91DDE90F129047761CCC
:1029A000BBF10001ABF1010BF1DC21465046DDE942
:1029B0000F2300F019F806446D1C21E609280100D8
:1029C00030313233343536373839616263646566A5
:1029D0000000000030313233343536373839414267
:1029E00043444546000000002DE9F041044600251F
:1029F0001E461746880404D405E039462020B04717
:102A00006D1C641EF9D52846BDE8F0812DE9F04122
:102A1000044600251E469046C80301D5302700E035
:102A20002027880404D505E041463846B0476D1C90
:102A3000641EF9D52846BDE8F0814A68002A06D010
:102A40000A68531C0B6010704868401E486070474D
:102A5000800701D00020704701207047C3688B4277
:102A600006D811440069491E814201D801207047EF
:102A70000020704710B572B604F080F803F0BCFE79
:102A80000028FBD111481249401AC408012000EB6C
:102A9000044010A103F0C8FF11480068C00700D02F
:102AA00000BE022000EB04400EA103F0BDFFBFF307
:102AB0004F8F0B48E43801680E4A01F4E06111437E
:102AC0000160BFF34F8F00BFFDE7000034C200007C
:102AD000C4C10000466174616C206572726F72003F
:102AE000F0ED00E053797374656D20726573657461
:102AF000000000000400FA050EB500210091CDE9A8
:102B000001106A4644F20100FFF7B4FF0EBD002039
:102B10007047000070B505460548046905E0294680
:102B2000204601F08DFB20680468002CF7D170BDB1
:102B30005000002070B5094804690CE0267A002591
:102B400005E02946204600F0C5FC6D1CEDB2B542FB
:102B5000F7D320680468002CF0D170BD500000202D
:102B600070B50A4804690DE0267A002506E00022C7
:102B70002946204600F0ECFC6D1CEDB2B542F6D3C0
:102B800020680468002CEFD170BD000050000020C8
:102B900070B50849054606200C6907E0294620461D
:102BA00001F04EFB062803D121680C68002CF5D1FA
:102BB00070BD0000500000207CB504680B4615462F
:102BC00094F820100C34C90705D0A16929B1206AF6
:102BD000A0B311207CBD08207CBDE16EA9420CD3BE
:102BE0001846A16EFDF7DCFCE06E401BE066A06EAF
:102BF00065672844A06600207CBDC4E9063201F068
:102C000072FB05460F480069CDE90004E26E6AB127
:102C1000A16EA069FDF7C4FCE16EE069401AE061B5
:102C2000A0690844A0610020C4E91B016946284648
:102C300000F06EFA0028DFD192207CBDFFE7C4E9E6
:102C40000832F9E7A8B500003EB50D460168144604
:102C500091F8201011F0010F0BD001F03BFBA10601
:102C600009D000210095CDE90141694600F076FACE
:102C70003EBD08203EBD0149896AF3E7A8B50000C2
:102C8000F8B5044600250FE0002705E0007800F0C5
:102C900053FA08B11120F8BD3946781CC7B2304646
:102CA00000F09CF80028F1D12946681CC5B22046E6
:102CB00000F0A6F80600E7D100250DE0002703E0AC
:102CC0000078214600F03DFA3946781CC7B23046FC
:102CD00000F084F80028F3D12946681CC5B22046CC
:102CE00000F08EF80600E9D1074800E008680168A6
:102CF0000029FBD10460054869468069009060683E
:102D0000026820469047F8BD60000020FCB4000037
:102D10002DE9F04F87B04FF000081D4693468946D5
:102D20000446DDF840A04646CDF80C8000E0761C55
:102D30006068012300224768214603A8B84700289D
:102D4000F5D140468DF800800027B84601903BE061
:102D5000606801236A46D0F804C0214601A8E04714
:102D60006068012305AAD0F804C0214601A8E04705
:102D70009DF8141049451AD1D84514D19DF800008A
:102D8000CAF8000005F8010B6A1C85F8009060681D
:102D90009DF800302146456801A89B1EA8470020E9
:102DA00007B0BDE8F08F08F1010000F0FF0860688F
:102DB0009DF800300022D0F804C0214601A89B1ED7
:102DC000E0479DF800000744B742C1D30520E7E77C
:102DD00001480069704700005000002042788A4294
:102DE00001D8002070478278104408447047427828
:102DF0008A4201D800207047827810440844704706
:102E0000027A8A4201D80020704701EB4101093063
:102E100008447047027A8A4201D80020704701EBCB
:102E2000410109300844704702484078002800D02A
:102E3000012070475000002010B5002000F054F928
:102E4000BDE81040802000F04FB910B5002000F020
:102E50004DF9BDE81040802000F048B970B50D462E
:102E60000146287806240B2813D007DC07284CD20B
:102E7000DFE800F04B0D0F114B2739000C2825D04F
:102E80000D2825D00E282CD085283ED110E0032017
:102E900014E0002439E0244802F096FE0028F8D01F
:102EA000224801210160BFF36F8FBFF34F8FF0E71E
:102EB0001D48001F0078032827D1042007F0BEF822
:102EC00023E0084600F050F804461EE0002005E02C
:102ED0001748006810F0010F03D0022007F0AEF889
:102EE000D7E70120FAE7EB78032B0ED00E48001D40
:102EF00002683AB100210160416818469047040019
:102F000005D000E00E2404F087FE204670BD07F0D7
:102F10008DF828B1A8780028F7D104F052FEF4E724
:102F200004F04CFEF1E70000780000205C700240E5
:102F300038040040024A0146D2E90002104700006E
:102F40000407002070B50C46054604F031FEA84287
:102F500001D0102070BD0348D4E90012C0E902126C
:102F6000002070BD740000207FB5054605208DF857
:102F7000000006240DF1010004F026FE07F056F8CB
:102F80002949002008609DF8010010F01F0006D0BC
:102F900001280FD0022826D0032833D106E0694645
:102FA000284606F0F3F9044606282AD16846FFF7BA
:102FB000EFFD25E09DF8050003A900F0A7FA050044
:102FC00008D06A469DF80C1000F080FA04460628E6
:102FD00002D016E0102415E06A469DF80C10284631
:102FE00006F0E8FA0CE09DF80500010705D06946F7
:102FF00000F058F80446062803D1684606F044FA63
:10300000044624B104F008FE04B0204670BD07F069
:103010000DF830B104F0CCFD0028F5D104F0D1FD5D
:10302000F2E704F0CBFDEFE77C000020FEB5C0889E
:1030300014460E46A04201D2054600E015468442E1
:1030400007D2802004F0F4FBB4FBF0F100FB114048
:1030500068B100200096CDE90150002000F0DCFBB3
:103060006946802000F07AF8040002D006E00120D2
:10307000F0E705498020FFF765FF0446002000F0D7
:10308000CDFB2046FEBD000044B5000008B1402144
:1030900001600148704700005807002004F0C4BADE
:1030A00004F0DEBA10B50C46010600F00F02092A42
:1030B00009D200F00BF8006828B141680A6821467F
:1030C000BDE810401047102010BD0000010600F0C0
:1030D0000F0001D5034901E00249483101EBC0006E
:1030E00070470000BC06002004F0FABA10B5044690
:1030F00000F00F00082805D2204604F013FB2046FC
:1031000004F0C6FB2046BDE8104004F019BB0000E7
:1031100070B50C46054604F053FB18B1054800781D
:10312000022801D0082070BD21462846BDE8704025
:1031300004F048BB5000002010B5FFF7C7FF00683F
:1031400010BD10B50C46FFF7C1FF04601CB16168EB
:103150000968416010BD0021FBE7000070B50C4616
:10316000054604F02DFB18B105480078022801D06F
:10317000082070BD21462846BDE8704004F0B8BB69
:1031800050000020F8B5044600782A4D05280BD1E0
:10319000294800682849C0B2091F096811F0FF0FCB
:1031A00004D1052802D1254C207818B3234F694655
:1031B000243F386A02F0D9FC06001AD0206830603B
:1031C000002000F029FB6888E968401A401CF08064
:1031D000184800210C3002F01BFDB080002000F0E8
:1031E0001DFB6946386A02F0E1FC0146204607F003
:1031F000EFF9F8BDAE6905E03168608889688847F5
:1032000030684668002EF7D1002000F005FBE86822
:1032100008B960886880074801210C3002F0DDFCA5
:10322000002000F0FBFA0121204607F0D1F9E86800
:10323000F8BD0000500000208474024020B500005A
:1032400070B5774C05460178207809297BD008DCD9
:10325000092979D2DFE801F06A84B28D9FBBC2836D
:10326000D700822927D017DC0A296ED00F296DD00C
:1032700080293BD0812972D16A48FFF75BFE6948FB
:10328000FFF748FC0D2007F0B1F9FFF753FCFFF7FB
:10329000D3FD606950B906E0832931D0842937D045
:1032A00085295CD193E06048007A00B1012004F0E8
:1032B000B7FC01207EE0FFF73DFC04F0D7FC0020C6
:1032C00006F0A0FA5748401CFFF724FC5548401C64
:1032D000FFF730FE0E2007F089F9207800F082FA1F
:1032E00000283CD0BDE8704002F02CBD052803D07A
:1032F000062803D0072832D102205BE0082059E0DD
:1033000003282CD104F0D6FC002828D0042051E05A
:10331000032805D104F0CEFC10B1042006F072FAA7
:1033200004F024FD00281AD0062043E0032801D031
:10333000082803D13B48801CFFF782FF002007F0DC
:1033400055F9646909E060E009E060E044E029467D
:10335000204600F075FF20684468002CF7D170BD4E
:10336000FFF7E8FBFFF771FD022006F04BFA0120A2
:1033700005E0082809D0052006F044FA032007F0EC
:1033800035F92846FFF7D6FD44E0022006F03AFA68
:1033900004F0B8FBF2E7032007F028F92148C01C2D
:1033A000FFF7C8FD1F48C01CFFF7B4FB20780628B4
:1033B000A2D10720BDE8704006F024BA032006F031
:1033C00021FA022007F012F92846FFF7A3FB28464E
:1033D000BDE87040FFF7AEBD0F2019E0A878FFF7F9
:1033E00075FED0E900232946104698470028B6D03C
:1033F000A8780107B3D000F00F010829AFD2BDE8CB
:10340000704004F021BA082002E0092000E00A2000
:1034100007F0ECF82846BDE87040FFF77BBB0000E2
:10342000500000200DB500004C070020FFF7AABE99
:10343000F8B5214C00250095204EA0684FF4006798
:1034400028B9211D306A02F0A6FBA060C0B18188B6
:1034500069B1C188B94200D3C580C188ADF80210F6
:10346000C188491CC1808188491E81801FE0FFF707
:10347000E7FE1149306A091D02F082FBA56019E0E0
:10348000E068002817D0002000F0C6F96088B84234
:1034900000D365806088ADF80200401C608006485B
:1034A00001210C3002F0C5FB002000F0B7F968469E
:1034B000FFF7C6FE0120F8BD50000020FCB400005C
:1034C0000148FFF75FBE0000FCB4000011464268EF
:1034D0001368184770B5044640680D46C2680AB1C3
:1034E0002046904720462946FFF78AFC0546467845
:1034F000002408E021462846FFF770FC007804F01D
:10350000EFF8641CE4B2B442F4D370BD2DE9F0418D
:1035100080460E480E46056914E02F7A00240DE01F
:1035200021462846FFF76CFC0178414504D106B1DD
:1035300034702846BDE8F081641CE4B2BC42EFD38D
:1035400028680568002DE8D10020F3E7500000202E
:1035500070B50446406815460E4683681BB1204688
:103560009847062803D1204631460DB1072070BD8B
:10357000FFF746FC05464678002408E02146284629
:10358000FFF72CFC0078FFF7B1FD641CE4B2B442F5
:10359000F4D3002070BD034600205A681269002A47
:1035A00001D01846104770472DE9F8432E4C0546C8
:1035B00008234FF484722B49206A02F0C3FA10B139
:1035C0000320BDE8F883294804F0A2FA0028F8D1C6
:1035D000274908700861486148212648FCF7F9FF2F
:1035E000244848214830FCF7F4FF224878307DB168
:1035F00095E80E00183080E80E00002002F026FC4E
:1036000018B1852801D0FFF777FA1B4D002611E08D
:1036100004F138010EC9EDE7002703E000782946E0
:10362000FFF78FFD3946781CC7B24046FFF7D6FB3F
:103630000028F3D13146701CC6B22846FFF7E0FBE4
:103640005FEA0008E8D1606800906946284600F00B
:10365000F7FD040003D004F081FB2046B1E7002011
:10366000AFE70000B4050020FCB400002D340000DA
:1036700050000020BC06002084B5000030B10128B5
:1036800007D0022808D10548FFF77CBD0348083859
:10369000FAE70248001FF7E7704700002CB500006A
:1036A00010B504F07DFA10B104F070FA08B10820EA
:1036B00010BD044802F0DEFB08B1FFF71DFA002040
:1036C00010BD000030B5000070B50C460F4901EB8D
:1036D000800555F82400017831B10020FFF7D6FCB1
:1036E000002255F8241006E0801C70BD521CD2B296
:1036F000491C20F812300B78002BF7D1022101EB86
:103700004201C9B241F44071018070BD90000020B7
:1037100070B54FF0805086B0D0F8A810D0F8A40053
:1037200089B241F44043009009A20D2101A8FEF79F
:1037300019F801AD0024094E02E0285D3055641CE3
:103740002846FCF751FFA042F7D806B070BD000034
:10375000253034582530385800000000BC070020C0
:10376000074803E0016811F0010F07D00168C1F3B9
:1037700040010029F6D00348FFF704BD7047000060
:103780003804004001B50000034808B58068009087
:103790006846FFF7F7FC08BDFCB4000030B44FF0FA
:1037A000000180B10D4B002213F8124084420ED16B
:1037B00003EB4200407870B1094A02EB800252F8F4
:1037C000212042B100E0002030BCFFF77DBF521C39
:1037D000D2B2062AE8D330BC002070472BB60000D6
:1037E00090000020092808D2DFE800F0070705074D
:1037F00007050505050001207047002070470928CE
:1038000008D2DFE800F007070507070707070500EC
:10381000012070470020704700F002B800F008B89F
:1038200072B602480168491C016070474C000020D4
:1038300003490868401E086000D162B67047000066
:103840004C000020102802D31038C0B2704740F05E
:103850008000704741094A4200EB421010B5044A0B
:103860000124844052F82130234342F8213010BD16
:10387000480100202DE9F0470546861C91460F4679
:103880004FF0010A0020FFF7C7FF1B4C04F21C4851
:1038900060683860D4E90101184F401A3968081A85
:1038A0000EE00121404602F098F902F047F8014687
:1038B000404602F092F9D4E90101401A3968081A29
:1038C000401C8642EDD8B9F1000F03D0052065F306
:1038D000891002E0062065F39F5061683A68114044
:1038E00004EB8101C8606068304460600020FFF72D
:1038F00095FF5046BDE8F087402800205801002081
:1039000070B50D4604460A2902D10D21FFF7F8FFD4
:10391000A0682268411CA1601554D4E901018142CC
:1039200004D32046BDE8704002F0E3BA70BD000049
:10393000044881684068814201D10120704700201D
:1039400070470000402800204360CA699A420DD3A6
:103950008A690260886918448861086F184408679A
:10396000C869C01AC86100D00120704701F128025F
:10397000026000208B67704770B506460878002407
:103980000D460F2838D2DFE800F038083838370CF9
:1039900011373732373838383800304600F075FB89
:1039A0002BE02946304605F0B9FD0FE0304600F027
:1039B0006DFC0146A878002481421ED00106E978FA
:1039C0004FF0030004D531B901210CE0044614E0A6
:1039D00021B1012911D00329F8D10EE0304600F0C1
:1039E00063FB04460021304606F0FAFD05E00321A2
:1039F000304606F0F5FDD0E70624204670BD0000F5
:103A00002DE9F05FDFF858960C7A054689F80040FA
:103A10000068164688464FF0000A40F24632544687
:103A20001F46A0F246314FF0020B904273D056DC95
:103A3000B0F54A7F70D02BDC4FF4467290426CD0C8
:103A400013DC40F21531A0F21533884273D007DC45
:103A5000A8B3A0F5407013386ED0012871D18BE067
:103A6000012B6BD0022B6CD1ACE040F22131A0F2E3
:103A70002132884271D006DCA0F5407019386DD033
:103A800001285ED1C5E0012A69D0062A59D1EBE0B0
:103A900040F23632A0F23631904278D015DC40F256
:103AA0002F31A0F22F32884271D009DCA0F540708E
:103AB00029386DD004286CD0052842D11AE145E0A0
:103AC000052A67D0062A3CD141E1C91F092938D20D
:103AD000DFE801F0F837373737F7F6F5F400132948
:103AE0006FD00DDCA1F1030110292AD2DFE801F02B
:103AF000F6F5F4F3F22929F1F0EFEE2929EDECEBDC
:103B000037290FD00FDC292973D007DC142971D095
:103B1000282916D117E263E1B1E05EE02D296AD0D1
:103B200032290ED13FE2442971D008DC3E296FD002
:103B30003F2906D158E22EE012E002E036E04929A2
:103B4000F2D00020C5F800A0BDE8F09F0820287141
:103B5000002F05D840F213300CE068E04CE071E033
:103B60000EB1287930700B2001242871012F03D861
:103B70004FF4457028602EE00EB12879305598F842
:103B80001400641C2871BC4205D3296023E0BDE009
:103B900082E0A4E0D0E00EB128793055641C85F8AD
:103BA00004B0BC4202D340F21630E3E70EB12879EC
:103BB0003055641C85F804B0BC4203D340F2173082
:103BC000D8E79FE10EB128793055641C85F804B020
:103BD000BC4202D32A600120B6E70EB128793055E5
:103BE00098F81900641C2871BC4205D340F21930C2
:103BF000C0E7B3E192E1C4E10EB128793055641C0D
:103C000085F804A0BC4204D340F21A30B2E7FFE1C9
:103C1000DFE10EB12879305589F801A0641C09E272
:103C200009202871BC4202D340F22130A2E70EB134
:103C3000287930550420641C2871BC4202D340F21C
:103C4000223097E70EB12879305599F80110404697
:103C5000641CFFF7DFF8C9F8040000782871BC4243
:103C600002D340F2273085E70EB128793055641C25
:103C700085F804A0BC4202D34FF44A707AE70EB133
:103C800028793055D9F80400641CBC42407828716A
:103C900002D340F229306DE70EB128793055D9F8BA
:103CA000040098F81410641C0078814239D185F81A
:103CB00004B0BC4213D340F22D305BE785E079E0DD
:103CC0006DE061E04EE011E105E1F9E0EDE0E1E0F9
:103CD000D5E0C9E0BCE0AFE0A3E097E08BE00EB137
:103CE00028793055641C85F804B0BC4202D340F2F8
:103CF0002E303FE70EB12879305598F81900641C32
:103D00002871BC4202D340F22F3033E70EB128793C
:103D10003055641C85F804A0BC4223D340F23D30EA
:103D200028E798F816108142F4D10A202871BC4285
:103D300002D34FF44D701DE70EB128793055641C45
:103D400085F804A0BC4202D340F2353012E70EB130
:103D500028793055641C85F804A0BC42D6D340F2C3
:103D6000363007E70EB128793055D9F8040098F8B5
:103D70001410641C0078814275D105202871BC4262
:103D800002D340F24230F5E60EB1287930552420B6
:103D9000641C2871BC4202D340F24330EAE60EB103
:103DA00028793055641C85F804A0BC4202D34FF436
:103DB0005170DFE60EB1287930551020641C28714F
:103DC000BC4202D340F24530D4E60EB128793055DA
:103DD0000120641C2871BC4202D340F24630C9E67F
:103DE0000EB1287930550520641C2871BC4202D3DD
:103DF00040F24930BEE60EB1287930552420641CCB
:103E00002871BC4202D340F24A30B3E60EB12879A1
:103E100030550120641C2871BC4202D340F24B3063
:103E2000A8E60EB1287930550320641C2871BC42E5
:103E300002D34FF453709DE60EB12879305598F8AF
:103E40001600641C2871BC4202D340F24D3091E64A
:103E50000EB1287930550420641C2871BC4203D36C
:103E60004FF4547086E65DE00EB128793055242079
:103E7000641C2871BC4202D340F251307AE60EB184
:103E800028793055641C85F804B0BC4202D340F256
:103E900052306FE60EB128793055641C85F804B0B5
:103EA000BC4202D340F2533064E60EB1287930555B
:103EB0000520641C2871BC4202D340F2563059E6FA
:103EC0000EB1287930552420641C2871BC4202D3DD
:103ED00040F257304EE60EB1287930550620641C6A
:103EE0002871BC4202D34FF4567043E60EB12879D4
:103EF000305598F81400641C2871BC4202D340F27B
:103F0000593037E60EB12879305598F81600641C00
:103F10002871BC4202D340F25A302BE60EB1287908
:103F20003055641CD9F804104846497889F80210C5
:103F3000514689F803A075E007202871BC4202D3DE
:103F400040F26E3016E60EB1287930550520641C1B
:103F50002871BC4202D340F26F300BE60EB12879D3
:103F6000305599F80310641CD9F80400FEF73FFFA0
:103F7000C9F8080000782871BC4202D340F27330BF
:103F8000F8E50EB128793055D9F8040098F81410E6
:103F9000641C0078814211D103202871BC4202D3F5
:103FA0004FF45E70E6E50EB128793055641C402070
:103FB0002871BC420DD34FF46170DBE598F8161000
:103FC0008142F4D185F804B0BC42ECD340F27D309C
:103FD000D0E50EB128793055641C85F804A0BC42A8
:103FE00002D340F28530C5E50EB128793055D9F8B5
:103FF000040098F81410641C0078814224D1D8F889
:104000002000BC420078287102D340F28A30B1E52A
:104010000EB128793055641C99F803104846491CA4
:1040200089F803108278C9B2914285D34178491C3E
:1040300089F8011099F8011099F800008142FFF405
:10404000EFAD40F29A3095E598F816108142E3D131
:1040500085F804A0BC42DBD340F28F308AE5000033
:104060008400002008B103207047086810F80C1F76
:10407000202901D006207047D0F80210C160C18805
:104080000182017A8174002070470268002102F1E8
:104090000C0011845162D1629167D167416734325B
:1040A00082668167704700002DE9FC4704688146FD
:1040B0000C3400F018F907462F4800268068CDE937
:1040C0000004E069B0B1D4F878804546404500D29C
:1040D00005462A4604F12801A069FCF761FA206F21
:1040E0002844C4E91C60A8EB0500E066601928308C
:1040F000A06627E0206F60672667E666216A304683
:1041000021B1626AA161C4E907202CE0A06130E01E
:1041100004F11802616A82E84300E26E1AB38A422F
:1041200015D3A36E0A461946FCF73AFAE16EE06928
:10413000091AE166A16E0144A16660670021484644
:1041400006F04EFA206A0028E2D1A66111E0A16EC5
:10415000FCF726FAE06E2067E169091AE161A169BE
:104160000818A06105D069463846FEF7D1FFBDE8C2
:10417000FC870020FBE70000A8B500004360CA6987
:104180009A4204D38A6902600B67CB6103E001F1B4
:10419000280202608B67002070470000094869B15F
:1041A00001290DD0022903D0032909D1002106E0FD
:1041B00004490122891C0448FEF7FEBC012141701C
:1041C0007047000007020020B8B7000005494FF013
:1041D000FF32082841F8202002D3084480F85820F4
:1041E0007047000000030020F0B54FF0FF3512B11A
:1041F0000023082601E008230C260C4C05E000BF34
:1042000054F823707F1C04D05B1CB342F8D32846BB
:10421000F0BD26185DB286F8305044F82310002A0D
:10422000F5D1E11881F85800F1E700000003002003
:104230000249084490F93000704700000003002054
:10424000426812681047000070B5084C050009D09C
:1042500010342168002907D0086820604968284682
:104260008847F6E70834F4E770BD0000EC02002050
:10427000054A012120B1012805D19170FFF7E4BF63
:1042800051700020FAE77047EC02002010B50021C1
:10429000FEF7C0FD0021FEF7AAFD007810BD10B5A5
:1042A000044612B11088002211E04FF6FF70FAE7C1
:1042B000030A43EA0023A05C5840C0F303135840AC
:1042C00080EA003080B2C3B280EA4310521C8A42B6
:1042D000EED310BD10B50121FEF79CFD0021FEF7C5
:1042E00086FD007810BD10B50121FEF793FD012178
:1042F000FEF77DFD007810BD2DE9FF410C4620B191
:104300004FF4064004B0BDE8F0812079002748F260
:10431000096538B141F61D5601281BD0022826D068
:10432000681DEFE70220207102970397E068019073
:10433000694601A804F04CFB50B102988188E180E5
:1043400000882081BDF80010029804F0BFFBD9E777
:104350002846D7E70A4B6A460021A01D04F0F0FA70
:1043600038B1074918398F61CF61A842CAD13046A8
:10437000C8E703488188019804F0A8FBF5E700002E
:104380002801002010B50021024801F041FC80F313
:10439000100010BD5C2C00206FEA0061C90F61F3B2
:1043A0001F1070470106044900D5903100F00F003E
:1043B00001EB0010704700006C0300202DE9FC4168
:1043C00080461F4615460E4600240D4801F002FCAB
:1043D00038B11120BDE8FC8106EB043002F022FD6B
:1043E000641CAC42F8D1064801F0EBFBCDE9005764
:1043F000334600220221404600F0DEF90020E9E7C2
:104400004001002002F070BD812002F09BBD82209F
:1044100002F098BD832002F095BD842002F092BD89
:10442000852002F08FBD862002F08CBD872002F02F
:1044300089BD000038B5882505F08EFE2846FFF7B7
:10444000B1FF817B0124032915D00068002811D118
:104450002846FFF7A1FF8440E1430C4802F0FEFD2F
:104460000B480A49806800900C398DF80250496861
:104470006846884738BD2846FFF78EFF8440E143F1
:10448000BDE83840014802F0E9BD000048000020C6
:104490001CB4000038B505F05FFE0020FFF782FF76
:1044A000817B0124032906D0006870B1BDE8384043
:1044B0004C2002F0BFBD0020FFF76EFF8440E143B7
:1044C000BDE83840094802F0C9BD0020FFF764FF8D
:1044D0008440E143054802F0C1FD05480349C06836
:1044E0000C39009049686846884738BD480000206C
:1044F0001CB40000012002F041BD022002F03EBDCC
:10450000032002F03BBD042002F038BD052002F07C
:1045100035BD062002F032BD072002F02FBD00009D
:1045200038B5082405F018FE2046FFF73BFF817BD5
:10453000032915D00068002812D12046FFF72CFF70
:1045400001218140C943074802F088FD064805491A
:10455000406900900C398DF80240496868468847E8
:1045600038BD0000480000201CB4000070B50E48A3
:1045700004680460BFF36F8FBFF34F8F01260CE018
:1045800094FAA4F0B0FA80F52846FFF75BF906FA32
:1045900005F18C43294605F087FF002CF0D1BDE8DA
:1045A000704005F0E7BD00006C74024010B5054C8A
:1045B000A078FFF7F1FE0146A078BDE8104005F0B5
:1045C00073BF00003C000020F8B51A4800681A4D7F
:1045D000C6B2A878FFF7E0FE012404FA00F12889AA
:1045E000EA68C04380B21043014202D0A87805F0C7
:1045F000B5FE06F08000A8700020FFF7CDFE04FA9B
:1046000000F68020FFF7C8FE04FA00F006430A48CF
:10461000F1430C3002F022FD8020FFF7BDFE844004
:10462000A86804430548AC60006A00906968684661
:104630008847F8BD807402403C0000201CB4000094
:1046400038B5002000900F480068ADF802008820BF
:10465000FFF7A2FE012505FA00F40A486038006859
:1046600040B1C10301D4401C04D00820FFF794FEE0
:1046700085402C430449886820438860496868461F
:10468000884738BD207502403C000020704700007C
:10469000F8B518480568284602F0BAFCBFF36F8FDA
:1046A000BFF34F8F144E154CE80506D501206070FE
:1046B000706A0090616868468847A8054FF0000757
:1046C00005D56770B06A00906168684688476805DC
:1046D0000ED5607800280BD067700949012008606A
:1046E000582002F0A7FCF06A00906168684688478D
:1046F000F8BD0000007402401CB400003C00002023
:1047000008750240054908B50020487088700448C3
:104710004068009049686846884708BD3C00002012
:104720001CB4000010B503780022072B06D2DFE886
:1047300003F005040610202930000A7010BD012383
:104740000B7003898B818388CB81C06888600A7471
:1047500010BD02220A7002898A818288CA81C268D9
:104760008A60807D062802D00020087410BD0120D8
:10477000FBE703220A70C2888A810289CA81C06865
:10478000886010BD04230B70C0888881CA818A604C
:1047900010BD0520087010BD70B5064D06460024FA
:1047A00055F8241009B130468847641C042CF7D30F
:1047B00070BD0000E80700202DE9F04387B00446F3
:1047C000DDE90E8980681D4616460F4600280BD08D
:1047D00018216846FBF7FDFE02A88DF8007080E8FE
:1047E0006003A1686846884707B0BDE8F08382B0DF
:1047F000CDE9000121F0004001909DED000B02B0D9
:1048000051EC100B70470000034901EB8000A0F54C
:104810000830D0F800087047C801002070B5214961
:10482000214C0546091B40680323C9081C4A03EBB9
:104830000144002824D0FFF7E7FF034628781BA196
:1048400052F82020204602F0FAF8287800281FD0DD
:10485000012801D0032822D1686800281FD12046F2
:104860001AA1AA6802F0E4F8AA8920461EA102F063
:10487000DFF8EA892046BDE8704021A102F0D8B8EF
:10488000287826A152F82020204602F0D1F8DCE753
:104890006868002803D102490120091F087070BD13
:1048A000B001002034C20000C4C10000464C415396
:1048B000483A204576656E743A2025732072656308
:1048C000656976656420282573290000464C4153AC
:1048D000483A205265636F72642049443A0930783F
:1048E0002530347800000000464C4153483A2046B9
:1048F000696C652049443A093078253034780000E5
:10490000464C4153483A205265636F7264206B6590
:10491000793A09307825303478000000464C41530C
:10492000483A204576656E743A2025732072656397
:10493000656976656420284E52465F53554343456A
:1049400053532900F0B587B014216846FBF741FEA8
:104950002C4C207818B16846FFF71EFF50E0201D50
:1049600001F038F9C0BB4FF0102041690004026922
:1049700040694B1C01D100FB02F123480022016178
:10498000A1F5F821C160214901F068FC002821D17E
:1049900020481C238C221E49006801F0D3F803F044
:1049A00085FA051E14D0022812D000270126062DF4
:1049B00013D005A803F046FF90B106700C2D1AD253
:1049C000DFE805F019111911191819181913151321
:1049D00048F20A6007B0F0BD12E026706760BAE7DF
:1049E00048F20760F6E7077105E0032100E00221C5
:1049F000017100E0067105A803F032FF03F08AFFA1
:104A00000020E7E7300100207C020020BCB6000057
:104A1000F807002038B6000038B5040014D0694605
:104A200003F0D6FFB0B1BDF8000000EB80010B48E9
:104A300000EB8100C16851B1A17A41B1C168491E42
:104A4000C1600020A07238BD48F2046038BD48F251
:104A5000056038BD48F2096038BD000084080020B8
:104A60001FB501A9684603F06BFF04B010BD00003C
:104A70002DE9FC410E4605002ED06EB301A903F0CE
:104A8000A7FF78B36C6800220621B4F80680678817
:104A90002046FFF704FCB900ADF8000001276A4684
:104AA00004F10800091DFFF7FAFBADF800004045CE
:104AB00015D1BDF804000D4900EB800001EB80002A
:104AC00001210C3001F089F8346068680C307060A6
:104AD000AF720020BDE8FC8148F20460FAE748F2BA
:104AE0000C60F7E7FFE748F20960F3E7840800206D
:104AF00018B10323002205F0A5BF48F204607047F7
:104B00000223002205F09EBF094910B50A69042A54
:104B10000AD0084A096942F82100054801211030ED
:104B200001F05BF8002010BD48F20B6010BD0000E2
:104B300010010020E80700202DE9F84F0446244822
:104B40000078D8B1F4B112212046FBF742FD7C2059
:104B5000DFF880902080002504F1100804F10E0A8F
:104B600005EB850109EB810630897189084487B21C
:104B7000706803F025F9032807D009E048F20160C6
:104B8000BDE8F88F48F20460FAE72088401E2080D4
:104B90006088F16808446080208971890844208118
:104BA000608938446081C7F58060A18980B2814204
:104BB00000D2A0815346A21D211D2846CDF80080B9
:104BC00003F0A2FF6D1CADB27B2DC9D30020D7E747
:104BD00030010020840800207FB50E4605460122E2
:104BE000002101A800F034F901002E482E4AA0EB64
:104BF00002004FEAD0004FF0030202EB004410D055
:104C00000422294601A800F021FA002847D02046B6
:104C100026A12A6801F00CFF01F0EEFD0028FBD16F
:104C200012E020462BA101F0FFFE00BF01F0E4FDE1
:104C30000028FBD1042000902B460122002101A86E
:104C400000F080F800282AD00222002101A800F0FC
:104C5000FFF880B12822314601A800F0F7F90028BA
:104C60001DD020462749326801F0E2FE01F0C4FD64
:104C70000028FBD112E0204623A101F0D5FE00BFA1
:104C800001F0BAFD0028FBD1282000903346022213
:104C9000002101A800F056F8002800D0012004B03F
:104CA00070BD000034C20000C4C10000464C415336
:104CB000483A204E756D626572206F66207361768A
:104CC00065642073776565707320666F756E642CFC
:104CD00020256400464C4153483A20536176656470
:104CE00020737765657073206E6F7420666F756EC4
:104CF000642C206372656174696E67207265636FEE
:104D000072640000A8C00000464C4153483A20534A
:104D10006176656420737765657020706172616D7E
:104D20006574657273206E6F7420666F756E642C87
:104D3000206372656174696E67207265636F726467
:104D4000000000002DE9FF470D46814600912148F3
:104D500021499846401AC10803200C9F00EB0140EE
:104D60001646134604463A461CA101F070FE00BFE9
:104D700001F042FD0028FBD1FF1CB808CDE90280FC
:104D8000ADF80450ADF8066001A94846FFF7B8FE3B
:104D900028B1A0F50641063910D0FDF7ADFE20463A
:104DA0002B46324619A101F04AFE00BF01F024FD56
:104DB0000028FBD1012004B0BDE8F08720462B4637
:104DC000324619A101F03BFE01F016FD0028FBD18F
:104DD000F1E7000034C20000C4C10000464C41535A
:104DE000483A2057726974696E6720256420627999
:104DF00074657320746F207265636F72642025641C
:104E000020696E2066696C6520256400464C41531C
:104E1000483A205772697465207265636F72642026
:104E20007375636365737300464C4153483A20467B
:104E30006C6173682066756C6C2C20777269746580
:104E4000207265636F7264206661696C0000000007
:104E50002DE9FC41074600200D46009001901648C0
:104E600016491646401AC108032000EB01400446CB
:104E70002B4613A101F0E3FD01F0BEFC0028FBD19D
:104E8000B1B2A8B26B463A46FFF7EAFD00282046C9
:104E900008D015A101F0C8FD01F0AEFC0028FBD13F
:104EA000BDE8FC8116A101F0BFFD00BF01F0A4FC2C
:104EB0000028FBD10120F3E734C20000C4C1000088
:104EC000464C4153483A204C6F6F6B696E672066C1
:104ED0006F72207265636F726420257820696E207E
:104EE00066696C6520257800464C4153483A20524B
:104EF00065636F7264206E6F7420666F756E6400F8
:104F0000464C4153483A205265636F726420666F85
:104F1000756E64002DE9FE43884607462D482E49EC
:104F20001C46401AC108032000EB01401646054606
:104F30002AA1DDF8289001F077FD00BF01F05CFCAC
:104F40000028FBD1042249466846FFF781FF00286C
:104F50003DD00C222146684600F078F8002836D073
:104F6000012249466846FFF773FF00282FD0A0684A
:104F700039468200684600F069F8002827D00222EE
:104F800049466846FFF764FF002820D0A0684146E4
:104F90004200684600F05AF8002818D0032249461B
:104FA0006846FFF755FF002811D0A068314642003F
:104FB000684600F04BF8002809D028460EA101F001
:104FC00033FD00BF01F018FC0028FBD10120BDE833
:104FD000FE83000034C20000C4C10000464C4153AF
:104FE000483A205374617274696E67206765742053
:104FF0007377656570000000464C4153483A205372
:105000007765657020676574207375636365737376
:105010000000000000B585B00A48FFF775FDFFF7F6
:1050200091FC08B1FDF768FD0748017841B1684679
:10503000FFF782FD08B1FDF75FFD05B0012000BD5F
:1050400020BFF2E71D480000AC0100202DE9FC4123
:105050000D4607461B481C491646401AC108032046
:1050600000EB0140044619A101F0DEFC01F0C4FB95
:105070000028FBD169463846FFF7FAFC60B1FFF71C
:10508000C3FB0246204618A101F0D2FC01F0B4FB9C
:105090000028FBD1BDE8FC81324628460199FBF788
:1050A0007FFA3846FFF7B8FC08B10020F2E7204647
:1050B00015A101F0B9FC00BF01F09EFB0028FBD157
:1050C0000120E7E734C20000C4C10000464C415350
:1050D000483A2052656164696E672066726F6D2080
:1050E0007265636F72640000464C4153483A204534
:1050F00072726F72206F70656E696E672066696C80
:10510000653A202573000000464C4153483A20522E
:105110006561642073756363657373002DE9FF47F0
:105120000F46804625482649DDF83090401AC108D0
:10513000032000EB014016461D4604464A4621A1C5
:1051400001F076FC01F058FB0028FBD1A86843462B
:10515000800000900122494601A8FFF7F3FD0028D6
:1051600029D0A8683B46400000900222494601A889
:10517000FFF7E8FD00281ED0A868334640000090E5
:105180000322494601A8FFF7DDFD002813D00C20BB
:1051900000902B460422494601A8FFF7D3FD0028C2
:1051A00009D020460FA101F03FFC00BF01F024FB15
:1051B0000028FBD1012004B0BDE8F08734C2000014
:1051C000C4C10000464C4153483A20537461727484
:1051D000696E672073617665207377656570202539
:1051E00064000000464C4153483A2053776565708F
:1051F00020736176652073756363657373000000C7
:105200001FB50446026811481149401AC00803211D
:1052100001EB00400FA101F00BFC00BF01F0ECFA24
:105220000028FBD10122002101A8FFF711FE002870
:105230000AD00420009023460122002101A800F09A
:1052400021F8002800D0012004B010BD34C20000B5
:10525000C4C10000464C4153483A20557064617403
:10526000696E67206E756D626572206F662073616E
:105270007665642073776565707320746F2025648C
:10528000000000002DE9FE430D46814620482149DB
:105290009846401AC108032000EB01401646044618
:1052A0002B461DA10A9F01F0CAFB00BF01F0A4FA22
:1052B0000028FBD1ADF80050FF1CADF80260B80823
:1052C000CDE9018069464846FFF712FC28B1A0F5F8
:1052D000064106390FD0FDF70FFC20462B4632461B
:1052E00017A101F0ACFB00BF01F086FA0028FBD14A
:1052F0000120BDE8FE8320462B46324617A101F06F
:105300009EFB00BF01F078FA0028FBD1F1E7000016
:1053100034C20000C4C10000464C4153483A2055F5
:1053200070646174696E67207265636F72642025B2
:10533000642061742066696C6520256400000000AB
:10534000464C4153483A2057726974652072656330
:105350006F7264207375636365737300464C4153C9
:10536000483A20466C6173682066756C6C2C207717
:1053700072697465207265636F7264206661696C1E
:10538000000000001FB5044610481149401AC0082B
:10539000032101EB00400FA101F046FB01F02CFAC4
:1053A0000028FBD10222002101A8FFF751FD0028AF
:1053B0000AD02820009023460222002101A8FFF7EE
:1053C00061FF002800D0012004B010BD34C20000ED
:1053D000C4C10000464C4153483A20557064617482
:1053E000696E6720746865207361766564207377E1
:1053F00065657000406803F03BBA000070B510B1FD
:105400004FF4064070BD1D4C002594F8850010B186
:1054100084F8855001E000F0A7F82078082829D208
:10542000DFE800F02804080C10281421BDE87040C3
:1054300000F028B8BDE8704000F084B8BDE87040C6
:1054400000F066B8BDE8704000F042B80620207059
:1054500060880B4900EB800001EB80004068BDE8EC
:10546000704002F003BD072020706560BDE8704009
:1054700002F00ABD48F20E6070BD0000201200204C
:10548000840800201149F0B48A1C00200346A1F6CC
:105490009C150C18A67A4EB1A37200EB800405EBA4
:1054A0008404E66816B9247C012C0AD0401C80B222
:1054B0007B28EED30B704B804B60F0BC41F61D5047
:1054C00070471080F0BC00F03DB8000020120020B2
:1054D0000C48418801EB8102A0F69C1101EB82018E
:1054E000CA6852B105210170074802218180016814
:1054F00000230122054800F015BE0422027049680D
:10550000F6E7000020120020380100207C02002075
:1055100038B50A49084803240B684268898803EBB8
:10552000810153880470DB1C00201B0400909B0B3E
:10553000034800F0DDFE38BD2012002038010020B5
:105540007C020020074910B54888091D03F090FA35
:1055500018B1BDE81040FFF7DBBFBDE81040FFF712
:10556000B7BF00002012002070B5194C012120782F
:1055700008281AD2DFE800F00419191C2529291877
:105580002089144A401C20810020608084F8850016
:1055900000EB800312F8233043B100232518401C90
:1055A00080B2AB727B28F3D3217070BD0123F5E785
:1055B0006068094940888A88C01C1044888002209D
:1055C00004E000F00BF8062000E00720207070BD1A
:1055D0002012002084080020380100200A490948D0
:1055E0004988026801EB8103084901EB83014B689C
:1055F00003604A6082880A81022282800020087447
:10560000704700003801002020120020840800208C
:10561000F0B50D4C0246002004F11C0504F13803DE
:105620004AB154F82060964205D353F8206055F8EB
:105630002070BE4207D153F820608E4203D8401C30
:105640000728EDD30020F0BDDCB6000010B5014600
:105650000020FFF7DDFF024951F8200010BD0000D7
:10566000DCB6000008B501F097FD08B1FDF744FA7B
:105670000948694600680090232001F0CBFD08B17D
:10568000FDF73AFA6946242001F0C4FD08B1FDF7A0
:1056900033FA012008BD0000E8B7000010B5022968
:1056A00003D029B101F012FE04E001F011FE01E087
:1056B00001F0AEFD012010BD428800EB82020C32E9
:1056C0008A4201D9022070478188A1F57F42FF3AC2
:1056D00006D0018821B18068401C01D000207047AD
:1056E00001207047884204D20068401C01D001208C
:1056F000704700207047000001494160002070475A
:10570000B0B600002DE9F0412D4F002520B17D609D
:105710004FF40640BDE8F0810879012258B1294EC6
:1057200001280CD0264C4FF002080834022820D063
:10573000032840D127E00A7102F0A6FB39E00020DF
:1057400000EB800116F82110022908D0401C80B21D
:105750007B28F5D33A707D6041F61D50DAE700EB07
:10576000800006F8205006EB8000406802F07EFBC7
:105770001FE00D71A4F80480002301221248216863
:1057800000F0D0FC15E00D71206802F06FFB0F49AE
:105790002368498801EB810206EB8201D1F804C03D
:1057A000C4F800C04B60A3880B81A4F8048006F8FD
:1057B00022500028AED07D6048F20D60AAE70000BC
:1057C00030010020840800207C02002020120020EC
:1057D00010B500F0F1FA08B1FDF78EF9002000F0E5
:1057E00011FB00BF00F006FB0028FBD0FDF78FF98E
:1057F00008B1FDF781F9FDF78BFF0B48FDF7D4FEEB
:1058000008B1FDF779F908482438FDF739FA08B1ED
:10581000FDF772F9FDF744FF002803D0BDE8104002
:10582000FDF76AB910BD0000DCB700002DE9FC5F90
:105830000E008346DDE90C47C6F10000984692460B
:10584000814600D40846012503E000BF90FBFAF032
:105850006D1C5045FADAA84500D9454624B1002E02
:1058600001DB780700D5641EB80702D5B8F1000F38
:105870000AD0F80708D13CB1A54205D220215846EC
:10588000641EFEF73DF8F6E7002E02DA4E462D21A3
:1058900002E0780703D52B215846FEF731F807F0D0
:1058A000030002280BD1B8F1000F08D13CB1A5428A
:1058B00005D230215846641EFEF722F8F6E7CDE9FE
:1058C0000047434652463146584604F0C3FABDE805
:1058D000FC9F024600201268530713D502F0030014
:1058E000012802D002280CD105E0C2F383100B6816
:1058F000801C184404E00223086803EB9252104411
:10590000086001207047000002480068002800D0AD
:105910000120704740010020800701D0002070471F
:10592000012070470268134602E08A4204D01268E0
:10593000002AFAD10B600160704700002DE9FF4199
:105940000026244800F043F92248001F074600F0D3
:105950003EF9214C2149A06800900D6800E00098B4
:105960006946284004EB80000C30FFF7B2FF0028A6
:10597000F5D101AA009901EA050304EB8303491C50
:10598000DB6842F82030401C00910228F2D30198D5
:1059900000F0030001280BD0022810D10198032148
:1059A00001EB90500099BDF80A6001EB900005E012
:1059B0000198BDF80A60C0F383100844009038468F
:1059C00000F002F908B10098A06004B03046BDE8CC
:1059D000F0810000582C00204028002058010020B1
:1059E0004FF48041002001F09DF808B1FDF784F8E4
:1059F00000F0F4FE03F0CEF8154803F079FA1449EC
:105A00001448FFF7E9F8124803F072FA1048FFF75C
:105A1000B9FC03F02FFB10481049114D401AC00883
:105A2000032101EB00464FF47A784FF47A47304671
:105A30000CA100F0F9FF00BF00F0DEFE0028FBD152
:105A40004446691C38468847641EFAD1EFE70000D7
:105A5000900200200000002034C20000C4C10000F9
:105A6000E0B30000492073686F756C64206E6F743A
:105A700020626520686572652E2046726565525405
:105A80004F5320696E697420686173206661696C88
:105A9000656400002DE9F047C5881E1DB6FBF5F7CB
:105AA0008946B6FBF5F1044605FB176C407916688C
:105AB0006843DDF820A0F718001F874200D9C61AF6
:105AC000166001E02468491E0029FBD1A5EB0C07F4
:105AD0008846B74216D818E004EB0C00001D09EB0D
