:020000040000FA
:10000000B0760020750500007D050000E1030000CA
:100010008105000083050000850500000000000048
:10002000000000000000000000000000DD040000EF
:100030008905000000000000190500008D05000082
:10004000BD1200008F0500006D150000891300002F
:100050008F0500008F0500001D1000008F050000B7
:100060008F0500008F0500008F0500008F05000040
:100070008F0500008F0500008F0500008F05000030
:100080008F050000CD1200008F0500008F050000D5
:100090008F0500008F0500008F0500008F05000010
:1000A0008F0500008F0500008F0500008F05000000
:1000B0008F0500008F050000000000000000000018
:1000C0008F0500008F0500008F0500008F050000E0
:1000D0008F0500008F0500008F05000079150000D6
:1000E0008F0500008F0500008F0500000000000054
:1000F000000000008F050000000000008F050000D8
:1001000000000000000000000000000000000000EF
:1001100000000000000000000000000000000000DF
:1001200000000000000000000000000000000000CF
:1001300000000000000000000000000000000000BF
:1001400000000000000000000000000000000000AF
:10015000000000000000000000000000000000009F
:10016000000000000000000000000000000000008F
:10017000000000000000000000000000000000007F
:10018000000000000000000000000000000000006F
:10019000000000000000000000000000000000005F
:1001A000000000000000000000000000000000004F
:1001B000000000000000000000000000000000003F
:1001C000000000000000000000000000000000002F
:1001D000000000000000000000000000000000001F
:1001E000000000000000000000000000000000000F
:1001F00000000000000000000000000000000000FF
:10020000DFF810D000F08AFC00480047C953000016
:10021000AFF30080B076002030B4044654E8000FFD
:100220000D4644E80053002BF8D1156030BC7047F0
:1002300030B4044654E8000F40EA010544E8005396
:10024000002BF7D1156030BC704730B4044654E839
:10025000000F00EA010544E80053002BF7D11560B8
:1002600030BC704730B4044654E8000F80EA010502
:1002700044E80053002BF7D1156030BC704730B410
:10028000044654E8000F00EB010544E80053002B3E
:10029000F7D1156030BC704730B4044654E8000F05
:1002A000A0EB010544E80053002BF7D1156030BCEA
:1002B000704770B404464FF0000054E8006F0D68BA
:1002C000AE4207BF44E80023012044E800630E600B
:1002D000002B1CBF0020F0E770BC704730B4044610
:1002E00054E8000F88422CBF451A054644E80053E5
:1002F000002BF5D1156030BC7047000030B40446C7
:1003000054E8000F0D4644E80053002BF8D1156067
:1003100030BC704730B4044654E8000F40EA010591
:1003200044E80053002BF7D1156030BC704730B45F
:10033000044654E8000F00EA010544E80053002B8E
:10034000F7D1156030BC704730B4044654E8000F54
:1003500080EA010544E80053002BF7D1156030BC5A
:10036000704730B4044654E8000F00EB010544E840
:100370000053002BF7D1156030BC704730B40446F1
:1003800054E8000FA0EB010544E80053002BF7D11F
:10039000156030BC704770B404464FF0000054E85C
:1003A000006F0D68AE4207BF44E80023012044E817
:1003B00000630E60002B1CBF0020F0E770BC70478C
:1003C00030B4044654E8000F88422CBF451A054655
:1003D00044E80053002BF5D1156030BC7047000095
:1003E000094B1EF0040F1CBFEFF309801847EFF311
:1003F00008800649064A884201D8904202D88D46B4
:100400004FF0000018470000C1100000B076002037
:10041000B056002030B450E8012F93B2C489234471
:100420008489A34228BF1B1B0489A34202BFBFF3D8
:100430002F8F002007E0C3EA020340E80134002CBC
:10044000E9D14FF001000A6030BC704750E8012F3D
:10045000C2EA024240E801210029F7D1704730B4D6
:1004600050E8022F1FFAA2F3C488A34202BFBFF3D1
:100470002F8F00200DE0C48923448489A34228BF24
:100480001B1BC2EA034340E80234002CE8D14FF0C2
:1004900001000A6030BC704750E8022FC2EA2242D5
:1004A00040E802210029F7D17047034653E8022FA4
:1004B000D988B2EB324F4FF0000017BF92B241EA39
:1004C000014142EA014104E05A68B2EB324F08BFF1
:1004D000012043E80212002AE8D17047244B196832
:1004E0000868B0E8F04F80F30988BFF36F8F4FF0D2
:1004F000000080F311887047000000000548006884
:1005000080F3088862B661B6BFF34F8FBFF36F8F79
:1005100000DF000000000000EFF30980BFF36F8FE1
:10052000134B1A681EF0100F08BF20ED108A20E947
:10053000F04F106008B44FF0400080F31188BFF313
:100540004F8FBFF36F8F09F037FD4FF0000080F33E
:10055000118808BC19680868B0E8F04F1EF0100F49
:1005600008BFB0EC108A80F30988BFF36F8F704723
:10057000040200200648804706480047FEE7FEE7E1
:10058000FEE7FEE7FEE7FEE7FEE7FEE7FEE7FEE743
:100590009913000001020000004870470CAF0000F2
:1005A00040EA01039B0703D009E008C9121F08C0F5
:1005B000042AFAD203E011F8013B00F8013B521E75
:1005C000F9D27047D2B201E000F8012B491EFBD2EC
:1005D00070470022F6E710B513460A46044619464E
:1005E000FFF7F0FF204610BD421C10F8011B002948
:1005F000FBD1801A70472DE9FE4F81EA030404F015
:10060000004421F0004100944FF0000B23F0004320
:1006100050EA01045ED052EA03045BD0C3F30A54EB
:10062000C1F30A552C44A4F2F3340194A0FB025404
:10063000C1F3130141F48011C3F3130343F4801396
:1006400001FB024400FB034E840A970A44EA8154EA
:1006500047EA8357A4FB076802958D0A05FB0785C7
:100660004FEA932C04FB0C542705029D4FEA0658D1
:1006700047EA1637B5EB08056EEB070C870E920EAE
:1006800047EA811742EA8312A7FB0201B6EB0B018E
:1006900064EB00042B0D43EA0C335E1844EB1C5052
:1006A000DA465146E7FB0201C5F313044FEA0B3368
:1006B00043EA14534FEA0432019C43EA0603A4F1CF
:1006C0000C040294009CCDE900B400F082F803B061
:1006D000BDE8F08F00200146F9E7C1F30A5210B5DA
:1006E000C1F3130140F2FF3341F480119A4201DA61
:1006F000002010BD40F233439A42A2F2334203DCA1
:10070000524200F047F810BD904010BD00F000428A
:1007100030F000400AD0C10D01F56071C0F3160041
:1007200042EA0151C20840071143704700200146C8
:1007300070472DE9F05F0546002092469B468846AB
:100740000646814640241BE028464146474622464D
:1007500000F020F853465A46C01A914110D3114672
:100760001846224600F0ECF92D1A67EB01084F46B7
:1007700022460120002100F0E3F917EB00094E4169
:10078000201EA4F10104DFDC484631462A464346D8
:10079000BDE8F09F202A04DB203A21FA02F0002174
:1007A000704721FA02F3D040C2F120029140084381
:1007B0001946704710B5141E73F1000408DA401C86
:1007C00041F1000192185B411A4301D120F0010070
:1007D00010BD2DE9F04D92469B4611B1B1FA81F260
:1007E00002E0B0FA80F22032904600F0A9F9044607
:1007F0000F4640EA0A0041EA0B0153465A460843B5
:1008000013D0114653EA010019D0C8F140025046F6
:10081000FFF7C0FF05460E4650465946424600F0D7
:100820008FF9084305D0012004E020463946BDE891
:10083000F08D0020054346EAE0762C4337430A98C2
:100840006305E40AA0EB08000022FD0A44EA4754CD
:100850000A3002D500200146E9E701051019694177
:10086000DDE9084500196941BDE8F04DA2E72DE931
:10087000FE4F804681EA0300C00F0C46009021F035
:10088000004123F00045B8EB0200A94105D24046E3
:10089000214690461C460B46024623F0004010437A
:1008A00047D0270DC7F30A00C3F30A510290401A3C
:1008B000019040286BDAC3F3130040F4801B0098CA
:1008C000924620B10023D2EB030A63EB0B0B019895
:1008D0005946C0F14002504600F032F906460D4636
:1008E00050465946019A00F03AF910EB0800614170
:1008F000002487EA115284EAE7731A4340D0009A31
:1009000062B3019A012A4FEA075215DC001B61EB22
:1009100002014FF0004202EA0752CDE90042001CFA
:1009200041F5801132462B46FFF753FF03B0BDE877
:10093000F08F40462146F9E7001B61EB0201001CE5
:1009400041F5801300185B412018A2F5001747EB12
:10095000030140EAD570B6196D4111E06D084FEA08
:10096000360645EAC0754FEA0752001B61EB0201EB
:10097000001C41F5801149084FEA3000001951412F
:1009800032462B4603B0BDE8F04FFFF713BF009887
:10099000012240000023D0EB020263EBE0730098D9
:1009A00021464FEAE074B8EB000061EB0401E9E78F
:1009B00083F000435BE781F0004158E72DE9F04DFB
:1009C00081EA030404F0004B21F0004514464FF087
:1009D000000A23F0004150EA050220D054EA010247
:1009E0001DD0C5F30A570246C5F31303C1F3130024
:1009F000C1F30A5640F4801543F48013A7EB0608B0
:100A0000101BD64608F2FD3873EB050002D308F13F
:100A1000010801E092185B41B8F1000F03DA0020F1
:100A20000146BDE8F08D00204FF480110646844653
:100A30000EE0171B73EB050705D3121B63EB0503D1
:100A400006434CEA010C49084FEA300092185B411A
:100A500050EA0107EDD152EA030012D082EA040005
:100A600083EA0501084305D0101BAB4106D20122E1
:100A7000002306E000224FF0004302E06FF0010285
:100A800053101AEB06004CEB085110EB0A0041EB37
:100A90000B01BDE8F04DFFF78DBE70B521F00043AE
:100AA00003430CD0C1F30A550024D5EB040564EBD5
:100AB0000403D617AD1AB34102DB0020014670BD16
:100AC000201841EB025170BD0EB5C10F80EAE070F5
:100AD0000844CA07002140F233438DE80E000A465D
:100AE0000B46FFF776FE03B000BD000030B5041ED4
:100AF00071F1000404DB4FF00044404264EB01015B
:100B0000141E73F1000405DB1C464FF000435242F3
:100B100063EB0403994208BF904230BD064C074D79
:100B200006E0E06840F0010394E8070098471034BD
:100B3000AC42F6D3FFF768FBE8B6000008B7000048
:100B4000202A04DB203A00FA02F10020704791408D
:100B5000C2F1200320FA03F3194390407047202A82
:100B600006DBCB17203A41FA02F043EAE07306E0D5
:100B700041FA02F3D040C2F12002914008431946E5
:100B800070472DE9F04D00231A461B1A8A4103DBFA
:100B900000200146BDE8F08DC1F30A52C1F31301F4
:100BA00041F480154FF0000BD10702D100186D41C0
:100BB000521E0027044640F2FF11384601EB620A3C
:100BC0003E468046024600204FF48011FFF7E2FDCA
:100BD000C2197141BB1846EB0100B4EB030C75EB75
:100BE000000C04D3E41A65EB000517460E462419E1
:100BF00008F101006D4180463428E3DDF91946EB28
:100C00000600091BA84103D24FF0FF32134601E052
:100C1000002213461BEB070046EB0A51BDE8F04DDE
:100C2000FFF7C8BD30B58C1810F8012B12F00F0378
:100C300001D110F8013B120906D110F8012B03E095
:100C400010F8015B01F8015B5B1EF9D101E001F8CE
:100C5000013B521EFBD1A142E6D3002030BD000073
:100C600038B505460AA00C46006800908DF80110C2
:100C7000022269460D2008F03FF9002807D02246DD
:100C800029460D2008F01AF9002800D0012038BDAF
:100C9000A100000030B589B01E2902D9002009B09A
:100CA00030BDA0228DF800208DF8011000226B4687
:100CB00003E0845C9D18521CAC708A42F9DB891CED
:100CC000CAB219460D2008F017F9E8E770B50546D5
:100CD0000C46104600F096F8002806D0214628461B
:100CE000FFF7BEFF002800D0012070BD10B50446FC
:100CF00094220221FFF7EAFF002807D09622022162
:100D0000A01CFFF7E3FF002800D0012010BD8F22B8
:100D10000121FFF7DBBF10B542EA810141EA001073
:100D2000029CC0B2210141EAC301CCB2802100F093
:100D300059F9002805D02046BDE81040812100F077
:100D400051B910BD08B5B0F5007F01D3002008BD32
:100D5000C0F300220A438DF800208DF801008A229A
:100D60000221684600F049F90028F0D0012008BDB2
:100D700030B504461E480D462DED028B81B08442ED
:100D800004D9002001B0BDEC028B30BD9FED191BD2
:100D90009FED1A0B00F0DCFCB0EE408AA80800EED4
:100DA000100AF0EE608AF8EE400A00EE104AB8EE43
:100DB000401A81EE200A10EE100AFFF7A7FC53EC50
:100DC000182BFFF718FCFFF788FCC0F303418DF8E0
:100DD0000010010A8DF801108DF802008522032110
:100DE000684600F00AF90028CCD00120CAE70000CC
:100DF000A08601000000000000003B400000000051
:100E00000000004008B505A10222096800918DF894
:100E1000010069460D2008F06FF808BDB000000021
:100E200030B50D4604461F49A0F57A702DED028BB2
:100E300081B0884204D3002001B0BDEC028B30BDEC
:100E40009FED191B9FED1A0B00F082FCB0EE408A5B
:100E5000A80800EE100AF0EE608AF8EE400A00EEF4
:100E6000104AB8EE401A81EE200A10EE100AFFF781
:100E70004DFC53EC182BFFF7BEFBFFF72EFCC0F325
:100E800003418DF80010010A8DF801108DF8020061
:100E900082220321684600F0B0F80028CCD001205F
:100EA000CAE70000B98201000000000000003B40DA
:100EB000000000000000004008B5B0F5007F01D33D
:100EC000002008BDC0F300218DF800108DF801004E
:100ED00088220221684600F090F80028F1D0012015
:100EE00008BD2DE9FE430446012000901E4617462A
:100EF0008846A37B227D617B0B20FFF70CFF002837
:100F00006ED021692068FFF78BFF002868D0216927
:100F10006068FFF72DFF002862D02089FFF7CCFF23
:100F200000285DD0217B6089FFF70CFF002857D097
:100F300000250095A37B227D617B0120FFF7EBFE5E
:100F400000284DD0642004F097FB0095A37B227D00
:100F5000617B0220FFF7DFFE002841D0E582206898
:100F600029E00A2004F088FB01A8FFF7D0FE9DF8D5
:100F70000410890701D40028F3D102A8FFF7B6FEB8
:100F8000E28AA16948F82210E18ABDF8080027F832
:100F90001100E18ABDF80A0026F811000095A37B34
:100FA000227D617B0320FFF7B6FEE08A401CE082D1
:100FB0006168A0690844A06101A8FFF7A8FE9DF838
:100FC0000410490701D40028CBD10095A37B227DD2
:100FD000617B0A20FFF79FFEE5822068A061012067
:100FE000BDE8FE8308B502228DF800108DF80100DF
:100FF00069460D2007F080FF08BD70B505460C4618
:101000001046FFF7FFFE002806D021462846FFF7CE
:1010100041FE002800D0012070BD00002DE9FC41F8
:101020000025DFF8948000954FF4807601242F4648
:101030000195304604F0CCFF38B1D8F804032042C3
:1010400003D0304604F0BAFF2543361D64007F1CF0
:10105000B6B2082FEDD34FF4BE74204604F0B8FFAB
:1010600048B1204604F0AAFF45F000456A46022137
:10107000002004F031FF15F0FF0F16D001260024E8
:101080002E420ED008EB8401D1F81005D1F81015CE
:10109000C0F30520094AC1F3014152F8242002B1EE
:1010A00090477600641C082CEAD3002D02DA6846CB
:1010B00006F0F2FBBDE8FC8100600040EC0200207D
:1010C0002DE9FC47814605F0B9F900BF05F010F89D
:1010D0000028FBD12E485FEA090507682D482E49F4
:1010E0004FF00106A0EB01004FEAD00006EB0044F0
:1010F00017D0204629A1AA6905F016F9D5E9020101
:10110000CDE90001D5E9002320462AA105F01CF90C
:10111000E8690090D5E90423204634A105F00BF9D5
:1011200003E020463BA105F0FBF81948001D0068CC
:10113000800703D52046444905F0F2F8DFF80C811A
:10114000002500BF06FA05F0384206D058F82520E1
:101150001AB120463EA105F0E7F86D1C1A2DF1D317
:10116000380606D50A480C30026820463BA105F037
:10117000DBF8380406D506481030026820463FA147
:1011800005F0D2F8484600F087F8BDE8FC8700007B
:1011900028ED00E060B7000018B700004841524455
:1011A000204641554C542061742030782530385801
:1011B00000000000202052303A20203078253038BE
:1011C00058202052313A20203078253038582020BD
:1011D00052323A2020307825303858202052333A85
:1011E000202030782530385800000000202052316F
:1011F000323A2030782530385820204C523A20207E
:1012000030782530385820205053523A20307825F5
:1012100030385800537461636B2076696F6C617469
:10122000696F6E3A20737461636B20706F696E74BE
:101230006572206F75747369646520737461636B84
:1012400020617265612E0000F0AF0000AC0000204C
:1012500043617573653A2025732E00004D656D4D11
:10126000616E616765204661756C742041646472CB
:101270006573733A203078253038580042757320F2
:101280004661756C7420416464726573733A2030F2
:101290007825303858000000BFF34F8F05480168AB
:1012A000054A01F4E06111430160BFF34F8F00BFB5
:1012B000FDE700000CED00E00400FA0510B505F0B4
:1012C00097FCBDE8104005F073BB0000F8B50025A1
:1012D000EFF31184402080F311881248D0F80465A0
:1012E000C0F80051D0F80001009009F001FA301A5E
:1012F00020F07F46012E08D909F0ECF9022804D02D
:101300005FF0000609F0FAF90543761EFAD225B11E
:1013100005494FF08050086040BFE0B280F311886B
:10132000F8BD00000010014004ED00E070B50E466D
:10133000144900EB400001EBC0051446E86A18357B
:1013400020B101280FD0022805D113E0284600F073
:101350004FF9A04201D2002411E02246314628462E
:1013600000F0A0F90BE0284600F042F9A042F4D2C8
:101370000446F2E73146284600F067F90446204665
:1013800070BD0000B42B00200149024807F044BEA4
:10139000A40200200030004070B54FF080520124BC
:1013A000D2E94C100023082906D1CD06C5F80C312E
:1013B000C5F810315E4D2B60082955D15D4D2D6863
:1013C0005D4E35605B4D2D1D2D68361D3560594DC8
:1013D00008352D68361D3560564D0C352D68361D87
:1013E0003560544D10352D68361D3560514D14351E
:1013F0002D68361D35604F4D18352D684E4E203600
:1014000035604C4D1C352D68361D3560494D2035F5
:101410002D68361D3560474D24352D68361D3560E5
:10142000444D28352D68361D3560424D2C352D68CC
:10143000361D35603F4D30352D683F4E40363560A6
:101440003C4D34352D68361D35603A4D38352D68A4
:10145000361D3560374D3C352D68361D3560354DB0
:1014600040352D68361D3560082904D1050002D1AC
:10147000334E324D3560082904D1050002D1314E7A
:10148000FB253560082908D1050006D192F858627D
:101490002D4A156866F303051560082904D102007A
:1014A00002D12A4D8A012A60082906D128480168FC
:1014B000C90702D06FF0010101602648016841F4BC
:1014C00070010160BFF34F8FBFF36F8F4FF010219A
:1014D000D1F80002002803DBD1F80402002822DA48
:1014E0001D4A14601D480468002CFCD01224C1F869
:1014F00000420568002DFCD0C1F8044201680029B3
:10150000FCD0136001680029FCD0BFF34F8F114855
:101510007C380168124A01F4E06111430160BFF3B5
:101520004F8F00BFFDE710490E48086070BD0000F6
:10153000380500400404001020C500404881030025
:101540008C56004018F50040E40E004040960240E2
:101550000004004088ED00E004E5014000E40140A3
:101560000400FA050090D0036002002001480068E2
:1015700000470000180000202DE9F0411A48D0F87B
:101580000453002601240FE095FAA5F0B0FA80F785
:10159000B80000F5807005F07BF910B104FA07F08F
:1015A000064304FA07F08543002DEDD1C6F3C0577A
:1015B00026F40005DFF834800AE000BF95FAA5F0B4
:1015C000B0FA80F658F82600804704FA06F0854302
:1015D000002DF3D108F0D4F8002F03D0BDE8F0417E
:1015E00002F0B6BFBDE8F0810070024060AA0000C2
:1015F0000269C1688A4203D88068401A104400E03A
:10160000501A401E70470000C11700EBD161074B14
:101610004A1153F8222021F01F01411A012088406D
:10162000024201D0012070470020704700E100E035
:10163000002809DB00F01F020121914040098000D1
:1016400000F1E020C0F8801270472DE9F047C4682F
:101650001746894606464FF000083069A04201D976
:10166000051B02E0B168201A0D1AB0686D1E001B40
:10167000A84200D80546BD4200D33D4670682A46C0
:1016800020444946FEF78CFFB0687F1B2C44A844D9
:10169000A944A04200D10024F460002FDDD14046CF
:1016A000BDE8F0872DE9F04104468846D4E90207F9
:1016B000C51BE168606816460844B54206D9414634
:1016C000FEF76EFFB819E060BDE8F0812A4641469A
:1016D000FEF766FF761B08EB050132466068FEF7F1
:1016E0005FFFE660F0E700000FB47CB50C0009ADC9
:1016F00001D0611E00E00021CDE90001064B6A46E1
:101700002946089800F032FF002C02D0009A0021F0
:1017100011707CBC5DF814FBC329000003B4019870
:101720004100009850EAC12018BF04204A0D18BF9C
:1017300040F0010040F2FF72B2EB515F08BF40F091
:101740000200012808BF052002B070470000000019
:101750002DE9F04D2DED040B2DED0E8B96B0DDE94E
:101760002550279CDDF890A025F0004624F0004885
:10177000BAF1000F14BF0121002101EB4502FC4921
:1017800053184A1093422AD3002814BF0123002380
:1017900003EB44030B44F7498B4220D358EA000182
:1017A0009FEDF59B76D0DFF8D8B35D4503D1BAF154
:1017B000000F05D188E0BAF1000F08BF002100D06A
:1017C000012101EB450111F5001F08D8002814BFC5
:1017D0000121002101EB440111F5001F0BD99DED02
:1017E000261B9DED240B16B0BDEC0E8B04B0BDE89E
:1017F000F04D00F069BE0027002DBCBFE1498845CF
:1018000021DAE1498845A8BF02271CDAC3451ADC62
:10181000DE4901EB2851142908DDC1F1340220FA18
:1018200002F101FA02F282420DD108E058B9C1F189
:10183000140228FA02F101FA02F2424503D101F042
:101840000101C1F1020756EA0A0124D1002C22DA73
:10185000002D18BF022F01D0012F0AD0022000F066
:101860007FFE16B0BDEC0E8B04B0BDE8F04D00F06D
:1018700013BE022000F074FE00F00EFE51EC100BBF
:1018800081F0004141EC100B16B0BDEC0E8B04B0A2
:10189000BDE8F08D18E09FEDBEAB9FEDBF8B00283B
:1018A00071D1B848804522D105F1804010F58010F3
:1018B00008BFBAF1000F07D0B3450ADC002CA8BF5F
:1018C0009DED260BE0DA0DE0B0EE490AF0EE690A74
:1018D000DAE7002C06DA9DED260B51EC100B81F0B7
:1018E00000416FE0AE48784490ED000BCCE7D8455E
:1018F0004DD1002C48DA2EB186423AD1BAF1000F10
:1019000042D126E0BAF1000F13D0022000F028FEE9
:1019100000F0F6FD8DED020B9DED240B8DED000B1F
:1019200010EE900A039961F31E0003909DED020BE7
:10193000AAE78DED02AB9DED240B1AEE901A10EE86
:10194000900A8DED000B61F31E0003909DED020BDC
:101950009AE78DED028B9DED240B18EE901A10EE98
:10196000900A8DED000B61F31E0003909DED020BBC
:101970008AE709DA9DED240B51EC190B53EC102B7F
:10198000FFF71CF81EE020E09DED240B7CE786426B
:101990001BDAB4F1804F0DD0A4F10050B0F1FF502C
:1019A00013D1002D11DB9DED240B51EC100B07F032
:1019B000ADF907E09DED240B53EC102B51EC100B0F
:1019C00000F0C2BC41EC100B5EE79DED240B51EC26
:1019D000100B02F0D0FEBAF1000FCDE90E0142D19A
:1019E0009FED710B46B3A6F1E040B0F17F600CD0E3
:1019F0005E4538D1002D00DAA7B3022F0CBF0120BD
:101A00004FF0FF30FFF760F8DCE7002D01DD002C20
:101A10000DDA002D01DD002C1FDB002D16DA002C65
:101A200014DB012F08BF9FED620B3FF42DAFB0EE2A
:101A30004A0AF0EE6A0A27E7022F18BF002D0CD0E1
:101A4000012F0AD1002DFFF61FAF06E0002DB8BF11
:101A5000002C08DA012F3FF417AFB0EE480AF0EE81
:101A6000680A11E71BE0012000EBE57050EA07016E
:101A700015D0791EB0EE498AF0EE698A084308BF96
:101A80009FED4D8B4E480025804570DD4D494E48F9
:101A9000884514DDB0420DDB002C19DB2FE001205E
:101AA00000F05EFD16B0BDEC0E8B04B0BDE8F04D4D
:101AB00000F016BDB34502DC002C09DC1FE08642B5
:101AC00002DA002C1BDA03E05E452BDD002C16DD6C
:101AD000022000F045FD00F013FD8DED020B53ECEC
:101AE0001A2B51EC180BFEF786FDCDE90001039986
:101AF000019861F31E0003909DED020BC4E60220E5
:101B000000F02EFD00F00CFD10EE901A18EE900A79
:101B10008DED020B8DED008B61F31E0003909DEDAA
:101B2000020BB1E69DED0E0B53EC192B51EC100B93
:101B3000FEF73EFF9FED260BCDE9080153EC102B7D
:101B40009DED080B51EC100BFEF755FD9FED221B90
:101B500053EC112BFEF72FFF9DED081B53EC112BBF
:101B6000FEF749FD9FED1E1B53EC112B3CE08CE072
:101B7000FFFF1F00FFFF0F00000000000000F03F0C
:101B80000000F03F0000F07F0000404301FCFFFF39
:101B9000000000000000F07F0000000000000000D6
:101BA00026960000000000000000000000000080F9
:101BB000000000000000F0FF000000000000F0BF87
:101BC0000000E0410000F043FFFFEF3F0000000095
:101BD000000000000000D03F555555555555D53FE4
:101BE000000000000000E03FFEF7E5FE9DED080B61
:101BF00041EC1A0B53EC102B51EC100BFEF7FBFCD5
:101C000053EC1A2BFEF7F7FC41EC1A0B9FEDFE0B81
:101C100053EC102B9DED080B51EC100BFEF7EBFC79
:101C200041EC1B0B9FEDFA0B51EC1A0B53EC102BF4
:101C3000FEF7E1FC41EC1A0B9FEDF70B53EC102B78
:101C40009DED080B51EC100BFEF7D5FC53EC1A2B55
:101C5000FEF7AEFE41EC1A0B51EC1B0B53EC1A2BAA
:101C6000FEF705FE0690CDE906519DED060B53ECFF
:101C70001B2B51EC100BFEF79BFE53EC1A2BFEF7BF
:101C80009AFE41EC100B00F0A1B90020B6F5801FC0
:101C90000EDA9FEDE30B53EC102B9DED0E0B51EC88
:101CA000100BFEF7A8FCCDE90E016FF034000E46D4
:101CB00000EB2650A0F2FF37C6F31300DA4940F0DC
:101CC0007F6646F040568842D8BF002408DDD749D9
:101CD0008142C8BF012403DC0024A6F580167F1CC6
:101CE000D348784400EBC4000F9690ED00CB9DEDF7
:101CF0000E0B53EC1C2B51EC100BFEF759FE9DED17
:101D00000E0B41EC1B0B53EC1C2B51EC100BFEF794
:101D1000AEFD41EC100B51EC190B53EC102BFEF700
:101D20004DFE41EC1D0B51EC1B0B53EC1D2BFEF734
:101D300062FC41EC1A0BBF488DED10AB7844109556
:101D400090ED000B4FF0005040EA660000EB84403D
:101D50008DED080B00F5002009909DED080B53EC6C
:101D60001C2B51EC100BFEF723FE9DED0E1B53ECCC
:101D7000112BFEF720FE41EC100B53EC102B9DEDC8
:101D8000100B51EC100BFEF736FC9DED080B41ECEF
:101D90001C0B53EC102B9DED100B51EC100BFEF7B0
:101DA0002AFC53EC1B2BFEF706FE53EC1C2BFEF714
:101DB000FFFD53EC1D2BFEF71EFC41EC1C0B53ECFE
:101DC0001A2B51EC1A0BFEF716FC41EC1B0B9A4830
:101DD0000621B0EE4B0AF0EE6B0A784400F0E0FA10
:101DE000B0EE401AF0EE601AB0EE41DAF0EE61DAD1
:101DF00053EC1B2B51EC1B0BFEF7FDFB53EC1D2B87
:101E0000FEF7F9FB9DED100B41EC1B0B53EC1A2B6D
:101E100051EC100BFEF72BFD53EC1C2BFEF7EBFBEC
:101E200053EC1B2BFEF723FD9DED100B41EC1B0B20
:101E300053EC102B51EC100BFEF7DDFB41EC1D0BAE
:101E40009FED7FEB53EC1E2BFEF711FD53EC1B2B8C
:101E5000FEF70DFD0890CDE908519DED080B53EC00
:101E60001E2B51EC100BFEF7A3FD53EC1D2BFEF7C0
:101E70009FFD53EC1B2BFEF79EFD9DED080B41ECE7
:101E80001D0B53EC102B9DED100B51EC100BFEF7BE
:101E9000B2FB41EC1B0B53EC1A2B51EC1D0BFEF764
:101EA000AAFB9DED080B41EC1A0B53EC102B51ECE7
:101EB0001C0BFEF7A0FB53EC1A2BFEF7D8FC41ECF1
:101EC0001A0B51EC1B0B53EC1A2BFEF7D0FC0C90A9
:101ED000CDE90C519DED0C0B53EC1B2B51EC100B71
:101EE000FEF766FD53EC1A2BFEF765FD41EC1B0B6C
:101EF0009FED550B53EC102B9DED0C0B51EC100B83
:101F0000FEF779FB41EC1A0B9FED510B51EC1B0BCB
:101F100053EC102BFEF76FFB41EC1B0B9FED4E0BB0
:101F200053EC102B9DED0C0B51EC100BFEF763FBEB
:101F300053EC1B2BFEF79BFC41EC100B48487844FC
:101F400000EBC40090ED001B51EC100B53EC112B77
:101F5000FEF78DFC41EC1B0B3846FEF7B5FDCDE9D5
:101F6000080153EC1B2B51EC1A0BFEF780FC41ECE3
:101F7000100B3C48784400EBC40090ED00CB51ECD2
:101F8000100B53EC1C2BFEF772FC9DED081B53EC61
:101F9000112BFEF76CFC0690CDE906519DED080B68
:101FA00053EC102B9DED060B51EC100BFEF700FDD2
:101FB00053EC1C2BFEF7FCFC53EC1A2BFEF7F8FC41
:101FC00053EC1B2BFEF7F7FC41EC100B9DED261B91
:101FD00053EC102B8DED001B00959DED260B51EC65
:101FE000100BFEF708FB9DED000B41EC1A0B53ECB8
:101FF000102B9DED260B51EC100BFEF7D9FC9DED3F
:10200000061B53EC112B2FE0000000604715F73F33
:10201000FE822B654715F73F44DF5DF80BAE543E5B
:1020200000000000000040438E9803007AB60B00C9
:102030001A910000D09100005290000000000000B2
:102040000000000000000840000000E009C7EE3F6B
:10205000FD033ADC09C7EE3FF5015B14E02F3EBEFD
:10206000DE8E0000988E0000FEF7C5FA53EC1A2BA6
:10207000FEF7FDFB9DED060B41EC1A0B53EC102B0C
:102080009DED000B51EC100BFEF7B5FACDE90C01FC
:102090009DED0C0B51EC1A0B53EC102BFEF7E7FBEC
:1020A000CDE902010C46AA498C422FDB611A084394
:1020B00018D19DED0C0B53EC102B9DED020B51EC48
:1020C000100BFEF775FC41EC1B0B9FEDA30B51ECC5
:1020D0001A0B53EC102BFEF7CAFB53EC1B2BFEF72D
:1020E00005FD2DD2022000F03BFA00F009FA10EEB7
:1020F000901A18EE900A8DED020B8DED008B61F3B6
:102100001E0003909DED020BFFF7BEBB944A24F026
:102110000041914214D39349214408437FF4EFAC2A
:102120009DED0C0B53EC102B9DED020B51EC100BA5
:10213000FEF73EFC53EC1A2BFEF7D8FC7FF6DFAC23
:1021400024F000408849894A002601EB2051824250
:102150002BDA481C4FF4801121FA00F02044844A05
:10216000C0F30A517A44A1F2FF3192ED000B814A8B
:102170008DED080BCA4020EA0202C0F3130040F4C0
:102180008010C1F1140120FA01F60992002CB8BFA9
:1021900076429DED080B53EC102B9DED0C0B51EC92
:1021A000100BFEF705FCCDE90C019DED0C0B51EC7D
:1021B0001A0B53EC102BFEF75AFB9FED6F0B089098
:1021C000CDE9085153EC102B9DED080B51EC100B91
:1021D000FEF711FA41EC1B0B9FED690B53EC102B32
:1021E0009DED080B51EC100BFEF705FA9DED0C0B65
:1021F00041EC1C0B53EC102B9DED080B51EC100B1C
:10220000FEF7D6FB53EC1A2BFEF7D5FB9FED5E1BBA
:1022100053EC112BFEF7EFF953EC1C2BFEF727FBC9
:1022200041EC1A0B51EC1B0B53EC1A2BFEF71FFB66
:10223000CDE902019DED020B53EC1B2B51EC100B71
:10224000FEF7B6FB53EC1A2BFEF7B5FB9DED020B28
:1022500041EC1A0B53EC102B51EC100BFEF7CBF9A1
:10226000CDE908014A489DED080B0521784400F0AE
:1022700097F89DED081B51EC100B53EC112BFEF75A
:10228000BAF99DED021B53EC112BFEF794FBCDE93F
:1022900006019DED020B53EC1A2B51EC100BFEF7CF
:1022A000AAF953EC1A2BFEF7E2FA9FED3B0B41EC37
:1022B0001A0B53EC102B9DED060B51EC100BFEF797
:1022C00077FB9DED060B41EC1B0B53EC102B9DEDAA
:1022D000020B51EC100BFEF78EF953EC1B2BFEF7A3
:1022E0006DFB53EC1A2BFEF763FB9DED021B53ECC9
:1022F000112BFEF75DFB53EC192BFEF75CFBCDE9D0
:10230000020101EB065001150029C8BF039015DC3E
:102310009DED020B324651EC100BFEF7BEFBFFF7B2
:10232000FDF9042808BF00F0FBF832469DED020BD2
:1023300051EC100BFEF7B1FBCDE902019DED020B54
:1023400051EC180B53EC102BFEF755F9FFF73ABB85
:102350000000904000000000FE822B654715973C6E
:1023600000CC904000346F3F01FCFFFF0000E03FD5
:10237000A88D0000FFFF0F0000000000432EE63F85
:10238000396CA80C615C20BEEF39FAFE422EE63FA4
:10239000F08B000000000000000000000000004082
:1023A00070B504462DED028B4D1E00EBC500B0EE5E
:1023B000408AF0EE608A90ED000B35F0060017D0F1
:1023C00053EC182B51EC100BFEF715F941EC100BE8
:1023D0006D1E04EBC50090ED001B51EC100B53EC8F
:1023E000112BFEF744FA41EC100B35F00600E7D153
:1023F000022D36D0042D1CD0062D1CBFBDEC028B47
:1024000070BD53EC182B51EC100BFEF7F4F894ED63
:102410000A1B53EC112BFEF72AFA53EC182BFEF78C
:10242000EAF894ED081B53EC112BFEF720FA41EC6F
:10243000100B53EC182B51EC100BFEF7DCF894ED5D
:10244000061B53EC112BFEF712FA53EC182BFEF778
:10245000D2F894ED040B53EC102BFEF708FA41EC84
:10246000100B53EC182B51EC100BFEF7C4F894ED45
:10247000021B53EC112BFEF7FAF953EC182BFEF765
:10248000BAF894ED001B53EC112BFEF7F0F9BDECFC
:10249000028B41EC100B70BD9FED070B10B553EC98
:1024A000102B9FED070B51EC100BFEF787FA41EC58
:1024B000100B10BD00000000000000000000000034
:1024C000000000000000F03F10B553EC112B51EC60
:1024D000100BFEF7CCF941EC100B10BD0000000012
:1024E0009FED050B10B553EC102B51EC100BFEF7C4
:1024F00065FA41EC100B10BD000000000000000068
:102500009FED050B10B553EC102B51EC100BFEF7A3
:1025100072F841EC100B10BD0000000000000070CC
:102520009FED050B10B553EC102B51EC100BFEF783
:1025300062F841EC100B10BD00000000000000101C
:1025400002E008C8121F08C1002AFAD1704770477C
:10255000002001E001C1121F002AFBD170470000DA
:102560000149086070470000640200202DE9FF4F18
:102570008DB00F460546002606E025280BD0DDE984
:102580000F1290476D1C761C28780028F5D111B0E9
:102590003046BDE8F08F0024A246A1460122E94959
:1025A00000E0044315F8013F203B02FA03F0084223
:1025B000F7D128782A2810D06FF02F022878A0F1C0
:1025C0003001092914D80AEB8A0102EB410144F0D9
:1025D000020400EB010A6D1CF0E701CF5FEA000A7C
:1025E00003D544F40054CAF1000A44F002046D1CFF
:1025F00028782E2817D115F8010F44F004042A2852
:102600000ED06FF02F022878A0F1300109290AD8E6
:1026100009EB890102EB410100EB01096D1CF2E7B6
:1026200057F8049B6D1C28786C280FD006DC4C28CA
:1026300017D068280DD06A2814D104E0742810D06F
:102640007A280FD10DE044F400140AE044F4801419
:1026500001E044F440146978814202D104F5801409
:102660006D1C6D1C28786E281ED00CDC632830D0C1
:1026700004DC00288BD0582811D19FE0642867D053
:1026800069280CD164E073282DD004DC6F2872D047
:10269000702804D194E075286ED078286DD0DDE9DB
:1026A0000F129047761C4BE1C4F30250022806D06B
:1026B000032809D0042801CF09D0066040E101CFEA
:1026C000F117C0E900613BE101CF068038E10670F7
:1026D00036E117F8040B8DF8000000208DF801009A
:1026E000EB46012003E057F804BB4FF0FF306107D1
:1026F0004FF0000102D40DE008F101018846494580
:102700000FDA8045F8DB1BF808100029F4D108E047
:1027100008F1010188468142FADB1BF80810002904
:10272000F6D1DDE90F23AAEB08008146214600F02F
:1027300031F9304400EB080604E0DDE90F121BF824
:10274000010B9047B8F10108F7D221464846F2E064
:102750000A21C4F302524FF0000B0891022A04D060
:1027600001CFC117032A09D00AE0FF1D27F0070790
:10277000F7E8020108E02CE01EE01FE000B2C117FC
:10278000042A01D140B2C117021E71F1000206DA1B
:102790000023D0EB030063EB01012D2202E02205B0
:1027A00004D52B228DF82420012203E0E20701D07A
:1027B0002022F7E7904653E00A210BE0102109E0C0
:1027C00010214FF0000B44F004044FF00809089169
:1027D00003E008214FF0000B0891C4F30252022AD3
:1027E00004D001CF0021032A06D006E0FF1D27F008
:1027F0000707F7E8020103E080B2042A00D1C0B263
:102800004FF0000822072BD52A78702A07D0DDF870
:1028100020C08CF0100C5CEA0B0C05D00EE04022BE
:102820008DF82420012208E050EA010306D030236D
:102830008DF824308DF8252002229046089B83F0E5
:10284000080353EA0B030BD150EA010201D16207DE
:1028500006D530228DF824204FF00108A9F1010996
:102860002A78582A04D038A20B9208AA0A920BE0C0
:102870003AA2F9E75B46089AFDF75BFF0B9B9B5C6E
:102880000A9A521E0A92137050EA0102F2D10A9873
:10289000ADEB000000F1200B600702D524F480347A
:1028A00001E04FF00109D94502DDA9EB0B0000E082
:1028B000002000EB0B0141440890AAEB010AE00361
:1028C00006D4DDE90F232146504600F063F80644A4
:1028D0004FF0000908E009A911F80900DDE90F121D
:1028E000904709F10109761CC145F4DBE0030CD5E2
:1028F000DDE90F232146504600F04CF8064404E081
:10290000DDE90F1230209047761C0899481E089088
:102910000029F5DC08E00A980A990078491C0A9118
:10292000DDE90F129047761CBBF10001ABF1010B02
:10293000F1DC21465046DDE90F2300F019F806448A
:102940006D1C21E609280100303132333435363729
:1029500038396162636465660000000030313233EB
:10296000343536373839414243444546000000008B
:102970002DE9F041044600251E461746880404D47C
:1029800005E039462020B0476D1C641EF9D5284665
:10299000BDE8F0812DE9F041044600251E46904631
:1029A000C80301D5302700E02027880404D505E0BE
:1029B00041463846B0476D1C641EF9D52846BDE82F
:1029C000F0814A68002A06D00A68531C0B60107018
:1029D0004868401E48607047800701D0002070475B
:1029E00001207047C3688B4206D811440069491E14
:1029F000814201D8012070470020704710B572B69F
:102A000003F01CFD03F074FB0028FBD111481249B0
:102A1000401AC408012000EB044010A103F080FC20
:102A200011480068C00700D000BE022000EB04403F
:102A30000EA103F075FCBFF34F8F0B48E43801681B
:102A40000E4A01F4E06111430160BFF34F8F00BFF4
:102A5000FDE7000088B7000018B700004661746108
:102A60006C206572726F7200F0ED00E05379737440
:102A7000656D207265736574000000000400FA053E
:102A80000EB500210091CDE901106A4644F2010023
:102A9000FFF7B4FF0EBD00207047000070B505467B
:102AA0000548046905E02946204601F08DFB2068B1
:102AB0000468002CF7D170BD5400002070B509489F
:102AC00004690CE0267A002505E02946204600F03E
:102AD000C5FC6D1CEDB2B542F7D320680468002C2C
:102AE000F0D170BD5400002070B50A4804690DE0B3
:102AF000267A002506E000222946204600F0ECFC5C
:102B00006D1CEDB2B542F6D320680468002CEFD1FD
:102B100070BD00005400002070B50849054606202D
:102B20000C6907E02946204601F04EFB062803D138
:102B300021680C68002CF5D170BD00005400002005
:102B40007CB504680B46154694F820100C34C90770
:102B500005D0A16929B1206AA0B311207CBD08204D
:102B60007CBDE16EA9420CD31846A16EFDF718FD9D
:102B7000E06E401BE066A06E65672844A0660020FA
:102B80007CBDC4E9063201F072FB05460F480069BE
:102B9000CDE90004E26E6AB1A16EA069FDF700FD07
:102BA000E16EE069401AE061A0690844A06100207C
:102BB000C4E91B016946284600F06EFA0028DFD1FF
:102BC00092207CBDFFE7C4E90832F9E7B8AB00000A
:102BD0003EB50D460168144691F8201011F0010F22
:102BE0000BD001F03BFBA10609D000210095CDE9F7
:102BF0000141694600F076FA3EBD08203EBD01491C
:102C0000896AF3E7B8AB0000F8B5044600250FE089
:102C1000002705E0007800F053FA08B11120F8BD54
:102C20003946781CC7B2304600F09CF80028F1D134
:102C30002946681CC5B2204600F0A6F80600E7D178
:102C400000250DE0002703E00078214600F03DFA62
:102C50003946781CC7B2304600F084F80028F3D11A
:102C60002946681CC5B2204600F08EF80600E9D15E
:102C7000074800E0086801680029FBD104600548A6
:102C80006946806900906068026820469047F8BDF8
:102C9000640000200CAB00002DE9F04F87B04FF02E
:102CA00000081D46934689460446DDF840A0464686
:102CB000CDF80C8000E0761C606801230022476894
:102CC000214603A8B8470028F5D140468DF800807A
:102CD0000027B84601903BE0606801236A46D0F8BF
:102CE00004C0214601A8E0476068012305AAD0F886
:102CF00004C0214601A8E0479DF8141049451AD1A7
:102D0000D84514D19DF80000CAF8000005F8010B61
:102D10006A1C85F8009060689DF80030214645687F
:102D200001A89B1EA847002007B0BDE8F08F08F15E
:102D3000010000F0FF0860689DF800300022D0F824
:102D400004C0214601A89B1EE0479DF800000744EF
:102D5000B742C1D30520E7E701480069704700008A
:102D60005400002042788A4201D8002070478278BF
:102D700010440844704742788A4201D800207047C6
:102D80008278104408447047027A8A4201D80020B1
:102D9000704701EB4101093008447047027A8A42CA
:102DA00001D80020704701EB410109300844704709
:102DB00002484078002800D00120704754000020CD
:102DC00010B5002000F054F9BDE81040802000F05C
:102DD0004FB910B5002000F04DF9BDE8104080203B
:102DE00000F048B970B50D460146287806240B2836
:102DF00013D007DC07284CD2DFE800F04B0D0F1191
:102E00004B2739000C2825D00D2825D00E282CD092
:102E100085283ED110E0032014E0002439E0244846
:102E200002F0A4FB0028F8D0224801210160BFF382
:102E30006F8FBFF34F8FF0E71D48001F0078032806
:102E400027D1042006F000FC23E0084600F050F8EB
:102E500004461EE0002005E01748006810F0010F4E
:102E600003D0022006F0F0FBD7E70120FAE7EB7869
:102E7000032B0ED00E48001D02683AB100210160FC
:102E8000416818469047040005D000E00E2404F085
:102E900013FB204670BD06F0CFFB28B1A8780028B0
:102EA000F7D104F0DEFAF4E704F0D8FAF1E7000015
:102EB0007C0000205C70024038040040024A014659
:102EC000D2E9000210470000F006002070B50C4661
:102ED000054604F0BDFAA84201D0102070BD034899
:102EE000D4E90012C0E90212002070BD7800002071
:102EF0007FB5054605208DF8000006240DF1010080
:102F000004F0B2FA06F098FB2949002008609DF809
:102F1000010010F01F0006D001280FD0022826D093
:102F2000032833D106E06946284605F035FD0446FE
:102F300006282AD16846FFF7EFFD25E09DF8050039
:102F400003A900F0A7FA050008D06A469DF80C1006
:102F500000F080FA0446062802D016E0102415E09E
:102F60006A469DF80C10284605F02AFE0CE09DF8F4
:102F70000500010705D0694600F058F80446062808
:102F800003D1684605F086FD044624B104F094FAA6
:102F900004B0204670BD06F04FFB30B104F058FA83
:102FA0000028F5D104F05DFAF2E704F057FAEFE7F4
:102FB00080000020FEB5C08814460E46A04201D213
:102FC000054600E01546844207D2802004F080F8D0
:102FD000B4FBF0F100FB114068B100200096CDE990
:102FE0000150002000F0DCFB6946802000F07AF8F8
:102FF000040002D006E00120F0E705498020FFF739
:1030000065FF0446002000F0CDFB2046FEBD000019
:1030100054AB000008B14021016001487047000036
:103020004407002003F050BF03F06ABF10B50C4600
:10303000010600F00F02092A09D200F00BF800681F
:1030400028B141680A682146BDE8104010471020A9
:1030500010BD0000010600F00F0001D5034901E09A
:103060000249483101EBC00070470000A80600206B
:1030700003F086BF10B5044600F00F00082805D203
:10308000204603F09FFF204604F052F82046BDE89A
:10309000104003F0A5BF000070B50C46054603F0D4
:1030A000DFFF18B105480078022801D0082070BD64
:1030B00021462846BDE8704003F0D4BF54000020EC
:1030C00010B5FFF7C7FF006810BD10B50C46FFF73D
:1030D000C1FF04601CB161680968416010BD002136
:1030E000FBE7000070B50C46054603F0B9FF18B1C8
:1030F00005480078022801D0082070BD21462846E6
:10310000BDE8704004F044B854000020F8B504460F
:1031100000782A4D05280BD1294800682849C0B2FB
:10312000091F096811F0FF0F04D1052802D1254CB1
:10313000207818B3234F6946243F386A02F0E7F934
:1031400006001AD020683060002000F029FB688853
:10315000E968401A401CF080184800210C3002F049
:1031600029FAB080002000F01DFB6946386A02F0A1
:10317000EFF90146204606F031FDF8BDAE6905E0E5
:10318000316860888968884730684668002EF7D1C2
:10319000002000F005FBE86808B9608868800748EF
:1031A00001210C3002F0EBF9002000F0FBFA0121C4
:1031B000204606F013FDE868F8BD0000540000202A
:1031C0008474024030AB000070B5774C054601783E
:1031D000207809297BD008DC092979D2DFE801F0C1
:1031E0006A84B28D9FBBC283D700822927D017DCA7
:1031F0000A296ED00F296DD080293BD0812972D148
:103200006A48FFF75BFE6948FFF748FC0D2006F0AF
:10321000F3FCFFF753FCFFF7D3FD606950B906E0FC
:10322000832931D0842937D085295CD193E0604847
:10323000007A00B1012004F043F901207EE0FFF79D
:103240003DFC04F063F9002005F0E2FD5748401C06
:10325000FFF724FC5548401CFFF730FE0E2006F017
:10326000CBFC207800F082FA00283CD0BDE870400A
:1032700002F022BA052803D0062803D0072832D14D
:1032800002205BE0082059E003282CD104F062F909
:10329000002828D0042051E0032805D104F05AF971
:1032A00010B1042005F0B4FD04F0B0F900281AD0E4
:1032B000062043E0032801D0082803D13B48801CA6
:1032C000FFF782FF002006F097FC646909E060E0E8
:1032D00009E060E044E02946204600F075FF2068E0
:1032E0004468002CF7D170BDFFF7E8FBFFF771FDD4
:1032F000022005F08DFD012005E0082809D00520F9
:1033000005F086FD032006F077FC2846FFF7D6FD82
:1033100044E0022005F07CFD04F044F8F2E70320CD
:1033200006F06AFC2148C01CFFF7C8FD1F48C01CFE
:10333000FFF7B4FB20780628A2D10720BDE8704033
:1033400005F066BD032005F063FD022006F054FC85
:103350002846FFF7A3FB2846BDE87040FFF7AEBD47
:103360000F2019E0A878FFF775FED0E90023294661
:10337000104698470028B6D0A8780107B3D000F0CF
:103380000F010829AFD2BDE8704003F0ADBE0820A0
:1033900002E0092000E00A2006F02EFC2846BDE8E5
:1033A0007040FFF77BBB0000540000201DAB000005
:1033B00038070020FFF7AABEF8B5214C002500957C
:1033C000204EA0684FF4006728B9211D306A02F032
:1033D000B4F8A060C0B1818869B1C188B94200D396
:1033E000C580C188ADF80210C188491CC1808188A0
:1033F000491E81801FE0FFF7E7FE1149306A091D71
:1034000002F090F8A56019E0E068002817D00020CD
:1034100000F0C6F96088B84200D365806088ADF8D6
:103420000200401C6080064801210C3002F0D3F8F5
:10343000002000F0B7F96846FFF7C6FE0120F8BD8E
:10344000540000200CAB00000148FFF75FBE0000F5
:103450000CAB0000114642681368184770B504466B
:1034600040680D46C2680AB120469047204629466A
:10347000FFF78AFC05464678002408E021462846E6
:10348000FFF770FC007803F07BFD641CE4B2B442EB
:10349000F4D370BD2DE9F04180460E480E46056913
:1034A00014E02F7A00240DE021462846FFF76CFC3B
:1034B0000178414504D106B134702846BDE8F08159
:1034C000641CE4B2BC42EFD328680568002DE8D143
:1034D0000020F3E75400002070B50446406815460C
:1034E0000E4683681BB120469847062803D1204624
:1034F00031460DB1072070BDFFF746FC0546467802
:10350000002408E021462846FFF72CFC0078FFF74E
:10351000B1FD641CE4B2B442F4D3002070BD034694
:1035200000205A681269002A01D0184610477047D7
:103530002DE9F8432E4C054608234FF484722B499D
:10354000206A01F0D1FF10B10320BDE8F8832948BB
:1035500003F02EFF0028F8D1274908700861486160
:1035600048212648FDF735F8244848214830FDF722
:1035700030F8224878307DB195E80E00183080E8A8
:103580000E00002002F01CF918B1852801D0FFF7C9
:1035900077FA1B4D002611E004F138010EC9EDE762
:1035A000002703E000782946FFF78FFD3946781C95
:1035B000C7B24046FFF7D6FB0028F3D13146701C56
:1035C000C6B22846FFF7E0FB5FEA0008E8D1606872
:1035D00000906946284600F0F7FD040003D004F08F
:1035E0000DF82046B1E70020AFE70000A00500205D
:1035F0000CAB0000B533000054000020A8060020EA
:1036000094AB000030B1012807D0022808D105484A
:10361000FFF77CBD03480838FAE70248001FF7E7C8
:10362000704700003CAB000010B503F009FF10B17B
:1036300003F0FCFE08B1082010BD044802F0D4F8E5
:1036400008B1FFF71DFA002010BD000040AB0000DC
:1036500070B50C460F4901EB800555F82400017840
:1036600031B10020FFF7D6FC002255F8241006E007
:10367000801C70BD521CD2B2491C20F812300B784D
:10368000002BF7D1022101EB4201C9B241F4407194
:10369000018070BD9400002070B54FF0805086B05E
:1036A000D0F8A810D0F8A40089B241F440430090AB
:1036B00009A20D2101A8FEF717F801AD0024094E5B
:1036C00002E0285D3055641C2846FCF78DFFA042BF
:1036D000F7D806B070BD0000253034582530385872
:1036E00000000000A8070020074803E0016811F06F
:1036F000010F07D00168C1F340010029F6D003484B
:10370000FFF704BD704700003804004011AB000013
:10371000034808B5806800906846FFF7F7FC08BDCD
:103720000CAB000030B44FF0000180B10D4B002213
:1037300013F8124084420ED103EB4200407870B17E
:10374000094A02EB800252F8212042B100E0002039
:1037500030BCFFF77DBF521CD2B2062AE8D330BC82
:10376000002070473BAC000094000020092808D2DC
:10377000DFE800F00707050707050505050001203C
:10378000704700207047092808D2DFE800F00707DB
:10379000050707070707050001207047002070474D
:1037A00000F002B800F008B872B602480168491C7F
:1037B000016070475000002003490868401E0860FF
:1037C00000D162B67047000050000020102802D3DC
:1037D0001038C0B2704740F08000704741094A423B
:1037E00000EB421010B5044A0124844052F8213005
:1037F000234342F8213010BD4C0100202DE9F04751
:103800000546861C91460F464FF0010A0020FFF73F
:10381000C7FF1B4C04F21C4860683860D4E9010102
:10382000184F401A3968081A0EE00121404601F08D
:10383000A6FE01F077FD0146404601F0A0FED4E966
:103840000101401A3968081A401C8642EDD8B9F1C6
:10385000000F03D0052065F3891002E0062065F310
:103860009F5061683A68114004EB8101C86060684C
:10387000304460600020FFF795FF5046BDE8F087B8
:10388000942700205C01002070B50D4604460A29EB
:1038900002D10D21FFF7F8FFA0682268411CA1604A
:1038A0001554D4E90101814204D32046BDE870409B
:1038B00001F0D9BF70BD00000448816840688142B2
:1038C00001D101207047002070470000942700209C
:1038D0004360CA699A420DD38A69026088691844B4
:1038E0008861086F18440867C869C01AC86100D0A9
:1038F0000120704701F12802026000208B677047A9
:1039000070B50646087800240D460F2838D2DFE847
:1039100000F038083838370C113737323738383834
:103920003800304600F075FB2BE02946304605F0A4
:10393000FBF80FE0304600F06DFC0146A87800244B
:1039400081421ED00106E9784FF0030004D531B959
:1039500001210CE0044614E021B1012911D0032912
:10396000F8D10EE0304600F063FB044600213046FB
:1039700006F03CF905E00321304606F037F9D0E7C0
:103980000624204670BD00002DE9F05FDFF8589650
:103990000C7A054689F800400068164688464FF0C4
:1039A000000A40F2463254461F46A0F246314FF01C
:1039B000020B904273D056DCB0F54A7F70D02BDCFE
:1039C0004FF4467290426CD013DC40F21531A0F2F5
:1039D0001533884273D007DCA8B3A0F540701338C4
:1039E0006ED0012871D18BE0012B6BD0022B6CD1F2
:1039F000ACE040F22131A0F22132884271D006DCE5
:103A0000A0F5407019386DD001285ED1C5E0012ABB
:103A100069D0062A59D1EBE040F23632A0F23631B5
:103A2000904278D015DC40F22F31A0F22F3288423C
:103A300071D009DCA0F5407029386DD004286CD015
:103A4000052842D11AE145E0052A67D0062A3CD173
:103A500041E1C91F092938D2DFE801F0F8373737CB
:103A600037F7F6F5F40013296FD00DDCA1F103014F
:103A700010292AD2DFE801F0F6F5F4F3F22929F152
:103A8000F0EFEE2929EDECEB37290FD00FDC2929D7
:103A900073D007DC142971D0282916D117E263E10D
:103AA000B1E05EE02D296AD032290ED13FE24429EF
:103AB00071D008DC3E296FD03F2906D158E22EE0B4
:103AC00012E002E036E04929F2D00020C5F800A05B
:103AD000BDE8F09F08202871002F05D840F2133070
:103AE0000CE068E04CE071E00EB1287930700B20FA
:103AF00001242871012F03D84FF4457028602EE06F
:103B00000EB12879305598F81400641C2871BC4215
:103B100005D3296023E0BDE082E0A4E0D0E00EB14F
:103B200028793055641C85F804B0BC4202D340F2B9
:103B30001630E3E70EB128793055641C85F804B0DF
:103B4000BC4203D340F21730D8E79FE10EB1287989
:103B50003055641C85F804B0BC4202D32A600120B1
:103B6000B6E70EB12879305598F81900641C287111
:103B7000BC4205D340F21930C0E7B3E192E1C4E1A1
:103B80000EB128793055641C85F804A0BC4204D3DA
:103B900040F21A30B2E7FFE1DFE10EB1287930558B
:103BA00089F801A0641C09E209202871BC4202D3F3
:103BB00040F22130A2E70EB1287930550420641C70
:103BC0002871BC4202D340F2223097E70EB1287927
:103BD000305599F801104046641CFFF7DFF8C9F82A
:103BE000040000782871BC4202D340F2273085E7F8
:103BF0000EB128793055641C85F804A0BC4202D36C
:103C00004FF44A707AE70EB128793055D9F804009C
:103C1000641CBC424078287102D340F229306DE721
:103C20000EB128793055D9F8040098F81410641CA6
:103C30000078814239D185F804B0BC4213D340F2F8
:103C40002D305BE785E079E06DE061E04EE011E169
:103C500005E1F9E0EDE0E1E0D5E0C9E0BCE0AFE08E
:103C6000A3E097E08BE00EB128793055641C85F80D
:103C700004B0BC4202D340F22E303FE70EB12879A7
:103C8000305598F81900641C2871BC4202D340F2E8
:103C90002F3033E70EB128793055641C85F804A025
:103CA000BC4223D340F23D3028E798F816108142F9
:103CB000F4D10A202871BC4202D34FF44D701DE7A5
:103CC0000EB128793055641C85F804A0BC4202D39B
:103CD00040F2353012E70EB128793055641C85F872
:103CE00004A0BC42D6D340F2363007E70EB12879A3
:103CF0003055D9F8040098F81410641C00788142FB
:103D000075D105202871BC4202D340F24230F5E65D
:103D10000EB1287930552420641C2871BC4202D38E
:103D200040F24330EAE60EB128793055641C85F83C
:103D300004A0BC4202D34FF45170DFE60EB12879E3
:103D400030551020641C2871BC4202D340F245302B
:103D5000D4E60EB1287930550120641C2871BC428C
:103D600002D340F24630C9E60EB12879305505201D
:103D7000641C2871BC4202D340F24930BEE60EB149
:103D8000287930552420641C2871BC4202D340F2AB
:103D90004A30B3E60EB1287930550120641C2871F1
:103DA000BC4202D340F24B30A8E60EB12879305520
:103DB0000320641C2871BC4202D34FF453709DE66B
:103DC0000EB12879305598F81600641C2871BC4251
:103DD00002D340F24D3091E60EB1287930550420DF
:103DE000641C2871BC4203D34FF4547086E65DE036
:103DF0000EB1287930552420641C2871BC4202D3AE
:103E000040F251307AE60EB128793055641C85F8BD
:103E100004B0BC4202D340F252306FE60EB12879B2
:103E20003055641C85F804B0BC4202D340F25330D4
:103E300064E60EB1287930550520641C2871BC4217
:103E400002D340F2563059E60EB12879305524207D
:103E5000641C2871BC4202D340F257304EE60EB1CA
:103E6000287930550620641C2871BC4202D34FF4D7
:103E7000567043E60EB12879305598F81400641C4A
:103E80002871BC4202D340F2593037E60EB128798E
:103E9000305598F81600641C2871BC4202D340F2D9
:103EA0005A302BE60EB128793055641CD9F804102D
:103EB0004846497889F80210514689F803A075E010
:103EC00007202871BC4202D340F26E3016E60EB1D4
:103ED000287930550520641C2871BC4202D340F279
:103EE0006F300BE60EB12879305599F80310641C39
:103EF000D9F80400FEF73FFFC9F8080000782871E0
:103F0000BC4202D340F27330F8E50EB12879305547
:103F1000D9F8040098F81410641C0078814211D17B
:103F200003202871BC4202D34FF45E70E6E50EB167
:103F300028793055641C40202871BC420DD34FF4C1
:103F40006170DBE598F816108142F4D185F804B071
:103F5000BC42ECD340F27D30D0E50EB1287930552B
:103F6000641C85F804A0BC4202D340F28530C5E54C
:103F70000EB128793055D9F8040098F81410641C53
:103F80000078814224D1D8F82000BC420078287102
:103F900002D340F28A30B1E50EB128793055641C65
:103FA00099F803104846491C89F803108278C9B271
:103FB000914285D34178491C89F8011099F8011084
:103FC00099F800008142FFF4EFAD40F29A3095E598
:103FD00098F816108142E3D185F804A0BC42DBD3E7
:103FE00040F28F308AE500008800002008B10320ED
:103FF0007047086810F80C1F202901D00620704770
:10400000D0F80210C160C1880182017A8174002059
:1040100070470268002102F10C0011845162D162E4
:104020009167D167416734328266816770470000CB
:104030002DE9FC47046881460C3400F018F9074666
:104040002F4800268068CDE90004E069B0B1D4F8BB
:1040500078804546404500D205462A4604F12801AD
:10406000A069FCF79DFA206F2844C4E91C60A8EB06
:104070000500E06660192830A06627E0206F6067C1
:104080002667E666216A304621B1626AA161C4E909
:1040900007202CE0A06130E004F11802616A82E898
:1040A0004300E26E1AB38A4215D3A36E0A4619463C
:1040B000FCF776FAE16EE069091AE166A16E014447
:1040C000A16660670021484605F090FD206A00283F
:1040D000E2D1A66111E0A16EFCF762FAE06E206702
:1040E000E169091AE161A1690818A06105D0694672
:1040F0003846FEF7D1FFBDE8FC870020FBE7000053
:10410000B8AB00004360CA699A4204D38A6902606E
:104110000B67CB6103E001F1280202608B6700208E
:1041200070470000094869B101290DD0022903D068
:10413000032909D1002106E004490122891C044811
:10414000FEF7FEBC0121417070470000F301002022
:10415000B8AD000005494FF0FF32082841F8202093
:1041600002D3084480F8582070470000EC02002079
:10417000F0B54FF0FF3512B10023082601E0082307
:104180000C260C4C05E000BF54F823707F1C04D0B3
:104190005B1CB342F8D32846F0BD26185DB286F802
:1041A000305044F82310002AF5D1E11881F8580066
:1041B000F1E70000EC0200200249084490F93000C9
:1041C00070470000EC0200204268126810470000AF
:1041D00070B5084C050009D010342168002907D0BB
:1041E00008682060496828468847F6E70834F4E7FD
:1041F00070BD0000D8020020054A012120B101282D
:1042000005D19170FFF7E4BF51700020FAE77047C5
:10421000D802002010B50021FEF7C0FD0021FEF7F6
:10422000AAFD007810BD10B5044612B11088002216
:1042300011E04FF6FF70FAE7030A43EA0023A05C9F
:104240005840C0F30313584080EA003080B2C3B234
:1042500080EA4310521C8A42EED310BD10B50121F2
:10426000FEF79CFD0021FEF786FD007810BD10B51D
:104270000121FEF793FD0121FEF77DFD007810BDC1
:104280002DE9FF410C4620B14FF4064004B0BDE8D3
:10429000F0812079002748F2096538B141F61D56B2
:1042A00001281BD0022826D0681DEFE702202071CC
:1042B00002970397E0680190694601A803F0D8FFD0
:1042C00050B102988188E18000882081BDF80010FB
:1042D000029804F04BF8D9E72846D7E70A4B6A461C
:1042E0000021A01D03F07CFF38B1074918398F6108
:1042F000CF61A842CAD13046C8E7034881880198F7
:1043000004F034F8F5E700002C01002010B500217E
:10431000024801F04FF980F3100010BDB02B0020CF
:104320006FEA0061C90F61F31F107047010604496D
:1043300000D5903100F00F0001EB00107047000035
:10434000580300202DE9FC4180461F4615460E46C5
:1043500000240D4801F010F938B11120BDE8FC81AE
:1043600006EB043002F0BCF9641CAC42F8D10648FC
:1043700001F0F9F8CDE9005733460022022140460A
:1043800000F0DEF90020E9E74401002002F0FCB96A
:10439000812002F027BA822002F024BA832002F0A2
:1043A00021BA842002F01EBA852002F01BBA8620B2
:1043B00002F018BA872002F015BA000038B5882537
:1043C00005F0D0F92846FFF7B1FF817B01240329CE
:1043D00015D00068002811D12846FFF7A1FF8440BE
:1043E000E1430C4802F08AFA0B480A4980680090C1
:1043F0000C398DF8025049686846884738BD284610
:10440000FFF78EFF8440E143BDE83840014802F0E9
:1044100075BA00004C0000202CAA000038B505F049
:10442000A1F90020FFF782FF817B0124032906D038
:10443000006870B1BDE838404C2002F04BBA002053
:10444000FFF76EFF8440E143BDE83840094802F0C1
:1044500055BA0020FFF764FF8440E143054802F0AD
:104460004DFA05480349C0680C3900904968684610
:10447000884738BD4C0000202CAA0000012002F023
:10448000CDB9022002F0CAB9032002F0C7B9042056
:1044900002F0C4B9052002F0C1B9062002F0BEB98D
:1044A000072002F0BBB9000038B5082405F05AF91E
:1044B0002046FFF73BFF817B032915D000680028C9
:1044C00012D12046FFF72CFF01218140C943074844
:1044D00002F014FA06480549406900900C398DF83D
:1044E000024049686846884738BD00004C000020FB
:1044F0002CAA000070B50E4804680460BFF36F8FEB
:10450000BFF34F8F01260CE094FAA4F0B0FA80F5C7
:104510002846FFF75BF906FA05F18C43294605F0BA
:10452000C9FA002CF0D1BDE8704005F029B90000AF
:104530006C74024010B5054CA078FFF7F1FE0146FF
:10454000A078BDE8104005F0B5BA0000400000209A
:10455000F8B51A4800681A4DC6B2A878FFF7E0FE11
:10456000012404FA00F12889EA68C04380B21043AC
:10457000014202D0A87805F0F7F906F08000A87093
:104580000020FFF7CDFE04FA00F68020FFF7C8FEFA
:1045900004FA00F006430A48F1430C3002F0AEF989
:1045A0008020FFF7BDFE8440A86804430548AC6046
:1045B000006A0090696868468847F8BD80740240C8
:1045C000400000202CAA000038B5002000900F48C1
:1045D0000068ADF802008820FFF7A2FE012505FA69
:1045E00000F40A486038006840B1C10301D4401C9F
:1045F00004D00820FFF794FE85402C4304498868C6
:104600002043886049686846884738BD2075024065
:104610004000002070470000F8B51848056828469B
:1046200002F046F9BFF36F8FBFF34F8F144E154C56
:10463000E80506D501206070706A009061686846E0
:104640008847A8054FF0000705D56770B06A00904D
:1046500061686846884768050ED5607800280BD0E9
:104660006770094901200860582002F033F9F06AA8
:104670000090616868468847F8BD000000740240F9
:104680002CAA00004000002008750240054908B52A
:104690000020487088700448406800904968684667
:1046A000884708BD400000202CAA000010B5037800
:1046B0000022072B06D2DFE803F0050406102029AC
:1046C00030000A7010BD01230B7003898B81838831
:1046D000CB81C06888600A7410BD02220A7002890A
:1046E0008A818288CA81C2688A60807D062802D059
:1046F0000020087410BD0120FBE703220A70C28865
:104700008A810289CA81C068886010BD04230B7049
:10471000C0888881CA818A6010BD0520087010BDDC
:1047200070B5064D0646002455F8241009B13046F0
:104730008847641C042CF7D370BD0000D407002008
:104740002DE9F04387B00446DDE90E8980681D46F7
:1047500016460F4600280BD018216846FBF739FF94
:1047600002A88DF8007080E86003A1686846884759
:1047700007B0BDE8F08382B0CDE9000121F0004030
:1047800001909DED000B02B051EC100B7047000042
:104790000178002905D14068002802D10149012093
:1047A00008707047B001002038B504460F48007803
:1047B000B0B1A4F57F40FF380FD0684603F092FCFB
:1047C00088B10521017001210171C480684603F0A0
:1047D00097FC03F0EFFC002038BD48F2036038BDC1
:1047E00048F2016038BD48F2076038BD340100204E
:1047F0000E4808B5007890B1684603F073FC88B1A4
:1048000006210170684603F07BFC0948017811B16C
:10481000012180F8851003F0CDFC002008BD48F28E
:10482000016008BD48F2076008BD000034010020A7
:104830000C120020F0B587B014216846FBF7C9FEC2
:104840002C4C207818B16846FFF76AFF50E0201D15
:1048500000F092FEC0BB4FF01020416900040269D5
:1048600040694B1C01D100FB02F123480022016189
:10487000A1F5F821C160214901F0AAF9002821D150
:1048800020481C238C221E49006800F02DFE02F0F7
:104890005DFF051E14D0022812D000270126062D28
:1048A00013D005A803F01EFC90B106700C2D1AD28F
:1048B000DFE805F019111911191819181913151332
:1048C00048F20A6007B0F0BD12E026706760BAE7F0
:1048D00048F20760F6E7077105E0032100E00221D6
:1048E000017100E0067105A803F00AFC03F062FC08
:1048F0000020E7E73401002068020020CCAC000073
:10490000E407002048AC000038B5040014D0694624
:1049100003F0AEFCB0B1BDF8000000EB80010B4825
:1049200000EB8100C16851B1A17A41B1C168491E53
:10493000C1600020A07238BD48F2046038BD48F262
:10494000056038BD48F2096038BD000070080020DD
:104950001FB501A9684603F043FC04B010BD000078
:104960002DE9FC410E4605002ED06EB301A903F0DF
:104970007FFC78B36C6800220621B4F80680678853
:104980002046FFF750FCB900ADF8000001276A4649
:1049900004F10800091DFFF746FCADF80000404592
:1049A00015D1BDF804000D4900EB800001EB80003B
:1049B00001210C3000F0E3FD346068680C30706059
:1049C000AF720020BDE8FC8148F20460FAE748F2CB
:1049D0000C60F7E7FFE748F20960F3E77008002092
:1049E00018B10323002205F033BB48F2046070477E
:1049F0000223002205F02CBB094910B50A69042ADC
:104A00000AD0084A096942F82100054801211030FE
:104A100000F0B5FD002010BD48F20B6010BD000095
:104A200014010020D40700202DE9F84F0446244843
:104A30000078D8B1F4B112212046FBF7CAFD7C20E2
:104A4000DFF880902080002504F1100804F10E0AA0
:104A500005EB850109EB810630897189084487B22D
:104A6000706802F0FDFD032807D009E048F20160FC
:104A7000BDE8F88F48F20460FAE72088401E2080E5
:104A80006088F16808446080208971890844208129
:104A9000608938446081C7F58060A18980B2814215
:104AA00000D2A0815346A21D211D2846CDF80080CA
:104AB00003F07AFC6D1CADB27B2DC9D30020D7E783
:104AC00034010020700800207FB514460D460646CC
:104AD0000122002101A800F069F828B10422314622
:104AE00001A800F0D7F807E0042000903346012227
:104AF000002101A800F039F800282CD00222002162
:104B000001A800F053F828B12822294601A800F096
:104B1000C1F807E0282000902B460222002101A8BE
:104B200000F023F8002816D00322002101A800F08D
:104B30003DF828B10222214601A800F0ABF807E0B9
:104B40000220009023460322002101A800F00DF866
:104B5000002800D0012004B070BD10B5FFF748FE5A
:104B600008B1002010BD012010BD3EB5069CADF877
:104B70000010E41CADF80220A108CDE9013169461E
:104B8000FFF736FF28B1A0F50641063903D0FDF73F
:104B900077FF01203EBD00203EBD10B580B2FFF77B
:104BA00003FE08B1002010BD012010BD1CB5144645
:104BB000024600200B460090019098B2A1B26B46CD
:104BC000FFF7C6FE08B100201CBD01201CBD2DE969
:104BD000FE431546DDF828800F4606461C46042293
:104BE00041466846FFF7E2FF002834D00C222146F8
:104BF000684600F04FF800282DD001224146684653
:104C0000FFF7D4FF002826D0A0683146820068460E
:104C100000F040F800281ED0022241466846FFF707
:104C2000C5FF002817D0A06839464200684600F04A
:104C300031F800280FD0032241466846FFF7B6FF3F
:104C4000002808D0A06829464200684600F022F8F3
:104C5000002800D00120BDE8FE83000000B585B02B
:104C60000A48FFF7C9FEFFF7E5FD08B1FDF708FFA9
:104C70000748017841B16846FFF7D6FE08B1FDF755
:104C8000FFFE05B0012000BD20BFF2E79147000004
:104C9000B00100207CB50C46154606466946FFF774
:104CA0005FFE40B92A4620460199FBF779FC304661
:104CB000FFF72AFE08B100207CBD01207CBD2DE954
:104CC000FF410E4699681C460A9F89001546034617
:104CD00000910122394601A8FFF747FF002820D0A4
:104CE000A0683346400000900222394601A8FFF731
:104CF0003CFF002815D0A0682B46400000900322FE
:104D0000394601A8FFF731FF00280AD00C20009097
:104D100023460422394601A8FFF727FF002800D0C8
:104D2000012004B0BDE8F0811FB504460322002134
:104D300001A8FFF73BFF00280AD00220009023467D
:104D40000322002101A800F01BF8002800D0012058
:104D500004B010BD1FB504460122002101A8FFF7D1
:104D600025FF00280AD004200090234601220021BC
:104D700001A800F005F8002800D0012004B010BD03
:104D80003EB5069CADF80010E41CADF80220A10869
:104D9000CDE901316946FFF723FE28B1A0F50641B0
:104DA000063903D0FDF76CFE01203EBD00203EBD5C
:104DB0001FB504460222002101A8FFF7F7FE0028D4
:104DC0000AD02820009023460222002101A8FFF7E4
:104DD000D7FF002800D0012004B010BD406803F0C8
:104DE00097B9000070B510B14FF4064070BD1D4C6E
:104DF000002594F8850010B184F8855001E000F09A
:104E0000A7F82078082829D2DFE800F02804080C49
:104E100010281421BDE8704000F028B8BDE87040AB
:104E200000F084B8BDE8704000F066B8BDE870409E
:104E300000F042B80620207060880B4900EB80002B
:104E400001EB80004068BDE8704002F05FBC0720C5
:104E500020706560BDE8704002F066BC48F20E60EC
:104E600070BD00000C120020700800201149F0B441
:104E70008A1C00200346A1F69C150C18A67A4EB198
:104E8000A37200EB800405EB8404E66816B9247C69
:104E9000012C0AD0401C80B27B28EED30B704B80D3
:104EA0004B60F0BC41F61D5070471080F0BC00F024
:104EB0003DB800000C1200200C48418801EB810233
:104EC000A0F69C1101EB8201CA6852B10521017064
:104ED000074802218180016800230122054800F073
:104EE000DBBD042202704968F6E700000C120020C6
:104EF0003C0100206802002038B50A490848032414
:104F00000B684268898803EB810153880470DB1CBD
:104F100000201B0400909B0B034800F0A3FE38BD4B
:104F20000C1200203C01002068020020074910B547
:104F30004888091D03F0ECF918B1BDE81040FFF7EF
:104F4000DBBFBDE81040FFF7B7BF00000C12002028
:104F500070B5194C0121207808281AD2DFE800F03A
:104F60000419191C252929182089144A401C20815C
:104F70000020608084F8850000EB800312F8233065
:104F800043B100232518401C80B2AB727B28F3D3B9
:104F9000217070BD0123F5E76068094940888A885F
:104FA000C01C10448880022004E000F00BF80620AA
:104FB00000E00720207070BD0C1200207008002057
:104FC0003C0100200A4909484988026801EB810335
:104FD000084901EB83014B6803604A6082880A81BB
:104FE0000222828000200874704700003C010020EB
:104FF0000C12002070080020F0B50D4C0246002075
:1050000004F11C0504F138034AB154F820609642BB
:1050100005D353F8206055F82070BE4207D153F8ED
:1050200020608E4203D8401C0728EDD30020F0BD3D
:10503000ECAC000010B501460020FFF7DDFF02498F
:1050400051F8200010BD0000ECAC000008B501F0E4
:10505000F3FC08B1FDF714FD0948694600680090AB
:10506000232001F027FD08B1FDF70AFD6946242041
:1050700001F020FD08B1FDF703FD012008BD00008F
:10508000E8AD000010B5022903D029B101F06EFD92
:1050900004E001F06DFD01E001F00AFD012010BD0A
:1050A000428800EB82020C328A4201D9022070470A
:1050B0008188A1F57F42FF3A06D0018821B180683E
:1050C000401C01D00020704701207047884204D264
:1050D0000068401C01D0012070470020704700008C
:1050E0000149416000207047C0AC00002DE9F0414B
:1050F0002D4F002520B17D604FF40640BDE8F081C2
:105100000879012258B1294E01280CD0264C4FF0C5
:1051100002080834022820D0032840D127E00A7171
:1051200002F002FB39E0002000EB800116F82110AC
:10513000022908D0401C80B27B28F5D33A707D60EC
:1051400041F61D50DAE700EB800006F8205006EB30
:105150008000406802F0DAFA1FE00D71A4F80480C4
:10516000002301221248216800F096FC15E00D7121
:10517000206802F0CBFA0F492368498801EB8102CD
:1051800006EB8201D1F804C0C4F800C04B60A388CC
:105190000B81A4F8048006F822500028AED07D6070
:1051A00048F20D60AAE700003401002070080020DA
:1051B000680200200C12002010B500F0B7FA08B108
:1051C000FDF75EFC002000F0D7FA00BF00F0CCFA3B
:1051D0000028FBD0FDF75FFC08B1FDF751FCFEF79E
:1051E0005BFA0B48FEF7A4F908B1FDF749FC084843
:1051F0002438FDF709FD08B1FDF742FCFEF714FA6B
:10520000002803D0BDE81040FDF73ABC10BD0000F7
:10521000DCAD00002DE9FC5F0E008346DDE90C47A4
:10522000C6F1000098469246814600D40846012502
:1052300003E000BF90FBFAF06D1C5045FADAA84578
:1052400000D9454624B1002E01DB780700D5641E45
:10525000B80702D5B8F1000F0AD0F80708D13CB161
:10526000A54205D220215846641EFEF70DFBF6E745
:10527000002E02DA4E462D2102E0780703D52B21BD
:105280005846FEF701FB07F0030002280BD1B8F1E6
:10529000000F08D13CB1A54205D230215846641E0A
:1052A000FEF7F2FAF6E7CDE90047434652463146AB
:1052B000584604F0D5F8BDE8FC9F0246002012686D
:1052C000530713D502F00300012802D002280CD1A5
:1052D00005E0C2F383100B68801C184404E002232D
:1052E000086803EB925210440860012070470000E8
:1052F00002480068002800D00120704744010020C7
:10530000800701D0002070470120704702681346D3
:1053100002E08A4204D01268002AFAD10B600160D0
:10532000704700002DE9FF410026244800F021F9D4
:105330002248001F074600F01CF9214C2149A068B3
:1053400000900D6800E000986946284004EB80005A
:105350000C30FFF7B2FF0028F5D101AA009901EA4D
:10536000050304EB8303491CDB6842F82030401C32
:1053700000910228F2D3019800F0030001280BD01D
:10538000022810D10198032101EB90500099BDF83B
:105390000A6001EB900005E00198BDF80A60C0F3D7
:1053A000831008440090384600F0E0F808B10098F7
:1053B000A06004B03046BDE8F0810000AC2B0020B6
:1053C000942700205C01002003F05EF801212320D7
:1053D000FFF758FE154803F017F9154A1349101D39
:1053E000FFF772FB114803F00FF91048FFF7E0FCDC
:1053F0000F4C2088182807D3FFF7AFFB20B10020FF
:1054000020802046FFF790FC00212320FFF73AFE82
:1054100003F05CF94FF47A76064DB7013446691C07
:1054200038468847641EFAD1F8E700007C02002065
:1054300000000020F0A900002DE9F047C5881E1DDE
:10544000B6FBF5F78946B6FBF5F1044605FB176C8C
:10545000407916686843DDF820A0F718001F8742DE
:1054600000D9C61A166001E02468491E0029FBD144
:10547000A5EB0C078846B74216D818E004EB0C00E1
:10548000001D09EB0803BAF1000F3A4602D00146AD
:10549000184600E01946FBF783F82468F61B4FF026
:1054A000000CB844B54201D9374600E02F46002E23
:1054B000E4D1BDE8F087000030B5024651B100F0FC
:1054C000A5FF0021074C08E034F821301568AB42F5
:1054D00002D11160002030BD491C8142F4D3052067
:1054E00030BD00000000000010B531B1B2FBF3F494
:1054F00003FB14241CB1092010BD0E2010BD016057
:105500000021416081608281C381084610BD70B571
:105510000C460546FAF77EFF002802D0218828684D
:10552000084470BD10B50A8849888A4203D1FAF749
:10553000B3FF012010BD002010BD70B50C4605461C
:10554000FAF78DFF002802D061882868084470BDF2
:1055500010B50A8849888A4203D1FAF777FF0120FB
:1055600010BD002010BD002100F00FB8002100F098
:1055700017B8012100F023B8012100F016B808B5D2
:105580006A46FAF7EEFE009808BD08B56A46FAF7D3
:10559000CEFE009808BD08B56A46FAF7E2FE08BDDF
:1055A00008B56A46FAF7C3FE08BD08B56A46FAF7B9
:1055B000B1FE08BD08B56A46FAF7A0FE08BD08B5F9
:1055C0006A46FAF7A7FE009808BD08B56A46FAF7DA
:1055D000D5FE009808BD08B56A46FAF7F1FE0098B6
:1055E00008BD70B5044600252846FEF7D9F82168A5
:1055F0006268086890420ED9401E08600178238ACC
:10560000E26801FB0325227A2168101AC0B20A79E8
:10561000824200D208710020FEF7C4F8284670BD0F
:1056200070B505460C460020FEF7BAF8E868298AEE
:10563000201AB0FBF1F12A681068431C1360017056
:10564000BDE870400020FEF7ADB8C20800F00703C7
:105650000120895C98400840704700F18040006854
:10566000002800D00120704708B500F180400021DB
:1056700001600068009008BD2DE9F041040007D0EA
:10568000044E4FF47A47751C3846A847641EFAD179
:10569000BDE8F08180AD00002DE9F041040007D0A5
:1056A000044E4FF47A47751C3846A847641EFAD159
:1056B000BDE8F081B0AD000010B50020FEF770F835
:1056C000074C6068401E6060606818B901F042F9DC
:1056D00000206070BDE810400020FEF763B80000B5
:1056E000D802002070B5104D0446687838B114B166
:1056F0006168002088470020FEF752F80CE0002087
:10570000FEF74EF824B1084821460830FFF7FEFDA9
:10571000686808B901F012F96868401C6860BDE863
:1057200070400020FEF73EB8D802002070B50C4C47
:105730000125207808B185260BE00020A06060607C
:105740002061E060074801F023F9064601F0DCF82B
:10575000257001F0CBF800B1A570304670BD000097
:10576000D8020020F941000002480068C0F3004060
:10577000704700001804004070B5104D0446A8782A
:1057800038B114B16168012088470020FEF708F89D
:105790000CE00020FEF704F824B108482146103040
:1057A000FFF7B4FDE86808B901F02EF9E868401C7D
:1057B000E860BDE870400020FDF7F4BFD80200208B
:1057C00010B5074C217809B1852010BD00B90548F6
:1057D00001F0E8F90028F8D10121217010BD000086
:1057E0002000002020AA000010B5044600F007F8B1
:1057F000204601F053FA01F04AFA002010BD10B51E
:1058000001F03EFABDE8104001F052BA2DE9F04136
:10581000064604780B4815460F4640F82420083009
:1058200040F82430487B10B1084603F083FB0DB1EB
:10583000054A00E0002223463946301DBDE8F0410C
:1058400001F066BA08000020D98F00000FB408B537
:105850000399002904D004AA00926A4600F00FF8C8
:1058600001B05DF814FB10B582680446002A05D02B
:10587000D4E90403216898470020A06010BD2DE9F9
:10588000FC4791460C00804676D014F8011B39B1D4
:1058900025290ED04046FDF7F7FF20780028F4D1E7
:1058A00098F80C00002867D04046BDE8FC47FFF799
:1058B000DABF0020012221782B291BD02D2902D00C
:1058C000302908D102E040F0010001E040F0020080
:1058D000641C002AEFD100252A290ED02178A1F1DD
:1058E00030020A2A11D205EB850201EB4205641C45
:1058F000303DF1E740F00400EAE7D9F800100B1D55
:10590000C9F800300968641C0D44217800232E2951
:105910000BD114F8011FA1F130020A2A05D203EBC2
:10592000830201EB4203303BF3E76C290DD0682979
:105930000BD0692921D00BDC252918D0582931D06A
:1059400063290ED0642915D117E014F8011FECE784
:10595000702969D0732932D075291BD0782909D1D3
:1059600020E0D9F80000011DC9F800100178404678
:10597000FDF78AFF641C90E76CE0D9F800100A1D5F
:10598000C9F800200968CDE900500A224046FFF717
:1059900041FCEFE7D9F800100A1DC9F8002009689A
:1059A0000A2206E0D9F800100A1DC9F8002009688B
:1059B0001022CDE90050404603F052FDDAE7D9F855
:1059C000001000270A1DC9F800200E68C00705D185
:1059D00012E04046761C7F1CFDF756FF3178002907
:1059E000F7D104E0202140466D1EFDF74DFFBD427A
:1059F000C0D9002DF6D1BDE74EB13046FAF7F4FD1F
:105A0000074604E0202140466D1EFDF73DFFBD42E4
:105A100006D9002DF6D103E04046761CFDF734FF91
:105A200031780029F8D1A5E7D9F80000011DC9F89F
:105A30000010056830214046FDF726FF78214046DA
:105A4000FDF722FF08200021CDE9000103461022C6
:105A50002946B0E7BDE8FC872DE9F04106460C4831
:105A60000078002812D0002E10D00025094F2C46B7
:105A70007819B042204603D1BDE8F041FDF7AEBE33
:105A8000FFF7D8FA641C0544032CF1D3BDE8F0817C
:105A900048010020941200202DE9F84388460500B3
:105AA0002C482D499946A0EB01004FEAD0004FF059
:105AB0000101164601EB004424D0286800282CD0B0
:105AC000002E34D0696840464FF010070A68511E16
:105AD00011EA080F11D1014672432846FCF782FFF4
