:020000040002F8
:1070000058AA002099750200A1750200FD730200C4
:10701000A5750200A7750200A97502000000000016
:10702000000000000000000000000000F9740200F1
:10703000AD750200000000003D750200B175020050
:10704000397A0200B3750200217D0200097B02003B
:10705000B3750200B37502008D770200B3750200AC
:10706000B3750200B3750200B3750200B375020078
:10707000B3750200B3750200B3750200B375020068
:10708000B3750200497A0200B3750200B3750200BD
:10709000B3750200B3750200197B0200B3750200DC
:1070A000B3750200B3750200B3750200B375020038
:1070B000B3750200B375020000000000000000007C
:1070C000B3750200B3750200B3750200B375020018
:1070D000B3750200B3750200B37502002D7D020086
:1070E000B3750200B3750200B37502000000000022
:1070F00000000000B375020000000000B37502003C
:10710000000000000000000000000000000000007F
:10711000000000000000000000000000000000006F
:10712000000000000000000000000000000000005F
:10713000000000000000000000000000000000004F
:10714000000000000000000000000000000000003F
:10715000000000000000000000000000000000002F
:10716000000000000000000000000000000000001F
:10717000000000000000000000000000000000000F
:1071800000000000000000000000000000000000FF
:1071900000000000000000000000000000000000EF
:1071A00000000000000000000000000000000000DF
:1071B00000000000000000000000000000000000CF
:1071C00000000000000000000000000000000000BF
:1071D00000000000000000000000000000000000AF
:1071E000000000000000000000000000000000009F
:1071F000000000000000000000000000000000008F
:10720000DFF810D000F054FA00480047D1D0020057
:10721000AFF3008058AA002030B4044654E8000FB1
:107220000D4644E80053002BF8D1156030BC704780
:1072300030B4044654E8000F40EA010544E8005326
:10724000002BF7D1156030BC704730B4044654E8C9
:10725000000F00EA010544E80053002BF7D1156048
:1072600030BC704730B4044654E8000F80EA010592
:1072700044E80053002BF7D1156030BC704730B4A0
:10728000044654E8000F00EB010544E80053002BCE
:10729000F7D1156030BC704730B4044654E8000F95
:1072A000A0EB010544E80053002BF7D1156030BC7A
:1072B000704770B404464FF0000054E8006F0D684A
:1072C000AE4207BF44E80023012044E800630E609B
:1072D000002B1CBF0020F0E770BC704730B40446A0
:1072E00054E8000F88422CBF451A054644E8005375
:1072F000002BF5D1156030BC7047000000B583B09D
:1073000002900091019244F2010071466A4601F038
:10731000D9F803B000BD000030B4044654E8000FB3
:107320000D4644E80053002BF8D1156030BC70477F
:1073300030B4044654E8000F40EA010544E8005325
:10734000002BF7D1156030BC704730B4044654E8C8
:10735000000F00EA010544E80053002BF7D1156047
:1073600030BC704730B4044654E8000F80EA010591
:1073700044E80053002BF7D1156030BC704730B49F
:10738000044654E8000F00EB010544E80053002BCD
:10739000F7D1156030BC704730B4044654E8000F94
:1073A000A0EB010544E80053002BF7D1156030BC79
:1073B000704770B404464FF0000054E8006F0D6849
:1073C000AE4207BF44E80023012044E800630E609A
:1073D000002B1CBF0020F0E770BC704730B404469F
:1073E00054E8000F88422CBF451A054644E8005374
:1073F000002BF5D1156030BC70470000094B1EF022
:10740000040F1CBFEFF309801847EFF3088006490B
:10741000064A884201D8904202D88D464FF00000BB
:10742000184700003178020058AA0020588A00202E
:1074300030B450E8012F93B2C48923448489A34215
:1074400028BF1B1B0489A34202BFBFF32F8F00205C
:1074500007E0C3EA020340E80134002CE9D14FF011
:1074600001000A6030BC704750E8012FC2EA0242B6
:1074700040E801210029F7D1704730B450E8022FCD
:107480001FFAA2F3C488A34202BFBFF32F8F0020CC
:107490000DE0C48923448489A34228BF1B1BC2EA90
:1074A000034340E80234002CE8D14FF001000A60A9
:1074B00030BC704750E8022FC2EA224240E8022165
:1074C0000029F7D17047034653E8022FD988B2EB61
:1074D000324F4FF0000017BF92B241EA014142EA39
:1074E000014104E05A68B2EB324F08BF012043E883
:1074F0000212002AE8D17047264B19680868B0E8E4
:10750000F04F80F30988BFF36F8F4FF0000080F3D6
:1075100011887047000000000748006880F3088861
:1075200062B661B6BFF34F8FBFF36F8F4FF4F07049
:1075300080F3118800DF000000700200EFF3098083
:10754000BFF36F8F134B1A681EF0100F08BF20EDAA
:10755000108A20E9F04F106008B44FF0400080F32B
:107560001188BFF34F8FBFF36F8F0CF047FC4FF0C4
:10757000000080F3118808BC19680868B0E8F04F73
:107580001EF0100F08BFB0EC108A80F30988BFF31B
:107590006F8F7047482D00200648804706480047F7
:1075A000FEE7FEE7FEE7FEE7FEE7FEE7FEE7FEE7B3
:1075B000FEE7FEE74D7B02000172020000487047C3
:1075C000684F030040EA01039B0703D009E008C9A4
:1075D000121F08C0042AFAD203E011F8013B00F898
:1075E000013B521EF9D27047D2B201E000F8012BE4
:1075F000491EFBD270470022F6E710B513460A4633
:1076000004461946FFF7F0FF204610BD421C10F853
:10761000011B0029FBD1801A7047034611F8012B8A
:1076200000F8012B002AF9D1184670472DE9F05FC8
:107630000546002092469B468846064681464024E1
:107640001BE0284641464746224600F020F85346B4
:107650005A46C01A914110D311461846224600F0EE
:1076600039F82D1A67EB01084F4622460120002108
:1076700000F030F817EB00094E41201EA4F1010480
:10768000DFDC484631462A464346BDE8F09F202AC3
:1076900004DB203A21FA02F00021704721FA02F3BC
:1076A000D040C2F1200291400843194670470000C3
:1076B000064C074D06E0E06840F0010394E807003F
:1076C00098471034AC42F6D3FFF79EFD5C5D030093
:1076D0007C5D0300202A04DB203A00FA02F100203E
:1076E00070479140C2F1200320FA03F31943904000
:1076F000704770B58C1810F8015B15F0070301D1C5
:1077000010F8013B2A1106D110F8012B03E010F804
:10771000016B01F8016B5B1EF9D12B0705D4002327
:10772000521E0DD401F8013BFAE710F8013BCB1AC9
:10773000921C03E013F8015B01F8015B521EF9D5BE
:10774000A142D8D3002070BD10B542EA810141EAC0
:107750000010029CC0B2210141EAC301CCB28021D9
:1077600000F009F8002805D02046BDE8104081212E
:1077700000F001B810BD08B502228DF800108DF898
:10778000010069460D200BF0F5F808BD2DE9FC411C
:107790000025DFF8948000954FF4807601242F4671
:1077A0000195304606F09AFD38B1D8F8040320421E
:1077B00003D0304606F088FD2543361D64007F1C4B
:1077C000B6B2082FEDD34FF4BE74204606F086FD06
:1077D00048B1204606F078FD45F000456A46022192
:1077E000002006F0FFFC15F0FF0F16D00126002444
:1077F0002E420ED008EB8401D1F81005D1F81015F7
:10780000C0F30520094AC1F3014152F8242002B116
:1078100090477600641C082CEAD3002D02DA6846F3
:1078200009F0A0F8BDE8FC8100600040182E00209F
:107830002DE9FC47814607F045F800BF06F01CFE25
:107840000028FBD131485FEA090507683048314913
:107850004FF00106A0EB01004FEAD00006EB004418
:1078600017D020462CA1AA6906F078FFD5E90201BD
:10787000CDE90001D5E9002320462DA106F086FFC1
:10788000E8690090D5E90423204637A106F075FF8A
:1078900003E020463EA106F05DFF1C48001D006885
:1078A000800703D52046474906F054FFDFF81881CA
:1078B000002500BF06FA05F0384206D058F825200A
:1078C0001AB1204641A106F049FF6D1C1A2DF1D3D3
:1078D000380606D50D480C30026820463EA106F059
:1078E0003DFF380406D5094810300268204642A101
:1078F00006F034FF0548C8300068C00700D000BE5D
:10790000484600F087F8BDE8FC87000028ED00E05D
:10791000D45D03008C5D030048415244204641552C
:107920004C54206174203078253038580000000015
:10793000202052303A2020307825303858202052EC
:10794000313A2020307825303858202052323A20E1
:1079500020307825303858202052333A2020307893
:10796000253038580000000020205231323A2030B3
:10797000782530385820204C523A20203078253055
:10798000385820205053523A20307825303858004B
:10799000537461636B2076696F6C6174696F6E3AC2
:1079A00020737461636B20706F696E746572206FF1
:1079B00075747369646520737461636B20617265AB
:1079C000612E000030540300882B00204361757342
:1079D000653A2025732E00004D656D4D616E61671F
:1079E00065204661756C7420416464726573733AF6
:1079F0002030782530385800427573204661756C08
:107A00007420416464726573733A2030782530388D
:107A100058000000BFF34F8F05480168054A01F484
:107A2000E06111430160BFF34F8F00BFFDE700002D
:107A30000CED00E00400FA0510B507F045FDBDE8C7
:107A4000104007F009BC0000F8B50025EFF31184E1
:107A5000402080F311881248D0F80465C0F8005126
:107A6000D0F8000100900CF071FD301A20F07F4634
:107A7000012E08D90CF05CFD022804D05FF000064E
:107A80000CF070FD0543761EFAD225B105494FF082
:107A90008050086040BFE0B280F31188F8BD00005C
:107AA0000010014004ED00E000F07CB970B50E4616
:107AB000144900EB400001EBC0051446E86A183594
:107AC00020B101280FD0022805D113E0284600F08C
:107AD0009DF9A04201D2002411E0224631462846F9
:107AE00000F0EEF90BE0284600F090F9A042F4D245
:107AF0000446F2E73146284600F0B5F90446204630
:107B000070BD00008C580020014902480AF0D6BF21
:107B1000D02D00200030004008B50020009009481A
:107B2000694600680CF0D4F80098002808D006498F
:107B30004FF08050086040BFBFF34F8FBFF36F8F8F
:107B400008BD0000B02D002004ED00E070B54FF03E
:107B500080520124D2E94C100023082906D1CD0619
:107B6000C5F80C31C5F810315E4D2B60082955D190
:107B70005D4D2D685D4E35605B4D2D1D2D68361DAC
:107B80003560594D08352D68361D3560564D0C351C
:107B90002D68361D3560544D10352D68361D356005
:107BA000514D14352D68361D35604F4D18352D68F3
:107BB0004E4E203635604C4D1C352D68361D3560D7
:107BC000494D20352D68361D3560474D24352D68CB
:107BD000361D3560444D28352D68361D3560424DC3
:107BE0002C352D68361D35603F4D30352D683F4EA4
:107BF000403635603C4D34352D68361D35603A4D84
:107C000038352D68361D3560374D3C352D68361DAD
:107C10003560354D40352D68361D3560082904D155
:107C2000050002D1334E324D3560082904D10500DC
:107C300002D1314EFB253560082908D1050006D157
:107C400092F858622D4A156866F3030515600829F5
:107C500004D1020002D12A4D8A012A60082906D1E6
:107C600028480168C90702D06FF001010160264869
:107C7000016841F470010160BFF34F8FBFF36F8F54
:107C80004FF01021D1F80002002803DBD1F80402E4
:107C9000002822DA1D4A14601D480468002CFCD01C
:107CA0001224C1F800420568002DFCD0C1F804423E
:107CB00001680029FCD0136001680029FCD0BFF3E3
:107CC0004F8F11487C380168124A01F4E06111437A
:107CD0000160BFF34F8F00BFFDE710490E480860F9
:107CE00070BD0000380500400404001020C50040AD
:107CF000488103008C56004018F50040E40E004017
:107D0000409602400004004088ED00E004E5014098
:107D100000E401400400FA050090D003B82D0020D3
:107D20000148006800470000F82A00202DE9F041D2
:107D30001A48D0F80453002601240FE095FAA5F064
:107D4000B0FA80F7B80000F5807007F0F5F910B1CF
:107D500004FA07F0064304FA07F08543002DEDD13D
:107D6000C6F3C05726F40005DFF834800AE000BFF0
:107D700095FAA5F0B0FA80F658F82600804704FA84
:107D800006F08543002DF3D10BF096FB002F03D0B6
:107D9000BDE8F04103F028BDBDE8F081007002406D
:107DA0003049030010B5124C02202061606111A01F
:107DB000A06104F17800E0614FF4007020620020BF
:107DC000A06260620BA1A164E06204F51E71E1642F
:107DD0001021A065C4E91410E06509A1E01DFFF7BA
:107DE0001CFC08A12046FFF718FC2020A07110BD44
:107DF0008C5800205465726D696E616C0000000043
:107E00005254540053454747455200000269C16827
:107E10008A4203D88068401A104400E0501A401E7D
:107E200070470000C11700EBD161074B4A1153F8AE
:107E3000222021F01F01411A01208840024201D076
:107E4000012070470020704700E100E0002809DBB6
:107E500000F01F02012191404009800000F1E02064
:107E6000C0F8801270472DE9F047C468174689466C
:107E700006464FF000083069A04201D9051B02E018
:107E8000B168201A0D1AB0686D1E001BA84200D8F8
:107E90000546BD4200D33D4670682A462044494607
:107EA000FFF790FBB0687F1B2C44A844A944A04274
:107EB00000D10024F460002FDDD14046BDE8F087FA
:107EC0002DE9F04104468846D4E90207C51BE16864
:107ED000606816460844B54206D94146FFF772FB72
:107EE000B819E060BDE8F0812A464146FFF76AFB19
:107EF000761B08EB050132466068FFF763FBE6601E
:107F0000F0E700000FB47CB50C0009AD01D0611E94
:107F100000E00021CDE90001064B6A462946089899
:107F200000F040F8002C02D0009A002111707CBCB7
:107F30005DF814FBFB8302000FB4084B10B504A9D5
:107F400002AA039800F02EF8044602A9002000F0CF
:107F50005FFA204610BC5DF814FB0000118402009B
:107F600002E008C8121F08C1002AFAD17047704702
:107F7000002001E001C1121F002AFBD17047000060
:107F80000121202803DA81400548014003E0402810
:107F900002DA2038814009B1012070470020704783
:107FA000FC06FFBD2DE9FF4F8DB00F4605460026AC
:107FB00006E025280BD0DDE90F1290476D1C761CDA
:107FC00028780028F5D111B03046BDE8F08F0024A4
:107FD000A246A1460122E94900E0044315F8013F09
:107FE000203B02FA03F00842F7D128782A2810D063
:107FF0006FF02F022878A0F13001092914D80AEB7C
:108000008A0102EB410144F0020400EB010A6D1CFD
:10801000F0E701CF5FEA000A03D544F40054CAF147
:10802000000A44F002046D1C28782E2817D115F898
:10803000010F44F004042A280ED06FF02F02287894
:10804000A0F1300109290AD809EB890102EB4101AD
:1080500000EB01096D1CF2E757F8049B6D1C2878B2
:108060006C280FD006DC4C2817D068280DD06A2861
:1080700014D104E0742810D07A280FD10DE044F414
:1080800000140AE044F4801401E044F440146978D8
:10809000814202D104F580146D1C6D1C28786E2875
:1080A0001ED00CDC632830D004DC00288BD058288C
:1080B00011D19FE0642867D069280CD164E073284F
:1080C0002DD004DC6F2872D0702804D194E075287C
:1080D0006ED078286DD0DDE90F129047761C4BE109
:1080E000C4F30250022806D0032809D0042801CF87
:1080F00009D0066040E101CFF117C0E900613BE122
:1081000001CF068038E1067036E117F8040B8DF8D0
:10811000000000208DF80100EB46012003E057F835
:1081200004BB4FF0FF3061074FF0000102D40DE0B7
:1081300008F10101884649450FDA8045F8DB1BF854
:1081400008100029F4D108E008F1010188468142B5
:10815000FADB1BF808100029F6D1DDE90F23AAEBA2
:1081600008008146214600F031F9304400EB080652
:1081700004E0DDE90F121BF8010B9047B8F101088C
:10818000F7D221464846F2E00A21C4F302524FF0EA
:10819000000B0891022A04D001CFC117032A09D08D
:1081A0000AE0FF1D27F00707F7E8020108E02CE0CE
:1081B0001EE01FE000B2C117042A01D140B2C1176E
:1081C000021E71F1000206DA0023D0EB030063EB1C
:1081D00001012D2202E0220504D52B228DF8242056
:1081E000012203E0E20701D02022F7E7904653E0A6
:1081F0000A210BE0102109E010214FF0000B44F0A0
:1082000004044FF00809089103E008214FF0000B27
:108210000891C4F30252022A04D001CF0021032A9C
:1082200006D006E0FF1D27F00707F7E8020103E08C
:1082300080B2042A00D1C0B24FF0000822072BD52B
:108240002A78702A07D0DDF820C08CF0100C5CEA88
:108250000B0C05D00EE040228DF82420012208E00E
:1082600050EA010306D030238DF824308DF8252004
:1082700002229046089B83F0080353EA0B030BD1BC
:1082800050EA010201D1620706D530228DF8242080
:108290004FF00108A9F101092A78582A04D038A220
:1082A0000B9208AA0A920BE03AA2F9E75B46089AF9
:1082B000FFF7BCF90B9B9B5C0A9A521E0A92137043
:1082C00050EA0102F2D10A98ADEB000000F1200B58
:1082D000600702D524F4803401E04FF00109D9454C
:1082E00002DDA9EB0B0000E0002000EB0B01414494
:1082F0000890AAEB010AE00306D4DDE90F2321462A
:10830000504600F063F806444FF0000908E009A960
:1083100011F80900DDE90F12904709F10109761CF7
:10832000C145F4DBE0030CD5DDE90F2321465046BF
:1083300000F04CF8064404E0DDE90F1230209047CD
:10834000761C0899481E08900029F5DC08E00A9878
:108350000A990078491C0A91DDE90F129047761CB2
:10836000BBF10001ABF1010BF1DC21465046DDE928
:108370000F2300F019F806446D1C21E609280100BE
:10838000303132333435363738396162636465668B
:10839000000000003031323334353637383941424D
:1083A00043444546000000002DE9F0410446002505
:1083B0001E461746880404D405E039462020B047FD
:1083C0006D1C641EF9D52846BDE8F0812DE9F04109
:1083D000044600251E469046C80301D5302700E01C
:1083E0002027880404D505E041463846B0476D1C77
:1083F000641EF9D52846BDE8F0814A68002A06D0F7
:108400000A68531C0B6010704868401E4860704733
:108410000A68531C0B6010707047800701D0002061
:10842000704701207047C3688B4206D81144006929
:10843000491E814201D8012070470020704790F802
:108440002400012801D01F207047EE207047000053
:1084500010B5AC211648FFF7CEF815480221154A91
:108460000170002181700521C1700121A0F84C101C
:10847000026580F87C104022C0F8882040F6B832AF
:10848000C0F88C200C4AC0F8A42080F8781001466F
:10849000A0F2344001F0CDFB20B1084A4FF4107136
:1084A000FEF72CFFBDE810400121054801F0BEBBDE
:1084B000FC5F0020162D0020CDFF0200D0970200A7
:1084C000C85B0020FEB515460E46074672B606F09C
:1084D000F9F900BF05F0D0FF0028FBD12249234A5B
:1084E0000120891AC90800EB0144012F22D06FF442
:1084F0008050381821D0B0F5405F23D06FF4405140
:10850000C842204605D1D5E9003219A106F02DF95F
:1085100003E032461DA106F021F922480068C00799
:1085200000D000BE2A4603B031463846BDE8F040D0
:1085300000F07AB820461CA101E0204622A106F0F6
:1085400009F9EAE7A86806F05DFD0346D5E90001F0
:10855000CDE900100296204624A1AA6806F020F971
:1085600020462CA1EBE70000FC5D03008C5D0300BE
:10857000415353455254494F4E204641494C45447E
:108580002061742025733A2575000000554E4B4E2E
:108590004F574E204641554C542061742030782569
:1085A00030385800F0ED00E0534F465444455649EA
:1085B00043453A20415353455254494F4E2046417A
:1085C000494C454400000000534F46544445564929
:1085D00043453A20494E56414C4944204D454D4F64
:1085E0005259204143434553530000004552524FD6
:1085F00052202575205B25735D2061742025733A18
:1086000025750D0A50432061743A203078253038A2
:1086100078000000456E64206F66206572726F728C
:10862000207265706F72740008B501238DF80030F8
:108630009DF80030144B186059609A606FF48041C7
:10864000401807D001280FD1DA60D8680068986117
:10865000D86807E01A61186980685861186900686D
:10866000986118694068D861186858689868D8682F
:10867000186958699869D86972B600BF9DF80000FA
:108680000028FBD162B608BDBC30002010B508F050
:1086900073FD017B00290BD0417B39B100210173AF
:1086A00001688268BDE81040084610470121F6E7DE
:1086B00010BD000038B5046800251AB110B1207B48
:1086C00020B901E0072038BD606808B1082038BD36
:1086D00000202060A060E06011B10120002101E0D5
:1086E000002001216173A2600649024600912346E1
:1086F0004FF47A7104A00CF049F8606000B90E25BF
:10870000284638BD8D8602002000000000207047FA
:108710007CB54668044626B1207B002803D00020A3
:108720007CBD08207CBDEFF30580226008B30025E6
:108730000A46019501AB0921304600950CF060F81E
:1087400001282BD10BF008FF024601AB0621304671
:1087500000950CF055F8012820D1019800B312497A
:108760004FF08050086040BFBFF34F8FBFF36F8F53
:1087700016E002250A4600230421304600950CF03D
:108780003FF801280AD10BF0E1FE02460023012147
:10879000304600950CF034F8012801D004207CBD4F
:1087A00001202073BBE7000004ED00E07CB5044627
:1087B0004068002500280CD0EFF30581B9B1019580
:1087C00001AB0022082100950CF01AF8012817D1FE
:1087D00001E008207CBD0198A0B10C494FF0805009
:1087E000086040BFBFF34F8FBFF36F8F0AE00221D5
:1087F000002300911A4603210CF002F8012801D051
:1088000004207CBD257300207CBD000004ED00E049
:1088100070B505460548046905E02946204602F082
:10882000DBFC20680468002CF7D170BD302B0020E1
:1088300070B5094804690CE0267A002505E0294650
:10884000204600F0D9FC6D1CEDB2B542F7D320688C
:108850000468002CF0D170BD302B002070B50A48A0
:1088600004690DE0267A002506E00022294620460C
:1088700000F000FD6D1CEDB2B542F6D3206804682F
:10888000002CEFD170BD0000302B002070B50849DE
:10889000054606200C6907E02946204602F09CFCAC
:1088A000062803D121680C68002CF5D170BD0000AA
:1088B000302B00207CB504680B46154694F8201038
:1088C0000C34C90705D0A16929B1206AA0B31120D1
:1088D0007CBD08207CBDE16EA9420CD31846A16E78
:1088E000FEF770FEE06E401BE066A06E65672844F0
:1088F000A06600207CBDC4E9063202F044FD0546B6
:108900000F480069CDE90004E26E6AB1A16EA0696A
:10891000FEF758FEE16EE069401AE061A069084484
:10892000A0610020C4E91B016946284600F072FAE4
:108930000028DFD192207CBDFFE7C4E90832F9E7C7
:10894000C44B03003EB50D460168144691F8201053
:1089500011F0010F0BD002F00DFDA10609D000218E
:108960000095CDE90141694600F07AFA3EBD082044
:108970003EBD0149896AF3E7C44B0300F8B50446DC
:1089800000250FE0002705E0007800F057FA08B155
:108990001120F8BD3946781CC7B2304600F09CF86B
:1089A0000028F1D12946681CC5B2204600F0A6F87F
:1089B0000600E7D100250DE0002703E000782146FE
:1089C00000F041FA3946781CC7B2304600F084F80E
:1089D0000028F3D12946681CC5B2204600F08EF865
:1089E0000600E9D1074800E0086801680029FBD1CA
:1089F0000460054869468069009060680268204606
:108A00009047F8BD402B0020184B03002DE9F04F94
:108A100087B04FF000081D46934689460446DDF8AE
:108A200040A04646CDF80C8000E0761C606801232B
:108A300000224768214603A8B8470028F5D14046E0
:108A40008DF800800027B84601903BE06068012364
:108A50006A46D0F804C0214601A8E04760680123B7
:108A600005AAD0F804C0214601A8E0479DF81410DB
:108A700049451AD1D84514D19DF80000CAF8000024
:108A800005F8010B6A1C85F8009060689DF80030BD
:108A90002146456801A89B1EA847002007B0BDE8F5
:108AA000F08F08F1010000F0FF0860689DF80030C9
:108AB0000022D0F804C0214601A89B1EE0479DF883
:108AC00000000744B742C1D30520E7E70148006929
:108AD00070470000302B002042788A4201D80020E5
:108AE0007047827810440844704742788A4201D81F
:108AF000002070478278104408447047027A8A4206
:108B000001D80020704701EB41010930084470474B
:108B1000027A8A4201D80020704701EB41010930F6
:108B20000844704702484078002800D00120704770
:108B3000302B002010B5002000F058F9BDE810409F
:108B4000802000F053B910B5002000F051F9BDE8C5
:108B50001040802000F04CB970B50D4601462878D1
:108B600006240B2813D007DC07284CD2DFE800F0DE
:108B70004B0D0F114B2739000C2825D00D2825D07F
:108B80000E282CD085283ED110E0032014E00024CC
:108B900039E0244804F036FC0028F8D022480121AE
:108BA0000160BFF36F8FBFF34F8FF0E71D48001FC9
:108BB0000078032827D104200AF0E2FB23E00846CE
:108BC00000F050F804461EE0002005E01748006859
:108BD00010F0010F03D002200AF0D2FBD7E70120EA
:108BE000FAE7EB78032B0ED00E48001D02683AB16D
:108BF00000210160416818469047040005D000E05C
:108C00000E2407F0CBF8204670BD0AF0B1FB28B166
:108C1000A8780028F7D107F096F8F4E707F090F865
:108C2000F1E70000582B00205C700240380400403F
:108C3000024A0146D2E900021047000048320020F3
:108C400070B50C46054607F075F8A84201D0102013
:108C500070BD0348D4E90012C0E90212002070BDC3
:108C6000542B00207FB5054605208DF80000062412
:108C70000DF1010007F06AF80AF07AFB294900209B
:108C800008609DF8010010F01F0006D001280FD0E9
:108C9000022826D0032833D106E06946284609F089
:108CA000DDFA044606282AD16846FFF7EFFD25E0E5
:108CB0009DF8050003A900F0BBFA050008D06A463C
:108CC0009DF80C1000F094FA0446062802D016E035
:108CD000102415E06A469DF80C10284609F0D2FBD6
:108CE0000CE09DF80500010705D0694600F05CF82E
:108CF0000446062803D1684609F02EFB044624B139
:108D000007F04CF804B0204670BD0AF031FB30B1DA
:108D100007F010F80028F5D107F015F8F2E707F092
:108D20000FF8EFE75C2B00207FB5C08814460E4695
:108D3000A04201D2054600E01546844207D28020B9
:108D400006F034FEB4FBF0F100FB114080B10020CE
:108D50000096CDE9015000208DF80C0003A800F02A
:108D600029FC6946802000F07BF8040002D006E070
:108D70000120EDE705498020FFF762FF04469DF8DA
:108D80000C0000F03BFC04B0204670BD604B0300BB
:108D900008B1402101600148704700009C3200206A
:108DA00006F0F8BC06F012BD10B50C46010600F046
:108DB0000F02092A09D200F00BF8006828B14168B7
:108DC0000A682146BDE810401047102010BD000081
:108DD000010600F00F0001D5034901E002494831C6
:108DE00001EBC000704700000032002006F02EBDED
:108DF00010B5044600F00F00082805D2204606F002
:108E000047FD204606F002FE2046BDE8104006F071
:108E10004DBD000070B50C46054606F089FD18B141
:108E200005480078022801D0082070BD2146284658
:108E3000BDE8704006F07EBD302B002010B5FFF776
:108E4000C7FF006810BD10B50C46FFF7C1FF0460F6
:108E50001CB161680968416010BD0021FBE700009A
:108E600070B50C46054606F063FD18B1054800785C
:108E7000022801D0082070BD21462846BDE8704078
:108E800006F0F4BD302B00202DE9FC4104460078AB
:108E90002E4D4FF0000805280BD12D4800682C49B5
:108EA000C0B2091F096811F0FF0F04D1052802D1D3
:108EB000284C207838B3274F6946243F386A04F09D
:108EC00055FA06001DD0206830608DF8048001A896
:108ED00000F070FB6888E968401A401CF0801B486D
:108EE00000210C3004F0B2FAB0809DF8040000F0CC
:108EF00085FB6946386A04F05AFA014620460AF0B2
:108F00002DFDBDE8FC81AE6905E0316860888968A7
:108F1000884730684668002EF7D18DF8048001A894
:108F200000F048FBE86808B96088688007480121BC
:108F30000C3004F070FA9DF8040000F05FFB012192
:108F400020460AF00BFDE868DBE70000302B00202C
:108F5000847402403C4B030070B5774C05460178A1
:108F6000207809297BD008DC092979D2DFE801F0D3
:108F70006A84B28D9FBBC283D700822927D017DCB9
:108F80000A296ED00F296DD080293BD0812972D15A
:108F90006A48FFF74DFE6948FFF73AFC0D200AF0DA
:108FA000EBFCFFF745FCFFF7C5FD606950B906E033
:108FB000832931D0842937D085295CD193E060485A
:108FC000007A00B1012006F0EDFE01207EE0FFF7FF
:108FD0002FFC06F00DFF002009F00CFC5748401C48
:108FE000FFF716FC5548401CFFF722FE0E200AF042
:108FF000C3FC207800F0C4FA00283CD0BDE87040E3
:1090000004F0C0BB052803D0062803D0072832D1BE
:1090100002205BE0082059E003282CD106F00CFF69
:10902000002828D0042051E0032805D106F004FFD1
:1090300010B1042009F0DEFB06F05EFF00281AD014
:10904000062043E0032801D0082803D13B48801CB8
:10905000FFF782FF00200AF08FFC646909E060E0FE
:1090600009E060E044E02946204602F0B5F82068B7
:109070004468002CF7D170BDFFF7DAFBFFF763FD02
:10908000022009F0B7FB012005E0082809D00520DF
:1090900009F0B0FB03200AF06FFC2846FFF7C8FD7B
:1090A00044E0022009F0A6FB06F0EEFDF2E7032003
:1090B0000AF062FC2148C01CFFF7BAFD1F48C01C23
:1090C000FFF7A6FB20780628A2D10720BDE8704054
:1090D00009F090BB032009F08DFB02200AF04CFC44
:1090E0002846FFF795FB2846BDE87040FFF7A0BD76
:1090F0000F2019E0A878FFF76BFED0E9002329467E
:10910000104698470028B6D0A8780107B3D000F0E1
:109110000F010829AFD2BDE8704006F053BC08200B
:1091200002E0092000E00A200AF026FC2846BDE8FB
:109130007040FFF76DBB0000302B0020294B03006F
:1091400090320020FFF7A0BE2DE9FC41234C002502
:109150000095234EA0684FF4006728B9211D306A9E
:1091600004F01AF9A060C0B1818869B1C188B94220
:1091700000D3C580C188ADF80210C188491CC180E8
:109180008188491E818022E0FFF7E6FE1349306A9C
:10919000091D04F0F6F8A5601CE0E06800281AD06C
:1091A0008DF8045001A800F005FA6088B84200D399
:1091B00065806088ADF80200401C6080074801218E
:1091C0000C3004F054F99DF8040000F017FA6846DA
:1091D000FFF7C2FE0120BDE8FC810000302B00201B
:1091E000184B03000148FFF74FBE0000184B030067
:1091F000114642681368184770B5044640680D462A
:10920000C2680AB12046904720462946FFF776FCFF
:1092100005464678002408E021462846FFF75CFC16
:10922000007806F013FB641CE4B2B442F4D370BDC2
:109230002DE9F04180460E480E46056914E02F7A6C
:1092400000240DE021462846FFF758FC01784145EF
:1092500004D106B134702846BDE8F081641CE4B244
:10926000BC42EFD328680568002DE8D10020F3E761
:10927000302B002070B50446406815460E468368C2
:109280001BB120469847062803D1204631460DB130
:10929000072070BDFFF732FC05464678002408E041
:1092A00021462846FFF718FC0078FFF7A1FD641C53
:1092B000E4B2B442F4D3002070BD034600205A68E3
:1092C0001269002A01D01846104770472DE9F8436B
:1092D0002F4C054608234FF484722C49206A04F071
:1092E00032F810B10320BDE8F8832A4806F0D2FC1A
:1092F0000028F8D1284908700861486148212748AA
:10930000FEF779F9254848214830FEF774F92348DB
:10931000783095B195E80E00183080E80E000020F6
:1093200004F0DEFA30B1852804D01DA240F25F318E
:10933000FDF7E4FF284D002611E004F138010EC9C5
:10934000EAE7002703E000782946FFF77CFD39466D
:10935000781CC7B24046FFF7BFFB0028F3D1314667
:10936000701CC6B22846FFF7C9FB5FEA0008E8D1C7
:10937000606800906946284601F02EFF040003D083
:1093800006F0B2FD2046AEE70020ACE7F830002042
:10939000184B030045910200302B002000320020C2
:1093A0002E2E5C2E2E5C2E2E5C2E2E5C2E2E5C2EF7
:1093B0002E5C636F6D706F6E656E74735C6C69624A
:1093C0007261726965735C757362645C6170705F11
:1093D000757362642E630000A04B030030B1012856
:1093E00007D0022808D10548FFF74EBD03480838CA
:1093F000FAE70248001FF7E770470000484B0300F8
:1094000010B506F08FFC10B106F082FC08B1082000
:1094100010BD054804F0DAFA20B104A240F2C231CE
:10942000FDF76CFF002010BD4C4B03002E2E5C2E70
:109430002E5C2E2E5C2E2E5C2E2E5C2E2E5C636FF0
:109440006D706F6E656E74735C6C69627261726967
:1094500065735C757362645C6170705F7573626480
:109460002E63000070B50C460F4901EB800555F8DE
:109470002400017831B10020FFF78AFC002255F862
:10948000241006E0801C70BD521CD2B2491C20F88A
:1094900012300B78002BF7D1022101EB4201C9B247
:1094A00041F44071018070BD702B002070B54FF009
:1094B000805086B0D0F8A810D0F8A40089B241F44A
:1094C0004043009009A20D2101A8FEF71BFD01AD4C
:1094D0000024094E02E0285D3055641C2846FEF742
:1094E00095F8A042F7D806B070BD0000253034587A
:1094F000253038580000000000330020074803E002
:10950000016811F0010F07D00168C1F34001002983
:10951000F6D00348FFF7B8BC70470000380400409D
:109520001D4B0300034808B5806800906846FFF7AC
:10953000ABFC08BD184B030030B44FF0000180B104
:109540000D4B002213F8124084420ED103EB42006F
:10955000407870B1094A02EB800252F8212042B1F2
:1095600000E0002030BCFFF77DBF521CD2B2062ABB
:10957000E8D330BC00207047474C0300702B00201C
:10958000092808D2DFE800F00707050707050505E9
:1095900005000120704700207047092808D2DFE845
:1095A00000F00707050707070707050001207047B8
:1095B0000020704730B5EFF3108172B60D4A946801
:1095C000012324B10370002900D162B630BD93603D
:1095D0004FF0E023D3F88051074C25401560C3F8C5
:1095E0008041D3F8844154605A17C3F88421002283
:1095F0000270E8E7DC300020FC06FFBD0B498A68FA
:10960000002A11D000280FD1EFF3108072B60B683A
:109610004FF0E022C2F800314B68C2F8043100225A
:109620008A60002800D162B670470000DC3000205C
:10963000102802D31038C0B2704740F08000704745
:1096400070B51500044609D00020286034B12068A8
:1096500020B1A079800703D0072070BD0E2070BD17
:10966000084600F0DBFCC0B2142804D02179814206
:1096700003D8042070BD052070BDE288216800FB7E
:1096800002102860002070BD10B50321054800F0CD
:1096900079FB002805D0BDE8104003A2D621FDF7D4
:1096A0002DBE10BDC85B00202E2E5C2E2E5C2E2EF3
:1096B0005C4D795F4C69627261726965735C626C62
:1096C000654D616E616765722E63000001484078E8
:1096D000704700000C2D002008B59DF8002022F0F6
:1096E0000F02521C22F0F00210328DF800200A46C0
:1096F000014668467CDF044AA2F13C01A1F23440F5
:1097000000F044FA08BD000038600020044880885A
:10971000A0F57F41FF3901D001207047002070473C
:109720000C2D00200448017819B1002101708078C7
:1097300070470020704700000C2D002010B588B045
:10974000FEF7E4FF20B122A240F21D11FDF7D6FD85
:10975000002004F0C5F820B11DA240F2BD11FDF7B4
:10976000CDFD00F055FF03F08FF803F01BF908F072
:10977000A9FCFEF76DFE1C216846FDF73CFF0020AA
:109780004FF4FA71CDE9000103248DF80C40ADF8D7
:109790000E008DF8100017480590174840F6B831B4
:1097A00006900291684600F005FC20B108A24FF433
:1097B0001671FDF7A3FD1148114908B0401AC00801
:1097C00004EB0040BDE810400EA104F0C3BF000050
:1097D0002E2E5C2E2E5C2E2E5C4D795F4C696272B3
:1097E00061726965735C626C654D616E616765721B
:1097F0002E63000051000300FDB20200FC5D030077
:109800008C5D03004465627567206C6F6767696EE5
:109810006720666F7220424C45206F766572205239
:10982000545420737461727465642E002DE9F04104
:1098300086B01C461546064688460C98CDE900546D
:1098400081B24346324602A806F0E6FEDDE9037126
:1098500089B2029807F0E8FECDE90054390C43467E
:10986000324602A806F0D8FEDDE9037189B20298FB
:1098700007F0DAFECDE90054390C4346324602A81F
:1098800006F0CAFEDDE9034189B2029807F0CCFE7A
:109890000C480D49240C401AC008032101EB00407C
:1098A00022460AA104F05AFF04F0E6FD0028FBD18D
:1098B000B068A04203D9204606B0BDE8F081002080
:1098C000FAE70000FC5D03008C5D030053656E74D5
:1098D000206672657175656E637920757020746F8E
:1098E000202325640000000070B504461C481D4973
:1098F000401AC108032000EB01451BA1284604F0D3
:1099000029FF28461DA1A26804F028FF234A01214F
:1099100000201070224804F10803036113F8015B72
:109920005554491CC9B20529F8D32346046104E003
:1099300013F8015B5554491CC9B20929F8D3241DF9
:10994000046104E014F8013B5354491CC9B20B29CB
:10995000F8D30461BDE870400B21104807F064BEE5
:10996000FC5D03008C5D030053656E64696E6720C7
:109970006D657461646174612E0000005468652037
:109980007377656570206861732025642066726551
:109990007175656E63792064617461009C5B002061
:1099A0000C2D00202DE9FC47002517880646158060
:1099B00090F82D001446894630B13A462146484673
:1099C00000F040FB051E09D1B0784FF00C0A18B327
:1099D0002088C846001DB84202D95046BDE8FC8721
:1099E000684679DF0028F9D12088032108F80010A3
:1099F00020881921401C80B2208008F8001020889F
:109A0000401C80B2208000EB0801BDF8000009F086
:109A10006BFA218808442080F0780222C8B121889E
:109A200096F9033001F1030C4846BC45D5D84254A1
:109A300021884FF0010C491C89B2218000F801C037
:109A40002188491C89B2218009F801302088401CF6
:109A500020807068B8B1218890F9003001F1030CC2
:109A60004846BC45B9D8425421880A22491C89B2CB
:109A7000218042542188491C89B2218009F8013093
:109A80002088401C2080308950B1CDE900474B46EA
:109A90000622022106F1080009F088FF051E9DD16B
:109AA000308A50B1CDE900474B460722032106F129
:109AB000100009F07BFF051E90D1308B50B1CDE92D
:109AC00000474B461522142106F1180009F06EFFDD
:109AD000051E83D1306A30B13B462246494601F02B
:109AE000C9FB051EDBD1706A30B13B4622464946B0
:109AF00003F044FB051ED2D196F82C0038B13B464A
:109B000022464946304608F099FA051EC7D13078FA
:109B100038B13B4622464946304603F0B9FB051EA4
:109B2000BDD128465AE718B504460020ADF800001C
:109B300013466A46204600F006F8002802D0BDF819
:109B40000000204418BD70B5E0B1DAB1002402E095
:109B5000045D2C44A4B2651C8D4206D21688A64230
:109B6000F6D8061976789E42F2D18C420AD2A31C0E
:109B7000005D9BB200B1401E0004000C02D01C1816
:109B80008C4201D9002070BD138070BD7FB5164690
:109B90000D46040048D02078F0B355EA060043D0C3
:109BA00000200090019002900390A5B1D4F8200409
:109BB000016804F15500814200D1EE30009020464A
:109BC000FEF73DFCADF80400284601AA0099FFF716
:109BD000E9FE002824D1A6B1D4F82004816804F25B
:109BE0003120814200D1EE3002902046FEF727FC62
:109BF000ADF80C00304603AA0299FFF7D3FE002807
:109C00000ED19DE80F0004F5826585E80F00294616
:109C1000002204F1540000E004E0C4F8201472DFD4
:109C200004B070BD0820FBE70E20F9E780F8301083
:109C300070472DE9F0410D00044606D02CB195F88F
:109C40007A000026012803D006E00E20BDE8F0814E
:109C500095F89800012821D04FF00108A6702C2219
:109C600005F17801201DFDF7ADFC84F83060D5F8D2
:109C7000A4006063D5F8A800A0634FF6FF70A4F8B5
:109C8000240404F58260C4F82004C4F82664A4F80F
:109C90002A6484F82C64207810B104E00720D5E70A
:109CA000FF2084F8540004F155072046C4F81074CE
:109CB000FEF7C5FBA4F8140404F214423946284602
:109CC000FFF770FE0028C1D104F23120C4F8180457
:109CD0002046FEF7B4FBA4F81C0404F21C4205F174
:109CE0003C00D4F81814FFF75DFE0028AED184F8CC
:109CF0005180208BA4F8480084F83C80266484F8C6
:109D00005060606900216064454604F13C02781EA1
:109D100072DF00289AD1257098E710B50288102AC2
:109D20001BD0112A20D0262A1DD1007A0C460128EA
:109D300001D0022817D1A0780521401CB0FBF1F218
:109D400001FB1201204600F01DF800280BD0A16B8A
:109D5000002908D0BDE810400847C27B012A02D183
:109D60008088A1F8240410BD0C46002184F82E142C
:109D70008088B4F824148842F5D120790028F2D1E3
:109D80000121DFE72DE9F05F044600780F4698B126
:109D9000A7700025C4F82654A4F82A5484F82C543B
:109DA000A079012608B1012F09D0E07980B1012FF7
:109DB00005D0022F03D00BE00820BDE8F09F616BB7
:109DC00021B184F82D640820884701E084F82D54DF
:109DD00004F2274100200A5C0AB1304603E0401C2F
:109DE0000628F8D300204FF002084FF0030B012F94
:109DF00006D0022F0CD0032F0FD0042F15D110E066
:109E0000A17929B194F8241011B908B130460DE0B8
:109E1000E17911B108B1404608E0207A08B158460E
:109E200004E0607A08B1042000E02846A070616B6D
:109E300041B1032801D0042804D1607910B194F80D
:109E40002E0498B184F82F5404F13C0018210746E1
:109E5000FDF7D1FB84F83C6004F12C0006F068FDAE
:109E600058B194F82C0084F8510008E084F830547C
:109E700084F82F6407208847E6E784F8516094F857
:109E8000240058B104F1280006F052FD20B194F8E6
:109E9000280084F8520001E084F8526084F85050A1
:109EA000A27804F2264104F582694FF0060A052AD9
:109EB00064D2DFE802F07C030F22420084F83160B4
:109EC000C4F82054C4E9101584F83C808020A4F81C
:109ED000480055E084F8318094F82420384612B1C7
:109EE0000722027001E080F800B0228A8281C4F863
:109EF00020544160E168B96042E06069B860208B3D
:109F0000B88194F824003D460028204602D084F809
:109F10003CA001E084F83C6009F014FD50B185F8E4
:109F200014800421204601F066FF38BB052184F827
:109F3000311021E084F831B01EE0E069B860208C77
:109F4000B88194F824003D460028204602D084F8C9
:109F50003CA001E084F83C6009F0F4FC48B185F8CD
:109F600014800421204601F046FF38B984F831A05E
:109F700002E0042084F83100C4F82094A07878B17D
:109F80003A4604F15400D4F8201472DF00287FF41C
:109F900014AF94F8301094F8540073DF0028F6D111
:109FA000616B11B194F831008847002005E784F80F
:109FB0003150F5E770B5040012D001461C22144858
:109FC000FDF700FB1248134D0560206850B17ADFA1
:109FD000002806D12068016829604068686005E0B3
:109FE0000E2070BD0B487BDF0028FAD108484FF6E1
:109FF000FF711438084A20F8041B05493439016000
:10A000000021FEF757FB0028EBD0032070BD0000B5
:10A01000BC890020A42D00204D30030010B504465B
:10A0200000F006F808B1204610BD142010BD000055
:10A03000142801D3002070470146014803F0CDB930
:10A04000DC8900207CB5054608880C460930904222
:10A0500001D90C207CBD68466DDF0028FAD121882B
:10A060000820685420881B21401C80B2208029547D
:10A070002088401C80B220802844DDF80110016057
:10A08000BDF8051081802088801D80B220809DF859
:10A090000010490800D0012129542088401C20804C
:10A0A00000207CBDF8B5044601883C483C4A3D4D43
:10A0B000801A0026C008AF88212949D01ADC384A06
:10A0C000364B4FF00300A3EB02024FEAD20200EB43
:10A0D0000240102920D0112932D013292FD100237A
:10A0E0001A46852138467FDF002828D02EA24FF45B
:10A0F000C3710DE03B2948D052293BD056291ED1CF
:10A10000A088132176DF002819D027A24FF4CD7143
:10A11000BDE8F840FDF7F2B82CA104F01BFBA188C4
:10A12000A9802D4803F096FA20B11FA240F26511D4
:10A13000FDF7E4F828480C3090F8540074DFF8BDBF
:10A1400026A104F007FB4FF6FF70A8802E70F8BD23
:10A15000042101EB004025A104F0FCFA0096A08840
:10A1600069468FDF0028F2D00FA24FF4C071FDF7CF
:10A17000C5F8F8BD00231A4619463846B1DF002855
:10A18000F7D009A24FF4C671C2E7A088132176DF89
:10A190000028EED004A240F29311B9E7FC5D030061
:10A1A0008C5D03000C2D00202E2E5C2E2E5C2E2E9E
:10A1B0005C4D795F4C69627261726965735C626C57
:10A1C000654D616E616765722E630000436F6E6E50
:10A1D0006563746564000000BC5B002044697363C0
:10A1E0006F6E6E656374656400000000504859200E
:10A1F00075706461746520726571756573742E0085
:10A200002DE9F04701883B4E40F2F3194FF6FF75F8
:10A2100010291BD011293ED0122954D0502946D1E3
:10A22000C188F289841D914241D1618902293ED1C0
:10A230008688304602F03AFE050038D004F10C0062
:10A2400000F0E2F9A8B3294630464EE0C17B87888A
:10A25000044601292BD1A846284602F027FE050016
:10A2600017D02F8000202872234843464A460168B1
:10A27000C5F80A104068C5F80E0004F1100105F198
:10A280000A0002F093FE6872F08900280FD1294677
:10A290002AE0042013E0808802F008FE040006D0C3
:10A2A0006068FEF783FA08B107F0B6F92580BDE8CB
:10A2B000F087FFE76868FEF779FA0028F7D0BDE875
:10A2C000F04707F0A9B987880646384602F0EEFD48
:10A2D0000400ECD02B464A4606F1080104F10A00BE
:10A2E00002F064FE607221463846BDE8F04701F096
:10A2F0001DB80000BC890020A42D00202DE9F04FDE
:10A30000044686880188434897B0834610290CD0BC
:10A31000112952D0103019296CD01A2976D1217AFE
:10A320000C09042C4FD301224EE03A4D083DA86899
:10A33000C0430B9069680BA803F073F80B990CA845
:10A3400000F079FF2C220CA96846FDF73BF90027A5
:10A35000E946A84610E000BF09EB47005FF00005A2
:10A36000B0F804A008EB85005146001D03F02AF860
:10A370006D1C1E2DF6D37F1C0098B842ECD8142E0D
:10A3800007D317B0F021BDE8F04F23A20420FCF75B
:10A39000B5BF3146584603F02BF8314608F10400AA
:10A3A00003F026F8E07B022830D117B03146BDE833
:10A3B000F04F1848001D03F01BB817B03146BDE838
:10A3C000F04F02F0FFBF0022314601F00FFD032CD9
:10A3D00001D3012200E000220E4831460C3001F08A
:10A3E00005FD022C01D3012200E00022094831467C
:10A3F000083006E0217A002908D1617AC1F3C00251
:10A40000314617B0BDE8F04F01F0F0BC17B0BDE821
:10A41000F08F0000E08900202E2E5C2E2E5C2E2E68
:10A420005C2E2E5C2E2E5C2E2E5C636F6D706F6E1C
:10A43000656E74735C626C655C636F6D6D6F6E5C92
:10A44000626C655F636F6E6E5F73746174652E63BB
:10A4500000000000F0B585B016460F4604001D460A
:10A4600014D004AA19466069FFF7EAF800280BD156
:10A47000A5F57F40FF380BD0049848B1007848B16B
:10A480003088F42808D9072005B0F0BD0E20FBE77E
:10A490000520F9E70820F7E70020009001900290DE
:10A4A0000390A088ADF8000001208DF80200CDE9EE
:10A4B000026769462846AEDFE6E7000070B5334D17
:10A4C00004008EB02DCD08AE86E82D005BD0E9B338
:10A4D0000868A061214608A862DF002851D12078D1
:10A4E00001258DF83200ADF83050A21C0CA9284689
:10A4F000A8DF002845D120216846FDF77CF802201E
:10A50000ADF8000020788DF802008DF80C509DF811
:10A510000D00F426ADF8046040F00C008DF81150E9
:10A52000ADF806508DF80D008DF81250608804F1DA
:10A530000C02694600F088FD002822D120216846DF
:10A54000FDF759F80320ADF8000000E01BE020788B
:10A550008DF802008DF80C509DF80D008DF811500B
:10A56000ADF8046040F010008DF81250ADF80650C0
:10A570008DF80D008DF813506088221D694600F09B
:10A5800063FD0EB070BD0E20FBE70000304E0300EF
:10A5900030B587B00446002928D0002C26D00846C4
:10A5A0002188102924D0502928D057291ED10546AA
:10A5B000A18840696A46FFF743F8002816D1009841
:10A5C0000078002812D0A86900280FD0182101A80F
:10A5D000FDF711F801208DF804000295A088ADF870
:10A5E0000C0000980490A96901A8884707B030BD05
:10A5F00007B02146BDE8304005F04EBD07B021460A
:10A60000BDE8304005F0C6BF007800F0010070479B
:10A6100008B504F0BFFB20B10D4A40F2C911FCF7A8
:10A620006DFE002000906946012004F0DDFA20B1A3
:10A63000074A40F2CF11FCF761FE684604F022FBA6
:10A64000002804D0024A40F2D311FCF757FE08BD9F
:10A65000D097020041094A4200EB421010B5044A6B
:10A660000124844052F82130234342F8213010BDA8
:10A67000242C00202DE9F84F0546861C00208DF87B
:10A68000000091460F464FF0010A6846FEF792FF20
:10A690001B4C04F21C4860683860D4E90101194F72
:10A6A000401A3968081A0EE00121404602F0B3FE54
:10A6B00002F0BCFC0146404602F0ADFED4E90101C7
:10A6C000401A3968081A401C8642EDD8B9F1000FCB
:10A6D00003D0052065F3891002E0062065F39F5042
:10A6E00061683A68114004EB8101C86060683044D9
:10A6F00060609DF80000FEF781FF5046BDE8F88FCE
:10A700006C5400203C2C002070B50D4604460A29EC
:10A7100002D10D21FFF7F8FFA0682268411CA1605B
:10A720001554D4E90101814204D32046BDE87040AC
:10A7300003F0B1B970BD00000448816840688142EF
:10A7400001D1012070470020704700006C540020A8
:10A750004360CA699A420DD38A69026088691844C5
:10A760008861086F18440867C869C01AC86100D0BA
:10A770000120704701F12802026000208B677047BA
:10A7800070B50646087800240D460F2838D2DFE859
:10A7900000F038083838370C113737323738383846
:10A7A0003800304600F075FB2BE02946304607F0B4
:10A7B0001DFE0FE0304600F035FD0146A87800246C
:10A7C00081421ED00106E9784FF0030004D531B96B
:10A7D00001210CE0044614E021B1012911D0032924
:10A7E000F8D10EE0304600F063FB0446002130460D
:10A7F00009F0BCF805E00321304609F0B7F8D0E7CE
:10A800000624204670BD00002DE9F05FDFF8589661
:10A810000C7A054689F800400068164688464FF0D5
:10A82000000A40F2463254461F46A0F246314FF02D
:10A83000020B904273D056DCB0F54A7F70D02BDC0F
:10A840004FF4467290426CD013DC40F21531A0F206
:10A850001533884273D007DCA8B3A0F540701338D5
:10A860006ED0012871D18BE0012B6BD0022B6CD103
:10A87000ACE040F22131A0F22132884271D006DCF6
:10A88000A0F5407019386DD001285ED1C5E0012ACD
:10A8900069D0062A59D1EBE040F23632A0F23631C7
:10A8A000904278D015DC40F22F31A0F22F3288424E
:10A8B00071D009DCA0F5407029386DD004286CD027
:10A8C000052842D11AE145E0052A67D0062A3CD185
:10A8D00041E1C91F092938D2DFE801F0F8373737DD
:10A8E00037F7F6F5F40013296FD00DDCA1F1030161
:10A8F00010292AD2DFE801F0F6F5F4F3F22929F164
:10A90000F0EFEE2929EDECEB37290FD00FDC2929E8
:10A9100073D007DC142971D0282916D117E263E11E
:10A92000B1E05EE02D296AD032290ED13FE2442900
:10A9300071D008DC3E296FD03F2906D158E22EE0C5
:10A9400012E002E036E04929F2D00020C5F800A06C
:10A95000BDE8F09F08202871002F05D840F2133081
:10A960000CE068E04CE071E00EB1287930700B200B
:10A9700001242871012F03D84FF4457028602EE080
:10A980000EB12879305598F81400641C2871BC4227
:10A9900005D3296023E0BDE082E0A4E0D0E00EB161
:10A9A00028793055641C85F804B0BC4202D340F2CB
:10A9B0001630E3E70EB128793055641C85F804B0F1
:10A9C000BC4203D340F21730D8E79FE10EB128799B
:10A9D0003055641C85F804B0BC4202D32A600120C3
:10A9E000B6E70EB12879305598F81900641C287123
:10A9F000BC4205D340F21930C0E7B3E192E1C4E1B3
:10AA00000EB128793055641C85F804A0BC4204D3EB
:10AA100040F21A30B2E7FFE1DFE10EB1287930559C
:10AA200089F801A0641C09E209202871BC4202D304
:10AA300040F22130A2E70EB1287930550420641C81
:10AA40002871BC4202D340F2223097E70EB1287938
:10AA5000305599F801104046641CFEF759F8C9F8C2
:10AA6000040000782871BC4202D340F2273085E709
:10AA70000EB128793055641C85F804A0BC4202D37D
:10AA80004FF44A707AE70EB128793055D9F80400AE
:10AA9000641CBC424078287102D340F229306DE733
:10AAA0000EB128793055D9F8040098F81410641CB8
:10AAB0000078814239D185F804B0BC4213D340F20A
:10AAC0002D305BE785E079E06DE061E04EE011E17B
:10AAD00005E1F9E0EDE0E1E0D5E0C9E0BCE0AFE0A0
:10AAE000A3E097E08BE00EB128793055641C85F81F
:10AAF00004B0BC4202D340F22E303FE70EB12879B9
:10AB0000305598F81900641C2871BC4202D340F2F9
:10AB10002F3033E70EB128793055641C85F804A036
:10AB2000BC4223D340F23D3028E798F8161081420A
:10AB3000F4D10A202871BC4202D34FF44D701DE7B6
:10AB40000EB128793055641C85F804A0BC4202D3AC
:10AB500040F2353012E70EB128793055641C85F883
:10AB600004A0BC42D6D340F2363007E70EB12879B4
:10AB70003055D9F8040098F81410641C007881420C
:10AB800075D105202871BC4202D340F24230F5E66F
:10AB90000EB1287930552420641C2871BC4202D3A0
:10ABA00040F24330EAE60EB128793055641C85F84E
:10ABB00004A0BC4202D34FF45170DFE60EB12879F5
:10ABC00030551020641C2871BC4202D340F245303D
:10ABD000D4E60EB1287930550120641C2871BC429E
:10ABE00002D340F24630C9E60EB12879305505202F
:10ABF000641C2871BC4202D340F24930BEE60EB15B
:10AC0000287930552420641C2871BC4202D340F2BC
:10AC10004A30B3E60EB1287930550120641C287102
:10AC2000BC4202D340F24B30A8E60EB12879305531
:10AC30000320641C2871BC4202D34FF453709DE67C
:10AC40000EB12879305598F81600641C2871BC4262
:10AC500002D340F24D3091E60EB1287930550420F0
:10AC6000641C2871BC4203D34FF4547086E65DE047
:10AC70000EB1287930552420641C2871BC4202D3BF
:10AC800040F251307AE60EB128793055641C85F8CF
:10AC900004B0BC4202D340F252306FE60EB12879C4
:10ACA0003055641C85F804B0BC4202D340F25330E6
:10ACB00064E60EB1287930550520641C2871BC4229
:10ACC00002D340F2563059E60EB12879305524208F
:10ACD000641C2871BC4202D340F257304EE60EB1DC
:10ACE000287930550620641C2871BC4202D34FF4E9
:10ACF000567043E60EB12879305598F81400641C5C
:10AD00002871BC4202D340F2593037E60EB128799F
:10AD1000305598F81600641C2871BC4202D340F2EA
:10AD20005A302BE60EB128793055641CD9F804103E
:10AD30004846497889F80210514689F803A075E021
:10AD400007202871BC4202D340F26E3016E60EB1E5
:10AD5000287930550520641C2871BC4202D340F28A
:10AD60006F300BE60EB12879305599F80310641C4A
:10AD7000D9F80400FDF7B9FEC9F808000078287179
:10AD8000BC4202D340F27330F8E50EB12879305559
:10AD9000D9F8040098F81410641C0078814211D18D
:10ADA00003202871BC4202D34FF45E70E6E50EB179
:10ADB00028793055641C40202871BC420DD34FF4D3
:10ADC0006170DBE598F816108142F4D185F804B083
:10ADD000BC42ECD340F27D30D0E50EB1287930553D
:10ADE000641C85F804A0BC4202D340F28530C5E55E
:10ADF0000EB128793055D9F8040098F81410641C65
:10AE00000078814224D1D8F82000BC420078287113
:10AE100002D340F28A30B1E50EB128793055641C76
:10AE200099F803104846491C89F803108278C9B282
:10AE3000914285D34178491C89F8011099F8011095
:10AE400099F800008142FFF4EFAD40F29A3095E5A9
:10AE500098F816108142E3D185F804A0BC42DBD3F8
:10AE600040F28F308AE50000642B002008B10320F7
:10AE70007047086810F80C1F202901D00620704781
:10AE8000D0F80210C160C1880182017A817400206B
:10AE900070470268002102F10C0011845162D162F6
:10AEA0009167D167416734328266816770470000DD
:10AEB0002DE9FC47046881460C3400F064FA07462B
:10AEC0002F4800268068CDE90004E069B0B1D4F8CD
:10AED00078804546404500D205462A4604F12801BF
:10AEE000A069FCF76FFB206F2844C4E91C60A8EB45
:10AEF0000500E06660192830A06627E0206F6067D3
:10AF00002667E666216A304621B1626AA161C4E91A
:10AF100007202CE0A06130E004F11802616A82E8A9
:10AF20004300E26E1AB38A4215D3A36E0A4619464D
:10AF3000FCF748FBE16EE069091AE166A16E014485
:10AF4000A16660670021484608F010FD206A0028CD
:10AF5000E2D1A66111E0A16EFCF734FBE06E206740
:10AF6000E169091AE161A1690818A06105D0694683
:10AF70003846FDF74FFFBDE8FC870020FBE70000E7
:10AF8000C44B03004360CA699A4204D38A690260D1
:10AF90000B67CB6103E001F1280202608B670020A0
:10AFA00070470000094869B101290DD0022903D07A
:10AFB000032909D1002106E004490122891C044823
:10AFC000FDF778BC0121417070470000FF2C002084
:10AFD000D84D030005494FF0FF32082841F82020E2
:10AFE00002D3084480F8582070470000182E002033
:10AFF000F0B54FF0FF3512B10023082601E0082319
:10B000000C260C4C05E000BF54F823707F1C04D0C4
:10B010005B1CB342F8D32846F0BD26185DB286F813
:10B02000305044F82310002AF5D1E11881F8580077
:10B03000F1E70000182E00200249084490F9300082
:10B0400070470000182E00202DE9F04381468878D3
:10B0500091B090460C4600B901208DF83E00208842
:10B06000ADF83C0000250095607C694607F050F87B
:10B070006E46A07C711C07F04BF8E07B00289DF821
:10B08000020002D040F0080001E020F008008DF836
:10B090000200217C11B140F0100001E020F010000E
:10B0A0008DF80200217B11B140F0010001E020F099
:10B0B00001008DF80200217D09B1022100E001218B
:10B0C00061F342008DF802001C2102A8FCF793FAFC
:10B0D000607BC10601D4800617D50E950EAFE07CCB
:10B0E000791C07F015F89DF83800079720F00F003D
:10B0F000401C20F0F00010308DF838009DF83A0028
:10B1000020F00600801C8DF83A00607B8DF8080066
:10B11000A07B8DF80900142109A8FCF76CFA0FA890
:10B12000CDE90906A088ADF83000A06820B1E0881C
:10B13000ADF82C00A0680D90A06998B30195008827
:10B14000ADF81000A06901AD01A94088ADF812006A
:10B15000A069406806950390A069007B06F0D8FFBF
:10B16000A069691C407B06F0D3FFA069807A0028A3
:10B170009DF8060002D040F0080001E020F0080031
:10B180008DF80600A169C97A11B140F0100001E004
:10B1900020F010008DF80600A169097A19B140F07D
:10B1A000010002E00DE020F001008DF80600A16929
:10B1B000897B09B1022100E0012161F342008DF891
:10B1C0000600E06900B10590434609AA02A9484675
:10B1D000AADF11B0BDE8F083426812681047000092
:10B1E00070B5084C050009D010342168002907D03B
:10B1F00008682060496828468847F6E70834F4E77D
:10B2000070BD0000042E0020054A012120B1012854
:10B2100005D19170FFF7E4BF51700020FAE7704745
:10B22000042E002010B50021FDF772FC0021FDF76F
:10B230005CFC007810BD73B58CB006460020009011
:10B240000D9880B100246D4621460DA802F0C5F886
:10B2500030B1009805EB400084800098401C0090BD
:10B26000641C142CF0D32C2269463046FCF7AAF952
:10B270000EB070BD2DE9F04117880646B81D144682
:10B280000D46984202D90C20BDE8F0813188072292
:10B2900006290AD34FF4486C4FF6FF73614501D974
:10B2A000994202D17088062801D21046ECE7604529
:10B2B00001D99842F9D1994203D0984201D08142F4
:10B2C000F3D80520E85520881221401C80B2208048
:10B2D00029542088401C80B220804119308807F012
:10B2E00003FE2188084480B220804119708807F04D
:10B2F000FBFD2188084420800020C5E702A24FF40E
:10B300009971FBF7FBBF00002E2E5C2E2E5C2E2EBB
:10B310005C4D795F4C69627261726965735C626CE5
:10B32000654D616E616765722E63000038B54A7ABB
:10B330000F4B62B100220A725969002906D001221E
:10B340008DF80020ADF802006846884738BD0A7ABB
:10B3500062B19B684C68024619462046FDF7D8F951
:10B360000028F3D0BDE8384006F056B95B68F1E735
:10B37000BC89002010B50121FDF7CAFB0021FDF7B3
:10B38000B4FB007810BD10B50121FDF7C1FB012110
:10B39000FDF7ABFB007810BDF0B50C4606461E4825
:10B3A0001E4987B0401AC708042000EB0740334607
:10B3B00022461BA103F0D9F9002004900590ADF8B6
:10B3C000104001900290ADF8124001AA04A9304645
:10B3D00090DF05001DD003F015FE0346012000EBB1
:10B3E0000740044632461A4903F0BFF9BDF804206D
:10B3F00012B9BDF8060028B1BDF80630204615A1E7
:10B4000003F0B3F9BDF808201AB12046214903F032
:10B41000A5F907B02846F0BD045E03008C5D03006B
:10B420005570646174696E672064617461206C6535
:10B430006E67746820746F202575206F6E20636FAF
:10B440006E6E656374696F6E20307825782E00000B
:10B45000305B0300546865207265717565737465AF
:10B46000642054582F5258207061636B6574206CAF
:10B47000656E67746820697320746F6F206C6F6EDF
:10B48000672062792025752F2575206F6374657498
:10B49000732E00007C5B03002DE9FF410C4620B1B8
:10B4A0004FF4064004B0BDE8F0812079002748F24F
:10B4B000096538B141F61D5601281BD0022826D057
:10B4C000681DEFE70220207102970397E068019062
:10B4D000694601A805F0A8FF50B102988188E18073
:10B4E00000882081BDF80010029806F01BF8D9E70B
:10B4F0002846D7E70A4B6A460021A01D05F04CFFFD
:10B5000038B1074918398F61CF61A842CAD1304696
:10B51000C8E703488188019806F004F8F5E70000C1
:10B52000082C0020F8B50F4605460124002608F037
:10B530009DFC12E0411E296000F072FE0446A888BE
:10B54000761C401CF6B2A880062E03D2286808B1EB
:10B55000002CEFD108F08AFC0026286810B1002CDE
:10B56000F4D103E014B1284601F066F887B13CB18C
:10B5700005208DF800000121684607F07DFE08E0F7
:10B5800006208DF800000121684607F075FE02E0F4
:10B590000CB100F007FD08F069FC2046F8BD000082
:10B5A00010B50021024801F051FF80F3100010BDDA
:10B5B000885800206FEA0061C90F61F31F107047BF
:10B5C0000106044900D5903100F00F0001EB001096
:10B5D00070470000842E00202DE9F843104D0F46DF
:10B5E00080461E4691466946286801F0BFFE040069
:10B5F00014D01C21FBF7FFFF01202071C4F8149028
:10B60000380BC4F80080C4E902606946286801F07C
:10B61000CEFE05F0A1FE0020BDE8F8830420FBE784
:10B620003C4D030003F004BD812003F02FBD8220B8
:10B6300003F02CBD832003F029BD842003F026BD38
:10B64000852003F023BD862003F020BD872003F072
:10B650001DBD000038B5882507F020FF2846FFF7FC
:10B66000AFFF817B0124032915D00068002811D188
:10B670002846FFF79FFF8440E1430C4803F092FD0A
:10B680000B480A49806800900C398DF802504968CF
:10B690006846884738BD2846FFF78CFF8440E14361
:10B6A000BDE83840014803F07DBD00002C2B002090
:10B6B000FC48030038B507F0F1FE0020FFF780FFDB
:10B6C000817B0124032906D0006870B1BDE83840B1
:10B6D0004C2003F053BD0020FFF76CFF8440E14392
:10B6E000BDE83840094803F05DBD0020FFF762FF68
:10B6F0008440E143054803F055FD05480349C0680F
:10B700000C39009049686846884738BD2C2B0020CA
:10B71000FC480300012003F0D5BC022003F0D2BC9A
:10B72000032003F0CFBC042003F0CCBC052003F0C1
:10B73000C9BC062003F0C6BC072003F0C3BC000050
:10B7400038B5082407F0AAFE2046FFF739FF817BB1
:10B75000032915D00068002812D12046FFF72AFFE0
:10B7600001218140C943074803F01CFD06480549F3
:10B77000406900900C398DF8024049686846884756
:10B7800038BD00002C2B0020FC48030070B50E488B
:10B7900004680460BFF36F8FBFF34F8F01260CE086
:10B7A00094FAA4F0B0FA80F52846FDF741FF06FAB6
:10B7B00005F18C43294608F02BF8002CF0D1BDE8A8
:10B7C000704007F079BE00006C74024010B5054C63
:10B7D000A078FFF7EFFE0146A078BDE8104008F022
:10B7E00017B80000202B0020F8B51A4800681A4D41
:10B7F000C6B2A878FFF7DEFE012404FA00F128891A
:10B80000EA68C04380B21043014202D0A87807F032
:10B810004FFF06F08000A8700020FFF7CBFE04FA6F
:10B8200000F68020FFF7C6FE04FA00F006430A483F
:10B83000F1430C3003F0B6FC8020FFF7BBFE8440E0
:10B84000A86804430548AC60006A009069686846CF
:10B850008847F8BD80740240202B0020FC4803007C
:10B8600038B5002000900F480068ADF8020088202D
:10B87000FFF7A0FE012505FA00F40A4860380068C9
:10B8800040B1C10301D4401C04D00820FFF792FE50
:10B8900085402C430449886820438860496868468D
:10B8A000884738BD20750240202B002070470000DB
:10B8B000F8B518480568284603F04EFCBFF36F8FB3
:10B8C000BFF34F8F144E154CE80506D5012060706C
:10B8D000706A0090616868468847A8054FF00007C5
:10B8E00005D56770B06A009061686846884768054A
:10B8F0000ED5607800280BD06770094901200860D8
:10B90000582003F03BFCF06A009061686846884765
:10B91000F8BD000000740240FC480300202B00200A
:10B9200008750240054908B5002048708870044831
:10B930004068009049686846884708BD202B002071
:10B94000FC48030010B503780022072B06D2DFE87D
:10B9500003F005040610202930000A7010BD0123F1
:10B960000B7003898B818388CB81C06888600A74DF
:10B9700010BD02220A7002898A818288CA81C26847
:10B980008A60807D062802D00020087410BD012046
:10B99000FBE703220A70C2888A810289CA81C068D3
:10B9A000886010BD04230B70C0888881CA818A60BA
:10B9B00010BD0520087010BD70B5064D0646002468
:10B9C00055F8241009B130468847641C042CF7D37D
:10B9D00070BD00002C33002030B50446006887B0ED
:10B9E0000D46806800281FD018216846FBF703FE2B
:10B9F0000195A0680590207910B1012810D107E0C9
:10BA000001208DF8000020690290E068039005E0B5
:10BA100002208DF80000E068000302906069049045
:10BA2000206881686846884707B030BD034901EB4C
:10BA30008000A0F50830D0F800087047AC2C00203A
:10BA400070B5254B254C064603211B1B4068214A37
:10BA5000DB0801EB034498B1FFF7E8FF03463078B9
:10BA60001FA152F82020204602F07FFE194D3078A9
:10BA70002D1F062811D2DFE800F00B1A0D1A0D0D4C
:10BA800030781FA152F82020204602F067FEEDE733
:10BA9000706810B92878401E287020462A7822A1A4
:10BAA00002F05CFE02F0E8FC0028FBD170BD70687B
:10BAB0000028EFD1204622A1B26802F04FFEB289E1
:10BAC000204626A102F04AFEF289204629A102F072
:10BAD00045FEDFE7942C0020FC5D03008C5D030035
:10BAE000464C4153483A204576656E743A2025739A
:10BAF00020726563656976656420282573290000D6
:10BB0000464C4153483A204576656E743A20257379
:10BB100020726563656976656420284E52465F53DE
:10BB20005543434553532900464C4153483A20500E
:10BB3000726F63657373696E67202564000000008F
:10BB4000464C4153483A205265636F726420494421
:10BB50003A0930782530347800000000464C4153D3
:10BB6000483A2046696C652049443A0930782530C6
:10BB700034780000464C4153483A205265636F7256
:10BB800064206B65793A09307825303478000000FC
:10BB900038B504460F480078B0B1A4F57F40FF38AF
:10BBA0000FD0684605F008FB88B10521017001211E
:10BBB0000171C480684605F00DFB05F0BFFB002055
:10BBC00038BD48F2036038BD48F2016038BD48F224
:10BBD000076038BD102C00200E4808B5007890B1E1
:10BBE000684605F0E9FA88B106210170684605F05B
:10BBF000F1FA0948017811B1012180F8851005F0AA
:10BC00009DFB002008BD48F2016008BD48F20760B6
:10BC100008BD0000102C00209C3D0020F0B587B02E
:10BC200014216846FBF7E7FC304C207818B16846D1
:10BC3000FFF7C2FE57E0201D01F0EAFB98BB40F67B
:10BC4000F8700168481C02D14FF0102041694FF094
:10BC50008050026940694B1C01D100FB02F124486D
:10BC600000220161A1F5F821C160224902F0C8F863
:10BC7000002823D121481C23C4221F49006801F059
:10BC800062FB04F0BDFD050016D0022D14D0002784
:10BC90000126062D14D005A805F08EFA98B106707D
:10BCA0000C2D1BD200E01EE0DFE805F01810181084
:10BCB000181718171812141248F20A6007B0F0BDCE
:10BCC00026706760B3E748F20760F7E7077105E0A1
:10BCD000032100E00221017100E0067105A805F0D2
:10BCE00079FA05F02BFB0020E8E70000102C00207B
:10BCF000BC2D00204C4D03003C330020544C03006D
:10BD000038B5040014D0694605F08EFBB0B1BDF81B
:10BD1000000000EB80010B4800EB8100C16851B1CD
:10BD2000A17A41B1C168491EC1600020A07238BD2E
:10BD300048F2046038BD48F2056038BD48F2096039
:10BD400038BD0000003400201FB501A9684605F089
:10BD500023FB04B010BD0000F8B50D46040018D058
:10BD6000BDB1694605F060FBB0B1BDF800000C49FB
:10BD700000EB800001EB800001210C30666801F0CF
:10BD80004AFB2E6060680C3068600120A0720020C1
:10BD9000F8BD48F20460F8BD48F20960F8BD000043
:10BDA0000034002018B10323002208F093B848F2B1
:10BDB000046070470223002208F08CB8094910B5CE
:10BDC0000A69042A0AD0084A096942F8210005488C
:10BDD0000121103001F01FFB002010BD48F20B6064
:10BDE00010BD0000F02B00202C3300200AB101F020
:10BDF000FFBA01F0E7BA70B50D460446B0F8141466
:10BE0000D0F810040122FDF78EFE00B1057004F198
:10BE10003C0204F5826104F1540072DF70BD000041
:10BE20000A4810B5027872B109480A49401AC00898
:10BE3000032101EB004008A102F090FC02F01CFB82
:10BE40000028FBD110BD012010BD0000902C002067
:10BE5000FC5D03008C5D0300464C4153483A205082
:10BE6000726F63657373696E672069732025640060
:10BE70007FB505460122002101A800F0D3F91F4932
:10BE80001F4B0322C91AC90802EB014400281ED027
:10BE90003422294601A800F0D1FA00282BD02046F0
:10BEA00018A102F057FC20461FA12A6802F056FC98
:10BEB000AA88204622A102F051FCEA88204627A148
:10BEC00002F04CFC02F0D8FA0028FBD112E0204628
:10BED00028A102F03FFC00BF02F0CEFA0028FBD1FF
:10BEE000342000902B460122002101A800F0AAF87E
:10BEF000002800D0012004B070BD0000FC5D0300EC
:10BF00008C5D0300464C4153483A20436F6E66698E
:10BF100067206C6F61646564207375636365737318
:10BF200066756C6C793A0000464C4153483A205390
:10BF300061766564207377656570733A20256400C7
:10BF4000464C4153483A2044656C657465642073DF
:10BF500077656570733A202564000000464C4153B4
:10BF6000483A2053656E74207377656570733A2084
:10BF700025640000464C4153483A20436F6E666981
:10BF800067207265636F7264206E6F7420666F75D0
:10BF90006E642C206372656174696E67206F6E65D4
:10BFA000000000001348144970B5401AC10803206E
:10BFB00000EB0140054611A102F0CCFB02F05CFA57
:10BFC0000028FBD1164C2078401C2070FFF704FE9F
:10BFD00068B1284613A102F0BDFB00BF02F04CFA85
:10BFE0000028FBD12078401E2070002070BD012069
:10BFF00070BD0000FC5D03008C5D0300464C4153A6
:10C00000483A2052756E6E696E6720676172626190
:10C01000676520636F6C6C656374696F6E00000008
:10C02000902C0020464C4153483A2047617262618F
:10C03000676520636F6C6C656374696F6E20666101
:10C04000696C00002DE9FF470E46814600912648A5
:10C0500026499846401AC10803200C9D00EB014078
:10C060001746134604462A4621A102F086FB00BF6C
:10C0700002F002FA0028FBD1ED1CA808284DCDE9FA
:10C080000280ADF80460ADF80670287801A9401C64
:10C0900028704846FFF78EFE40B1A0F506410639EC
:10C0A00012D020A240F22D11FBF728F9204633468A
:10C0B0003A4626A102F059FB02F0DEF90028FBD136
:10C0C000012004B0BDE8F087204633463A4626A159
:10C0D00002F04BFB02F0D0F90028FBD12878401E7B
:10C0E00028700020EDE70000FC5D03008C5D03007C
:10C0F000464C4153483A2057726974696E6720254F
:10C100006420627974657320746F207265636F7246
:10C110006420256420696E2066696C6520256400B2
:10C12000902C00202E2E5C2E2E5C2E2E5C4D795FE6
:10C130004C69627261726965735C666C6173684DAB
:10C14000616E616765722E6300000000464C4153CA
:10C15000483A205772697465207265636F72642073
:10C160007375636365737300464C4153483A2046C8
:10C170006C6173682066756C6C2C207772697465CD
:10C18000207265636F7264206661696C0000000054
:10C1900070B50646134814493246401AC1080320B8
:10C1A00000EB0140054611A102F0D8FA02F064F953
:10C1B0000028FBD1134C2078401C2070B0B2FFF750
:10C1C000E7FC60B1284610A102F0C4FA02F054F96D
:10C1D0000028FBD12078401E2070002070BD012077
:10C1E00070BD0000FC5D03008C5D0300464C4153B4
:10C1F000483A2044656C6574696E672066696C65B1
:10C2000020256400902C0020464C4153483A20469B
:10C21000696C652064656C657465206661696C0095
:10C22000FFF7B6BF2DE9FC41074600200D46009000
:10C230000190164816491646401AC108032000EB23
:10C24000014004462B4613A102F08FFA02F014F9C4
:10C250000028FBD1B1B2A8B26B463A46FFF774FD95
:10C260000028204608D015A102F074FA02F004F963
:10C270000028FBD1BDE8FC8116A102F06BFA00BFDB
:10C2800002F0FAF80028FBD10120F3E7FC5D03007F
:10C290008C5D0300464C4153483A204C6F6F6B69EC
:10C2A0006E6720666F72207265636F72642025640A
:10C2B00020696E2066696C6520256400464C4153F8
:10C2C000483A205265636F7264206E6F7420666F07
:10C2D000756E6400464C4153483A205265636F7254
:10C2E0006420666F756E64002DE9FE43884607463C
:10C2F0002D482E491C46401AC108032000EB01407E
:10C30000164605462AA1DDF8289002F023FA00BF60
:10C3100002F0B2F80028FBD1042249466846FFF734
:10C3200081FF00283DD00C222146684600F086F8A7
:10C33000002836D0012249466846FFF773FF0028DF
:10C340002FD0A06839468200684600F077F80028B0
:10C3500027D0022249466846FFF764FF002820D014
:10C36000A06841464200684600F068F8002818D0EE
:10C37000032249466846FFF755FF002811D0A06800
:10C3800031464200684600F059F8002809D0284696
:10C390000EA102F0DFF900BF02F06EF80028FBD119
:10C3A0000120BDE8FE830000FC5D03008C5D0300FE
:10C3B000464C4153483A205374617274696E672049
:10C3C000676574207377656570000000464C4153C3
:10C3D000483A2053776565702067657420737563EC
:10C3E000636573730000000010B50848FFF7E6FCB2
:10C3F00007480178491C0170FFF710FC18B105A22D
:10C40000F321FAF77BFF012010BD000041BA0200C2
:10C41000902C00202E2E5C2E2E5C2E2E5C4D795FF3
:10C420004C69627261726965735C666C6173684DB8
:10C43000616E616765722E63000000002DE9FC41AA
:10C440000D4607461B481C491646401AC1080320E2
:10C4500000EB0140044619A102F07CF902F00CF84F
:10C460000028FBD169463846FFF776FC60B1FFF73C
:10C47000DDFA0246204618A102F070F901F0FCFF37
:10C480000028FBD1BDE8FC81324628460199FBF724
:10C4900099F83846FFF734FC08B10020F2E720464F
:10C4A00015A102F057F900BF01F0E6FF0028FBD10B
:10C4B0000120E7E7FC5D03008C5D0300464C41531F
:10C4C000483A2052656164696E672066726F6D201C
:10C4D0007265636F72640000464C4153483A2045D0
:10C4E00072726F72206F70656E696E672066696C1C
:10C4F000653A202573000000464C4153483A2052CB
:10C500006561642073756363657373002DE9FF478C
:10C510000F4680462B482C490C9E401AC108032028
:10C5200000EB014091461D460446324627A102F029
:10C5300015F900BF01F0A0FF0028FBD1642E0CD933
:10C540002046324629A102F009F900BF01F094FF0C
:10C550000028FBD104B0BDE8F087A86843468000FE
:10C5600000900122314601A8FFF76CFD0028F1D0B0
:10C57000A8683B46400000900222314601A8FFF720
:10C5800061FD0028E6D0A8684B46400000900322D9
:10C59000314601A8FFF756FD0028DBD00C200090A3
:10C5A0002B460422314601A8FFF74CFD0028D1D0CC
:10C5B00020461AA102F0CEF801F05EFF0028FBD160
:10C5C0000120C7E7FC5D03008C5D0300464C41532E
:10C5D000483A205374617274696E6720736176659E
:10C5E000207377656570202564000000464C415338
:10C5F000483A204D6178204E756D626572206F66F5
:10C600002053776565707320526561636865642E99
:10C61000204E6F7420536176696E6700464C41531B
:10C62000483A20537765657020736176652073758D
:10C6300063636573730000007FB505461C481D49A0
:10C64000401AC108032000EB01441BA1204602F060
:10C6500081F8204620A12A6802F080F8AA882046A6
:10C6600023A102F07BF8EA88204628A102F076F8A0
:10C67000A87A00906B7A2A7A20462AA102F07DF8E7
:10C6800001F0FAFE0028FBD10122002101A8FFF7EA
:10C69000C9FD00280AD0342000902B460122002139
:10C6A00001A800F04DF8002800D0012004B070BDB2
:10C6B000FC5D03008C5D0300464C4153483A205515
:10C6C00070646174696E672074686520636F6E665C
:10C6D00069672066696C6500464C4153483A2053AF
:10C6E00061766564207377656570733A2025640010
:10C6F000464C4153483A2044656C65746564207328
:10C7000077656570733A202564000000464C4153FC
:10C71000483A2053656E74207377656570733A20CC
:10C7200025640000464C4153483A204465766963CD
:10C73000652049443A2025632563256300000000F5
:10C740002DE9FE430E468146254826499846401A63
:10C75000C108032000EB014017460446334622A1DE
:10C760000A9D02F002F800BF01F086FE0028FBD10E
:10C77000ED1CADF80060A808ADF80270244DCDE9BD
:10C78000018028786946401C28704846FFF70AFB5C
:10C7900040B1A0F50641063911D01EA240F2611148
:10C7A000FAF7ACFD204633463A4624A101F0DDFFFE
:10C7B00001F062FE0028FBD10120BDE8FE83204687
:10C7C00033463A4624A101F0D0FF00BF01F054FEE9
:10C7D0000028FBD12878401E28700020EDE70000DB
:10C7E000FC5D03008C5D0300464C4153483A2055E4
:10C7F00070646174696E67207265636F726420256E
:10C80000642061742066696C652025640000000066
:10C81000902C00202E2E5C2E2E5C2E2E5C4D795FEF
:10C820004C69627261726965735C666C6173684DB4
:10C83000616E616765722E6300000000464C4153D3
:10C84000483A205772697465207265636F7264207C
:10C850007375636365737300464C4153483A2046D1
:10C860006C6173682066756C6C2C207772697465D6
:10C87000207265636F7264206661696C000000005D
:10C88000406804F0B9BC00000EB516A19DF8080080
:10C8900020F00F00401C20F0F00010308DF8080050
:10C8A0000B2202A87CDF20B1114A4FF4F571FAF790
:10C8B00025FD0020009001901021ADF80400ADF896
:10C8C00000104FF4C8703C21ADF80600ADF802101E
:10C8D00068467ADF002804D0054A4FF4FA71FAF767
:10C8E0000DFD0EBD454D495F4E4F5F4E414D45001C
:10C8F000D097020070B505461148124A124C4B8879
:10C900008688121BD408B3420FD10A88A2F520638F
:10C91000773B0AD18988C91E8AB2C280032000EB06
:10C920000440134609A101F020FF04202B886A88E7
:10C9300000EB0440BDE870400BA101F016BF000001
:10C940000C2D0020FC5D03008C5D030044617461CC
:10C95000206C656E2069732073657420746F2030BD
:10C960007825582825642900415454204D545520D9
:10C9700065786368616E676520636F6D706C657460
:10C9800065642E2063656E7472616C203078257842
:10C99000207065726970686572616C2030782578E6
:10C9A0000000000010B50C490C4800F0CCFD20B18F
:10C9B0000BA24FF4FF71FAF7A1FCF721074800F032
:10C9C000B6FD002806D0BDE8104005A240F20121C6
:10C9D000FAF794BC10BD0000F5C80200A85B002067
:10C9E0002E2E5C2E2E5C2E2E5C4D795F4C69627271
:10C9F00061726965735C626C654D616E61676572D9
:10CA00002E63000070B510B14FF4064070BD1D4C90
:10CA1000002594F8850010B184F8855001E000F0FD
:10CA2000A7F82078082829D2DFE800F02804080CAD
:10CA300010281421BDE8704000F028B8BDE870400F
:10CA400000F084B8BDE8704000F066B8BDE8704002
:10CA500000F042B80620207060880B4900EB80008F
:10CA600001EB80004068BDE8704003F0A9BE0720DC
:10CA700020706560BDE8704003F0B0BE48F20E6003
:10CA800070BD00009C3D0020003400201149F0B42E
:10CA90008A1C00200346A1F69C150C18A67A4EB1FC
:10CAA000A37200EB800405EB8404E66816B9247CCD
:10CAB000012C0AD0401C80B27B28EED30B704B8037
:10CAC0004B60F0BC41F61D5070471080F0BC00F088
:10CAD0003DB800009C3D00200C48418801EB8102DC
